:020000040800F2
:10000000C82F00209902000841420008F538000876
:100010003D420008A31500084151000800000000FF
:10002000000000000000000000000000B5460008CD
:10003000711600080000000045420008B74600089D
:10004000B3020008B3020008B3020008B3020008BC
:10005000B3020008B3020008911600089D160008BC
:10006000B3020008B3020008B3020008A915000893
:10007000B9150008B3020008B3020008B302000873
:10008000B302000800000000B3020008B302000839
:10009000B3020008B3020008B3020008B30200086C
:1000A000B3020008B3020008B3020008B30200085C
:1000B000B302000859470008B3020008B302000861
:1000C000B3020008B3020008B3020008B30200083C
:1000D000B30200082151000831510008B3020008A2
:1000E000B3020008B3020008B3020008B30200081C
:1000F000B3020008B3020008B302000800000000C9
:1001000000000000B302000800000000B302000875
:10011000B302000800000000B3020008B3020008A8
:10012000B3020008B3020008B3020008B3020008DB
:10013000B30200080000000000000000B302000845
:10014000B3020008B3020008000000000000000035
:10015000000000000000000000000000000000009F
:10016000000000000000000000000000B3020008D2
:10017000B3020008000000000000000000000000C2
:1001800000000000B30200080000000000000000B2
:10019000000000000000000000000000000000005F
:1001A0000000000000000000B3020008B3020008D5
:1001B000B3020008B3020008B30200080000000008
:1001C00000000000B3020008000000000000000072
:1001D000B3020008B302000800F002F800F04CF887
:1001E0000AA090E8000C82448344AAF10107DA4592
:1001F00001D100F041F8AFF2090EBAE80F0013F098
:10020000010F18BFFB1A43F001031847486C0000A8
:10021000686C0000103A24BF78C878C1FAD8520739
:1002200024BF30C830C144BF04680C607047000070
:100230000023002400250026103A28BF78C1FBD8EF
:10024000520728BF30C148BF0B607047662905F0D0
:10025000AC84642900F0F480002070471FB505F0DD
:100260009FFC00F061FC04000020002105F086F8EE
:10027000E0601FBD10B510BD00F056FD1146FFF740
:10028000EDFF04F0DDFF00F074FD03B4FFF7F2FFB3
:1002900003BC00F0B7FD000009488047094800474B
:1002A000FEE7FEE7FEE7FEE7FEE7FEE7FEE7FEE726
:1002B000FEE7FEE704480549054A064B7047000083
:1002C00045470008D9010008C8290020C82F002090
:1002D000C82B0020C82B002053EA020C00F06980D4
:1002E0002DE9F04B4FF00006002B1FBFB3FA83F54A
:1002F00003FA05F424FA05F65E4012BF1643B2FA7B
:1003000082F502FA05F4C5F120051EBF22FA05FCAC
:1003100044EA0C04203556EA044C4FEA144418BF52
:10032000641C4FF000084FF00009904271EB030C81
:1003300039D3002919BFB1FA81F701FA07F6B0FAEB
:1003400080F700FA07F6C7F120071EBF20FA07FC66
:1003500046EA0C062037B6FBF4FCA7EB0507103F76
:1003600007F01F0BCBF120060CFA0BFB2CFA06F65C
:1003700044BFB3460026202FA4BF5E464FF0000BBB
:100380005BEA060C08BF4FF0010B19EB0B09ABFB46
:10039000027C48EB0608C01B06FB02CC0BFB03CC1F
:1003A00071EB0C01C1E70B46024641464846BDE8E9
:1003B000F08B13B54FF000004FF00001AFF3008059
:1003C000BDE81C40704700000FB41CB5074B06AADF
:1003D0007B4469460090059800F08DFB002069463B
:1003E00000F09CFB1CBC5DF814FB000049070000FA
:1003F00070B5044685690068C10601D5302600E065
:100400002026C00707D070BDD4E9012130469047AF
:10041000206A401C20626D1EF6D570BD70B5044682
:1004200085690078C00707D170BDD4E9012120207B
:100430009047206A401C20626D1EF6D570BD0000FA
:100440002DE9F0410646002410687529314616A5AD
:1004500010D0AFF30080002802DA404213A507E075
:1004600031688A0701D512A502E0490704D511A514
:10047000012401E0AFF3008000210A2206F12407E5
:1004800009E0B0FBF2FCB0FBF2F302FB1C003030E1
:1004900078541846491C0028F3D123462A46304692
:1004A000BDE8F04100F0B9B8000000002D000000E8
:1004B0002B000000200000002DE9F0474FF0000A5B
:1004C00089460446C0F820A02046E16888470028F5
:1004D00076D0252806D0D4E901219047206A401C17
:1004E0002062F1E7E168204600258847C4F81CA097
:1004F00006460027C4F818A02A2E09D0304604F07A
:1005000055FE38B304EB8708303EC8F8186019E090
:1005100059F8041B204604EB87029161E168884783
:10052000012F064618D1E069002820DA25F02005C1
:100530001DE0D8F8180000EB800006EB40003038D2
:10054000C8F818002046E1688847064604F02EFEE9
:100550000028EED1012F0AD02E2E08D12046E168C6
:1005600088477F1C0646022F45F02005C4DBA069A2
:10057000002803DA404245F00105A061E80701D0F8
:1005800025F01005B6B1A6F14100192802D8203691
:1005900045F400654A463146204625604D46FFF742
:1005A00055FE58B1012806D0ED1D25F0070000F1D9
:1005B000080989E704E005F1040985E730468AE780
:1005C000206ABDE8F0874FF0000200B5134694465C
:1005D0009646203922BFA0E80C50A0E80C50B1F19B
:1005E0002001BFF4F7AF090728BFA0E80C5048BFAF
:1005F0000CC05DF804EB890028BF40F8042B08BF4D
:10060000704748BF20F8022B11F0804F18BF00F848
:10061000012B70477047704770472DE9F0470D4632
:1006200099469246044600F124080168880604D5DC
:10063000E06921F01001216000E00120A84201DD05
:10064000471B00E00027A1697A1902EB0900081A8C
:10065000A0612078C00602D42046FFF7C9FE00261C
:1006600008E0D4E901211AF806009047206A401CEE
:10067000761C20624E45F4DB2078C0060AD5204661
:10068000FFF7B6FE06E0D4E9012130209047206A4A
:10069000401C2062381EA7F10107F4DC07E0D4E912
:1006A000012118F805009047206A401C2062281E8E
:1006B000A5F10105F3DC2046FFF7B0FE2078000627
:1006C00002D50220BDE8F0870120FBE770472DE945
:1006D000FF4F0C461E464FF0FF378BB0D2E90001AA
:1006E000DDF860800A908A46C1F30A5505B93D4697
:1006F000002108464FF00000BAF1000F00F440005E
:1007000005DA00EB80004FF4400101EA50004FEAA7
:100710009059B9F1010F00DDB9460A9850EA4A0034
:100720000ED044F61050A5F2FF3545432F14B8F112
:10073000000F1ED07542291E1EDDC9F100021CE00B
:10074000B8F1010F4FF0000001D0302103E0F24377
:1007500005E02154401CB042FBDB30460022002162
:1007600021540B99C1F80880C1E900200FB0BDE801
:10077000F08FBD1B6D1CDEE74A4600DA694206A811
:1007800000F05CFA06AB93E8070003AB83E80700D0
:1007900050460A9900F03DFB8DE80700A0F5005097
:1007A0001F3800900398002D0ADD42F21F014A46CF
:1007B0000844002303A90390684600F0A6FD09E061
:1007C000A0F500504A461F38002303A9039068464D
:1007D00000F0B0FD8DE807000004000C03D04FF0DE
:1007E000FF30410800E01046B8F1000F03D00022AE
:1007F000009215461EE0751E05D400F099F93032BE
:1008000062556D1EF9D5B3460122084302D000227D
:100810007F1C04E02078302801D100227F1E002AAE
:10082000099784D01DE0112D07DA00F081F93032EC
:1008300062556D1C50EA0102F5D1084302D00098C0
:10084000C8B10EE00021681E05E0235C625C6354C1
:100850002254401E491C8142F7DBAB46A81B401EB8
:100860000990002004F80B000B98099AC0F8088042
:10087000C0E9002B7AE711264FF0000857E72DE971
:10088000F04F88460446D21D22F0070191B0D1E90D
:100890000001CDE90A0104F055FC02460B98C00F97
:1008A00001D02D2007E02068810701D52B2002E030
:1008B000202101EAC000032A099001D0072A05DBA4
:1008C00003464146204600F079F90BE12078800686
:1008D00001D5E06900E00620B8F1650F814606D039
:1008E000B8F1660F18D0B8F1670F70D131E0002071
:1008F000B9F1110F009001DB112301E009F10103AF
:100900000AAA01A90CA8FFF7E2FEDDE90C70002697
:1009100009F10105834647E001204B4600904FF066
:1009200000470AAA01A90CA8FFF7D1FEDDE90DB026
:100930000C995D46002610B909F101000D18B9EBBC
:10094000050003D4C0F1FF3609F10105A5EB09004C
:100950002BE0B9F1010F01DA4FF001090020B9F1E4
:10096000110F0090484601DD112300E003460AAA5A
:1009700001A90CA8FFF7ABFEDDE90C704D4600267F
:100980008346207800070AD4AB4500DA5D4601A80B
:10099000012D04DD411911F8011C302907D04F4504
:1009A00002DA17F1040F04DA012082460FE06D1E0F
:1009B000EEE7002F02DCED1B3E4403E0781CA8426A
:1009C00000DD7D1CB81B00F1010A4FF000472078C4
:1009D000000703D4AA4501DB4FF0FF3A0021B7F12D
:1009E000004F0DF143088DF8431024D002202B2333
:1009F000002F01DA7F422D230A21021EA0F10100FF
:100A000000DC5FB197FBF1FC97FBF1F201FB1C7C72
:100A100017460CF1300C08F801CDEEE7A8F1010003
:100A200003702188090501D5452100E06521A0F169
:100A3000010800F8011C09980FA9A1EB0807FF1D88
:100A400000B10120411901EBEA70A1693844081A8C
:100A5000401EA0612078C00602D42046FFF7C8FCE3
:100A6000099828B1D4E901219047206A401C2062EE
:100A70002078C00622D52046FFF7BAFC1EE0002EE3
:100A800004DBB34502DD01A8805D00E03020D4E93D
:100A900001219047206A401C2062761CAAF10100C7
:100AA0005FEA000A0AD100F03FF8C0680168405CC4
:100AB000D4E901219047206A401C2062281EA5F13C
:100AC0000105DCDC07E0D4E9012118F8010B9047AF
:100AD000206A401C2062381EA7F10107F3DC204683
:100AE000FFF79CFC032011B041E6000001694A1C9D
:100AF00002610878704700B58FB0CDE9013100215F
:100B0000059105497944CDE9031011466846FFF780
:100B1000D3FC0FB000BD0000E5FFFFFF0A6802F83C
:100B2000010B0A60704700000048704788290020C8
:100B300030B5B0F10A024FEA900E71F100034EEAAF
:100B4000817EB0EB0E0061EB91014FEA101E4EEA80
:100B5000017E10EB0E0041EB11114FEA102E4EEA10
:100B6000016E10EB0E0041EB11214FEA104E4EEAE0
:100B7000014E10EB0E0041EB1141401841F1000114
:100B80004FEAD00040EA41704FEAD10110EB8005F6
:100B90004FEA810444EA907444EB01046D1944EB7C
:100BA0000404521BA3414FF0000348BF0A3200D592
:100BB00030BD401C41F1000130BD00002DE9F04185
:100BC0001F46044603260168072A01F4006004DB7F
:100BD00008B116A505E016A503E008B115A500E0CB
:100BE00015A521F010002060A069C01EA0610FB102
:100BF000401EA0612046FFF7FBFB4FB1D4E9012165
:100C000038469047206A401C2062C01C206206E0E3
:100C1000206AFAE7D4E9012115F8010B9047761E06
:100C2000F8D22046FFF7FAFBBDE8F0814E414E00B6
:100C30006E616E00494E4600696E66002DE9F04710
:100C4000814616468AB0354878440DC88DE80D00B7
:100C500032487844801C03AC0DC884E80D0041F68E
:100C60009B300844372190FBF1F290FBF1F5A5F1A0
:100C7000800501FB12041B3C02D56442012000E008
:100C80000020DFF898A080460027FA44AAF1BE0AA7
:100C90000EE0E0070AD03246684607EB4701012321
:100CA0000AEB810100F046FB8DE8070064107F1C11
:100CB000002CEED1194F7F44AE3F19E0E80715D064
:100CC00007EB04100DF1180A90E80E008AE80E00F8
:100CD000C068F04201D1981908903246012306A954
:100CE00003A800F027FB03AB83E807006D10641C2A
:100CF000002DE3D14FF0010332466946B8F1000FF1
:100D000003A802D000F001FB01E000F013FBC9E9E9
:100D10000001C9F808200AB0BDE8F087F0610000C2
:100D200000487047682900207546FFF7F9FFAE4676
:100D300005006946534620F00700854618B020B5E7
:100D4000FFF7B8FABDE820404FF000064FF000076B
:100D50004FF000084FF0000B21F00701AC46ACE863
:100D6000C009ACE8C009ACE8C009ACE8C0098D46D0
:100D7000704710B50446AFF300802046BDE8104030
:100D8000FFF783BA4FF0013C50F8042B51F8043BB5
:100D90009A4221D1A2EB0C03934313EACC1317D14F
:100DA00050F8042B51F8043B9A4215D1A2EB0C03E6
:100DB000934313EACC130BD150F8042B51F8043BA6
:100DC0009A4209D1A2EB0C03934313EACC13DBD074
:100DD0004FF00000704700BFD01A01BAB1FA81F19C
:100DE00001F0180122FA01F0CB40C1F12001DBB281
:100DF000C0B2C01A2CFA01F3D11A914311EAC311FF
:100E0000E6D1704701491820ABBEFEE7260002007C
:100E100070475FEA400C08BF91F0000F4FEA8C2347
:100E20004FEAC12243EA51514FEA1C5018BF00F566
:100E3000F0404FEA300018BF41F000415FEA6C5CBF
:100E400000F02980BCF1FF3F08BF40F080407047B0
:100E5000130C06BF12044FF0100C4FF0000C130ED1
:100E600004BF12020CF1080C130F04BF12010CF1A5
:100E7000040C930F04BF92000CF1020CD30F04BFBB
:100E800052000CF1010C11464FF00002A0F11F00BE
:100E9000A0EB0C00704711F0004F08BF704731F015
:100EA00000413FF4D5AF0B0C06BF09044FF0100C06
:100EB0004FF0000C0B0E04BF09020CF1080C0B0FD5
:100EC00004BF09010CF1040C8B0F04BF89000CF165
:100ED000020CCB0F04BF49000CF1010CCCF1200334
:100EE000A0EB0C0022FA03F302FA0CF241EA030130
:100EF00000F10100704720F07F4C80EA030023F0EE
:100F00007F47ACEB070303F57C5300F0004003F18F
:100F1000FF032DE980494FEA154B09B44FEA14430A
:100F200025EA0B4E24EA03480FF2042606EB1327AA
:100F300049083E785FEA320203FB0667C7F50007FF
:100F400007FB06F64FEA54374FEAD64606F102068B
:100F500007FB066CCCF1005C4FEA1C472CEA074CFF
:100F600007FB06F40CFB06F504EB15464FEA961654
:100F700034BF00204FF000404FEAD13706FB07FC9A
:100F80004FEA1C4C0CFB0BF7D21B03FB0CF761EB7D
:100F900007010CFB0EF7B0EB074072EB17420CFB9E
:100FA00008F734BFA2EB0742B2EB074261EB1741EF
:100FB0004FEA0C444FEA910706FB07FC4FEA1C4C32
:100FC0000CFB0BF7B0EBC74072EB573203FB0CF78F
:100FD00034BFA2EBC742B2EBC74261EB57310CFB07
:100FE0000EF7B0EBC70072EB57720CFB08F734BF7B
:100FF000A2EBC702B2EBC70261EB5771039F4FEA46
:10100000816141EA921104EBCC044FEAD1374FEAF7
:10101000826206FB07FC42EA90124FEA80604FEAC8
:101020001C4C0CFB0BF7D21B03FB0CF761EB07010D
:101030000CFB0EF7B0EB074072EB17420CFB08F706
:1010400034BFA2EB0742B2EB074261EB17414FEA14
:101050008C554FEA910704EB9C2406FB07FC4FEAF2
:101060001C4C0CFB0BF7B0EBC74072EB573203FB89
:101070000CF734BFA2EBC742B2EBC74261EB57316A
:101080000CFB0EF7B0EBC70072EB57720CFB08F7C6
:1010900034BFA2EBC702B2EBC70261EB577115EB8D
:1010A0004C254FEA816141EA92114FEA82624FEA90
:1010B000D13742EA901206FB07FC44F100044FEAE4
:1010C00080604FEA1C4C0CFB0BF7D21B03FB0CF7A8
:1010D00061EB07010CFB0EF7B0EB074072EB174218
:1010E0000CFB08F734BFA2EB0742B2EB074261EBFF
:1010F000174115EB1C154FEA813141EA92414FEA45
:10110000823242EA90424FEA80304FEA0C7644F154
:10111000000448EA03434EEA0B484FF0000EB2EBDE
:10112000080C71EB030724BF624639464EEB0E0EE6
:101130004FF0000B0018524149414BEB0B0BB2EB47
:10114000080C71EB03077BF1000B24BF62463946A4
:101150004EEB0E0E4FF0000B0018524149414BEB85
:101160000B0BB2EB080C71EB03077BF1000B24BFF8
:10117000624639464EEB0E0E51EA020718BF46F0A2
:10118000010616EB0E7655F1000254F1000103D56D
:10119000BDE88901BDE80088BDE88901BDE80048D7
:1011A000B619524141EB0101A3F101037047808060
:1011B0007F7E7D7C7B7A79787776767574737271B1
:1011C00071706F6E6E6D6C6C6B6A6A696868676669
:1011D00066656464636362616160605F5F5E5E5DFB
:1011E0005D5C5C5B5B5A5A5959585857575656556F
:1011F00055555454535352525251515050504F4FD1
:101200004F4E4E4D4D4D4C4C4C4B4B4B4A4A4A4920
:101210004949484848474747474646464545454463
:101220004444444343434342424242414141002BF0
:101230009C4630D477002BD01CB54FEA370703B457
:101240004FF010004FF01001BAF1000F06D0BCF1C2
:10125000000FDCBF40F0080040F008014FF0000034
:101260000FBCBDE810400BF1010BBBF1010F08BF33
:101270005FEA170722BF12F1010211F101014FF0DD
:10128000004143F1000300F0004043EA00007047D2
:10129000F9D35708D0E746EA064613F1400F4FEA64
:1012A00016461FDD13F1200FDFBF16430A4600214B
:1012B00020335B42BED0C3F1200746EA064602FA5D
:1012C00007F74FEA164646EA0706C3F1200722FA57
:1012D00003F201FA07F721FA03F14FF0000342EAA3
:1012E0000702A7E746EA020646EA06464FEA16461E
:1012F00046EA0106BCBF46EA0646360C4FF000033C
:101300004FF000024FF0000194E72DE9804C9A461F
:10131000934670B491E8380007C831EA400C48BFE2
:1013200034EA430C03D5FFF7E6FDFFF780FFF0BC7E
:10133000BDE8008C2DE9804C9A46934670B491E844
:10134000380007C810F0804F08BF13F0804F03D15A
:1013500000F005F8FFF76BFFF0BCBDE8008C20F053
:101360007F4780EA030023F07F4C07EB0C03A3F5D3
:101370007C5300F00040A3F1FE0392F0000F00F058
:10138000B38095F0000F00F077802DE901494FEA16
:1013900011404FEA144621EA004800FB06FC24EA0B
:1013A000064708FB06F607FB08F800FB07F718EBF3
:1013B00006484CEB164C4FEA124B18EB07484FEA25
:1013C00015464CEB174022EA0B4E0BFB06FC25EAB8
:1013D00006470EFB06F607FB0EFE0BFB07F71EEBA0
:1013E000064E4CEB164C4FF000061EEB074E4CEB36
:1013F000174B18EB0B0840F1000018EB0E0B58EBE5
:10140000000840F100008F1A4FF000013CBFC943B3
:10141000661B14BFB5EB040C00213CBFC943F61B8F
:101420004FEA17444EEA8E0E27EA04454FEA1C475E
:1014300004FB07622CEA074C05FB07F70CFB05F6DB
:1014400004FB0CFC16EB074642EB174216EB0C466E
:1014500042EB1C421BEB060658EB0202414146EAF6
:101460009E0601D5BDE80189B619524141EB010143
:10147000A3F10103BDE801894FEA14454FEA114782
:1014800024EA054621EA074C05FB07F406FB07F7AB
:101490000CFB06F105FB0CFC11EB074144EB174478
:1014A0004FEA124711EB0C4144EB1C4422EA074C73
:1014B00005FB07F206FB07F70CFB06F605FB0CFC29
:1014C00016EB074642EB174216EB0C4642EB1C4567
:1014D0006A1854F1000148BF7047B619524141EBF8
:1014E0000101A3F10103704795F0000F37D04FEAD7
:1014F00011424FEA144721EA024624EA074C02FB54
:1015000007F106FB07F70CFB06F402FB0CFC14EBDF
:10151000074441EB17414FEA154714EB0C4441EBEC
:101520001C4125EA074C02FB07F506FB07F70CFBFD
:1015300006F602FB0CFC16EB074645EB174516EBCF
:101540000C4645EB1C42121951F1000148BF70478F
:10155000B619524141EB0101A3F1010370474FEA73
:1015600014454FEA114724EA054621EA074C05FBDA
:1015700007F106FB07F70CFB06F24FF0000605FB30
:101580000CFC12EB074241EB174112EB0C4251EB02
:101590001C4148BF7047921841EB0101A3F10103C0
:1015A000704700BFFEE7000010B5024800F034F9B4
:1015B00010BD0000A828002010B5024800F02CF94A
:1015C00010BD00000829002030B50E4D0468AC4263
:1015D00001D20D4901E00C4920310B460478083C4A
:1015E0001425B4FBF5F2446CA40803EB8404846472
:1015F000054C8034C46402F01F050124AC4004652E
:1016000030BD0000080402400008024001794A1E73
:10161000064B03EB82024265044A403282654A1E51
:1016200002F01F0301229A40C26570470009024080
:1016300030B5D0E913546C60446D14B1D0E9165440
:101640006C6090F8444004F01F050124AC40056C28
:101650006C60046863608468102C04D10468A26024
:101660000468E16003E00468A1600468E26030BDE2
:101670007047002109E0002201E0531C9AB240F6B5
:10168000B8339A42F9DB4B1C99B28142F3DB7047C5
:1016900010B5012000F020FA10BD000070B54FF623
:1016A000FF7002F031FA0FA1002002F0B5FA012418
:1016B0003C250AE0E0B203F081FD6400642000F004
:1016C000F5F9C4F3002000B10124281EA5F101059D
:1016D000F0D1022000F000FA4FF6FF7002F014FA89
:1016E00070BD00002020204920616D2061206C6FBA
:1016F000772D6C6576656C20696E74657272757095
:10170000742E20202020000072B600BFFEE70146A4
:10171000002091F82520022A03D00422CA63012068
:1017200027E00A68126822F00E020B681A608A6CC1
:10173000126822F480728B6C1A600A68126822F0B8
:1017400001020B681A6091F8442002F01F03012285
:101750009A400B6C5A60D1E913325A604A6D42B11B
:101760004A6D126822F480724B6D1A60D1E916320C
:101770005A60012281F8252000BF002281F8242030
:1017800000BF704770B50446002594F82500022874
:101790000BD00420E063012084F8250000BF002066
:1017A00084F8240000BF012534E02068006820F0A0
:1017B0000E00216808602068006820F001002168A0
:1017C0000860A06C006820F48070A16C086094F838
:1017D000440000F01F0101208840216C4860D4E9DA
:1017E00013104860606D40B1606D006820F4807037
:1017F000616D0860D4E916104860012084F8250066
:1018000000BF002084F8240000BFA06B10B1204668
:10181000A16B8847284670BD70B50446206C0568EA
:101820002068066894F8440000F01F0104208840F6
:101830002840E0B106F00400C8B12068006800F05C
:10184000200028B92068006820F0040021680860A2
:1018500094F8440000F01F0104208840216C486087
:10186000206B002856D02046216B884752E094F820
:10187000440000F01F0102208840284018B306F001
:10188000020000B32068006800F0200040B9206822
:10189000006820F00A0021680860012084F8250013
:1018A00094F8440000F01F0102208840216C486039
:1018B00000BF002084F8240000BFE06A50B3204637
:1018C000E16A884726E094F8440000F01F010820F0
:1018D00088402840F0B106F00800D8B120680068C0
:1018E00020F00E002168086094F8440000F01F0109
:1018F00001208840216C48600120E06384F82500C5
:1019000000BF002084F8240000BF606B10B12046A7
:10191000616B884770BD000070B504460CB90120AA
:1019200070BD2F49206888420BD22E492068401A8A
:101930001421B0FBF1F0800060642A48083820646C
:101940000AE027492068401A1421B0FBF1F080001A
:101950006064234808382064022084F82500206849
:10196000056847F6F0708543D4E902010843216910
:10197000084361690843A1690843E1690843216A92
:1019800008430543206805602046FFF71DFEA06858
:10199000B0F5804F01D1002060602079A16C086013
:1019A000D4E913104860606860B16068042809D801
:1019B0002046FFF72BFE0020616D0860D4E9161069
:1019C000486003E000206065A065E0650020E063FA
:1019D000012084F82500002084F8240000BF9FE740
:1019E00008040240080002402DE9F04104460D467B
:1019F00016461F464FF0000800BF94F82400012847
:101A000002D10220BDE8F081012084F8240000BF4B
:101A100094F8250001283FD1022084F825000020F9
:101A2000E0632068006820F00100216808603B4600
:101A3000324629462046FFF7FBFD206B30B1206877
:101A4000006840F00E00216808600BE02068006824
:101A500020F00400216808602068006840F00A0057
:101A600021680860A06C006800F4803028B1A06C88
:101A7000006840F48070A16C0860606D28B1606DF2
:101A8000006840F48070616D08602068006840F074
:101A900001002168086006E000BF002084F82400EF
:101AA00000BF4FF002084046ACE7000070B50446A6
:101AB00000F01AF906462546681C10B10448006873
:101AC000054400BF00F010F9801BA842FAD370BD96
:101AD000080000207047000010B504460448006864
:101AE000204020B1024804602046FFF7F3FF10BDFC
:101AF0001404014078B503460022D0E00126964048
:101B00000D6805EA0604002C72D04D68012D08D03E
:101B10004D68022D05D04D68112D02D04D68122D53
:101B200013D1986856000325B540A8435600CD68E8
:101B3000B54028439860586801259540A8430D7921
:101B4000C5F30015954028435860D8685600032512
:101B5000B540A84356008D68B5402843D8604D680D
:101B6000022D02D04D68122D13D1D60803F12005A5
:101B700055F826005507EE0E0F25B540A843560729
:101B8000F60E0D69B5402843D60803F1200545F847
:101B90002600186856000325B540A8430D7905F0C6
:101BA00003055600B540284318604D6805F0805580
:101BB000B5F1805F72D100BF3C4D2D6E45F001053F
:101BC0003A4E356635462D6E05F00105009500BF8D
:101BD00000BF4FEAB635960855F8260095072E0F38
:101BE0000F25B540A843B3F1904F02D100251AE06C
:101BF00054E02F4DAB4201D1012514E02D4DAB42F5
:101C000001D102250FE02C4DAB4201D103250AE0A2
:101C10002A4DAB4201D1042505E0294DAB4201D14B
:101C2000052500E006259607360FB5402843254DCB
:101C3000960845F82600244D2868A0434D6805F411
:101C40008035B5F5803F00D120431F4D28602D1D04
:101C50002868A0434D6805F40035B5F5003F00D174
:101C60002043194D2D1D28602D1D2868A0434D6867
:101C700005F48015B5F5801F00D12043124D0835BD
:101C800028602D1D2868A0434D6805F40015B5F5A2
:101C9000001F00D120430C4D0C352860521C0D68EC
:101CA000D540002D7FF42AAF78BD0000001002401F
:101CB0000004004800080048000C004800100048DC
:101CC0000014004808000140000401400246136966
:101CD0000B400BB1012000E0002070470AB1816188
:101CE00000E0816270470000014800687047000012
:101CF00000000020034800680349096808440149BE
:101D000008607047000000200800002010B5002483
:101D1000032000F0ABF8002000F008F808B101241F
:101D200001E000F02FF8204610BD000070B5044619
:101D3000002511480068D8B10F4800684FF47A7147
:101D4000B1FBF0F00D490968B1FBF0F6304600F048
:101D50002BFF58B9102C07D200222146501E00F04C
:101D600047F80748046004E0012502E0012500E08F
:101D70000125284670BD0000080000200C0000204E
:101D80000400002008B500BF0E48006E40F00100BE
:101D90000C4908660846006E00F00100009000BF84
:101DA00000BF00BF0846806D40F08050886508463F
:101DB000806D00F08050009000BF00BF00F0F6F88A
:101DC00008BD0000001002400146084600280DDB57
:101DD00000BF00BF00F01F0301229A4043099B008F
:101DE00003F1E023C3F8002100BF00BF00BF70472C
:101DF0002DE9F05F80460D46164603F0BBF9074615
:101E000039462A46334601F00700C0F1070ABAF105
:101E1000040F02D94FF0040A01E0C0F1070AD146CD
:101E200000F1040ABAF1070F02D24FF0000A01E0F4
:101E3000A0F1030AD4464FF0010A0AFA09FAAAF1FE
:101E4000010A0AEA020A0AFA0CFA4FF0010B0BFA2D
:101E50000CFBABF1010B0BEA030B4AEA0B04214626
:101E6000404603F08FF9BDE8F09F000000BF00F08E
:101E70000702064B19684FF6FF031940044B0B434A
:101E800043EA0221014B196000BF70470CED00E0EE
:101E90000000FA0502468ABB4148006800F4C060B1
:101EA000B0F5806F2BD13E488030006820F4807000
:101EB0003B4BC3F880001846006820F4C06040F433
:101EC000007018603748006832235843364BB0FB27
:101ED000F3F0411C00E0491E3148406900F4806085
:101EE000B0F5806F01D10029F5D12D48406900F48B
:101EF0008060B0F5806F51D10320704708E028481A
:101F00008030006820F48070254BC3F8800045E0E5
:101F1000B2F5007F3AD12248006800F4C060B0F505
:101F2000806F2AD11E488030006840F480701C4BBE
:101F3000C3F880001846006820F4C06040F40070C8
:101F400018601848006832235843174BB0FBF3F071
:101F5000411C00E0491E1248406900F48060B0F561
:101F6000806F01D10029F5D10D48406900F48060EF
:101F7000B0F5806F12D10320BFE7094880300068B8
:101F800040F48070064BC3F8800007E00448006806
:101F900020F4C06040F48060014B18600020ACE782
:101FA000007000400C00002040420F000348806891
:101FB00040F4804001498860704700000070004094
:101FC0002DE9F84304460027B846206800F40020B5
:101FD000B0F5002F73D1B946D348806D00F0805022
:101FE00078B900BFD048806D40F08050CE498865F8
:101FF0000846806D00F08050009000BF00BF4FF099
:102000000109CA48006840F48070C8490860FFF7B9
:102010006BFE064606E0FFF767FE801B022801D92B
:10202000032705E0C148006800F480700028F2D062
:1020300000BF002F46D1BC489030006800F44075C6
:10204000CDB1206CA84216D0B7489030006820F47B
:102050004075B548D0F8900040F48030B249C1F8DE
:1020600090000846D0F8900020F48030C1F890002D
:102070000846C0F8905005F00100A0B1FFF734FE0B
:10208000064608E0FFF730FE801B41F288318842A7
:1020900001D9032706E0A4489030006800F0020050
:1020A0000028EFD000BF5FB99F489030006820F44F
:1020B0004070216C08439C49C1F8900003E00CE09B
:1020C000B84600E0B846B9F1010F05D19648806DD9
:1020D00020F080509449886500BF207800F001000E
:1020E00048B191488830006820F0030061680843D7
:1020F0008D49C1F88800207800F00200022809D13B
:1021000089488830006820F00C00A168084386499F
:10211000C1F88800207800F00400042809D1824822
:102120008830006820F03000E16808437E49C1F83B
:102130008800207800F00800082809D17A48883003
:10214000006820F0C000216908437749C1F8880081
:10215000207800F02000202809D1734888300068DA
:1021600020F44060616908436F49C1F88800207815
:1021700000F04000402809D16B488830006820F406
:102180004050A16908436849C1F88800207800F0F0
:102190008000802809D164488830006820F44040DD
:1021A000E16908436049C1F88800208800F4807024
:1021B000B0F5807F09D15C488830006820F4403059
:1021C000216A08435849C1F88800208800F400704B
:1021D000B0F5007F09D154488830006820F44020D1
:1021E000616A08435049C1F88800208800F4806083
:1021F000B0F5806F13D14C488830006820F440104F
:10220000A16A0843484988310860A06AB0F5801F78
:1022100005D14548C06840F480104349C860208813
:1022200000F40060B0F5006F13D13F4888300068BB
:1022300020F44000E16A08433B4988310860E06AC5
:10224000B0F5800F05D13848C06840F48010364999
:10225000C860208800F48050B0F5805F13D1324808
:102260008830006820F04070216B08432E49883187
:102270000860206BB0F1807F05D12B48C06840F426
:1022800080102949C860208800F40050B0F5005F34
:1022900013D125488830006820F04060616B084306
:1022A000214988310860606BB0F1006F05D11E488C
:1022B000C06840F480101C49C860208800F4804049
:1022C000B0F5804F13D118488830006820F0406086
:1022D000A16B0843144988310860A06BB0F1006F0E
:1022E00005D11148C06840F480100F49C8602088AB
:1022F00000F40040B0F5004F13D10B48883000685F
:1023000020F04050E16B0843074988310860E06BDA
:10231000B0F1805F05D10448C06840F480300249C4
:10232000C8604046BDE8F8830010024000700040DD
:102330002DE9F04104460D464FF0000814B9012084
:10234000BDE8F0817D48006800F00F00A8420ED281
:102350007A48006820F00F00284378490860084652
:10236000006800F00F00A84201D00120E8E72078C3
:1023700000F00100002864D06068032823D1704871
:10238000006800F0007008B90120D9E701F05CFF97
:1023900006466C48864237D96948806800F0F000EC
:1023A00030B1207800F0020002282DD1A06858BB7F
:1023B0006348806820F0F00040F080006049886049
:1023C0004FF0800820E06068022806D15C48006871
:1023D00000F4003040B90120B2E75948006800F429
:1023E000806008B90120ABE700F0DEF806465548EA
:1023F000864209D95248806820F0F00040F0800001
:102400004F4988604FF080084D48806820F00300F5
:10241000616808434A498860FFF766FC074608E0A0
:10242000FFF762FCC01B41F28831884201D90320CA
:1024300086E74348806800F00C006168B0EB810FCC
:10244000EED1207800F00200022820D1207800F0A0
:102450000400042805D13A48806840F4E060384917
:102460008860207800F00800082807D13448806888
:1024700020F4605040F4E060314988603048806862
:1024800020F0F000A16808432D49886008E0B8F109
:10249000800F05D12A48806820F0F0002849886024
:1024A0002648006800F00F00A84219D923480068A8
:1024B00020F00F00284321490860FFF715FC07466C
:1024C00008E0FFF711FCC01B41F28831884201D9B6
:1024D000032035E71948006800F00F00A842F0D14A
:1024E000207800F00400042807D11548806820F403
:1024F000E060E168084312498860207800F0080035
:10250000082808D10E48806820F46050216940EA0C
:10251000C1000B49886000F047F809498968C1F398
:102520000311094A515C01F01F01C84007490860C6
:1025300007480068FFF7FAFB02E7000000200240AE
:102540000010024000B4C404D65B00080C00002058
:102550000400002001480068704700000C000020C3
:1025600000B5FFF7F7FF05498968C1F30221044A66
:10257000515C01F01F01C84000BD00000010024086
:10258000E65B000800B5FFF7E5FF05498968C1F380
:10259000C221044A515C01F01F01C84000BD000087
:1025A00000100240E65B000870B5224DAD6805F0F2
:1025B0000C05042D01D120483AE01E4DAD6805F010
:1025C0000C05082D01D11D4832E01A4DAD6805F00B
:1025D0000C050C2D2BD1174DED6805F00304154D9E
:1025E000ED68C5F303156A1C022C0CD0032C09D12D
:1025F000124DB5FBF2F50F4EF668C6F3062605FB45
:1026000006F10AE000BF0C4DB5FBF2F5094EF66885
:10261000C6F3062605FB06F100BF00BF054DED68B9
:10262000C5F341656D1C6B00B1FBF3F000E00020C9
:1026300070BD0000001002400024F40000366E015E
:102640002DE9F843044614B90120BDE8F883207849
:1026500000F00100002865D0FC48806800F00C07FD
:10266000FA48C06800F003060C2F01D1032E01D0F8
:10267000082F0AD1F548006800F40030002851D036
:10268000606800284ED10120DFE700BF6068B0F528
:10269000803F06D1ED48006840F48030EB49086087
:1026A0001AE06068B0F5A02F0BD1E848006840F44C
:1026B0008020E64908600846006840F480300860E1
:1026C0000AE0E248006820F48030E04908600846EB
:1026D000006820F48020086000BF606888B1FFF7C0
:1026E00003FB054606E0FFF7FFFA401B642801D90B
:1026F0000320AAE7D548006800F400300028F2D093
:1027000010E0FFF7F1FA054606E0FFF7EDFA401B8F
:10271000642801D9032098E7CC48006800F4003011
:102720000028F2D1207800F00200022860D1C748CA
:10273000806800F00C07C548C06800F003060C2F45
:1027400001D1022E01D0042F18D1C048006800F436
:10275000806018B1E06808B9012076E7BB4840689E
:1027600020F0FE40217C40EA0160B8494860B8484A
:102770000068FFF7DBFA18B3012066E7E06800B3F2
:10278000B248006840F48070B0490860FFF7ACFAC6
:10279000054606E0FFF7A8FA401B022801D90320EE
:1027A00053E7AA48006800F480600028F2D0A748E8
:1027B000406820F0FE40217C40EA0160A349486067
:1027C00016E0A248006820F48070A0490860FFF776
:1027D0008BFA054606E0FFF787FA401B022801D96D
:1027E000032032E79948006800F480600028F2D1A5
:1027F000207800F00800082836D16069D0B19348ED
:102800009430006840F001009049C1F89400FFF74F
:102810006BFA054606E0FFF767FA401B022801D96C
:10282000032012E789489430006800F00200002875
:10283000F1D019E085489430006820F00100834908
:10284000C1F89400FFF750FA054606E0FFF74CFA8E
:10285000401B022801D90320F7E67C489430006829
:1028600000F002000028F1D1207800F004000428D4
:1028700072D14FF000087548806D012121EA107077
:1028800078B100BF7148806D40F080506F49886515
:102890000846806D00F08050009000BF00BF4FF0F0
:1028A00001086C48006800F48070B0B9694800689D
:1028B00040F4807067490860FFF716FA054606E0A5
:1028C000FFF712FA401B022801D90320BDE6614838
:1028D000006800F480700028F2D000BFA0680128D2
:1028E00008D15A489030006840F001005749C1F8BB
:1028F000900021E0A06805280FD15448903000686E
:1029000040F004005149C1F890000846D0F890000A
:1029100040F00100C1F890000EE04C489030006893
:1029200020F001004949C1F890000846D0F8900015
:1029300020F00400C1F8900000BFA068A8B1FFF724
:10294000D3F9054609E0FFF7CFF9401B41F2883182
:10295000884202D9032078E625E03C4890300068A0
:1029600000F002000028EED013E0FFF7BDF90546A5
:1029700008E0FFF7B9F9401B41F28831884201D9DC
:10298000032062E631489030006800F00200002821
:10299000EFD1B8F1010F05D12C48806D20F08050A7
:1029A0002A49886500BF207800F02000202836D111
:1029B000A069D0B125489830006840F00100234953
:1029C000C1F89800FFF790F9054606E0FFF78CF98B
:1029D000401B022801D9032037E61C4898300068C4
:1029E00000F002000028F1D019E018489830006883
:1029F00020F001001549C1F89800FFF775F9054668
:102A000006E0FFF771F9401B022801D903201CE6FC
:102A10000E489830006800F002000028F1D1E0690B
:102A2000002860D00948806800F00C000C287FD096
:102A3000E069022858D10548006820F080700349F9
:102A40000860FFF751F905460DE000000010024054
:102A50000400002000700040FFF746F9401B0228E8
:102A600001D90320F1E54D48006800F0007000280E
:102A7000F2D1D4E90810401E41EA0011A06A41EAEF
:102A80000021208E0122C2EB500041EA4051342047
:102A9000005DC2EB500041EA40612C20005D41EA3C
:102AA000C0603E49C9683E4A114008433B49C8607E
:102AB0000846006840F0807008600846C06840F032
:102AC0008070C860FFF710F9054606E0FFF70CF9C3
:102AD000401B022801D90320B7E53048006800F008
:102AE00000700028F2D056E02C48006820F080707A
:102AF0002A4908600846C06820F00300C8600846FC
:102B0000C068284908402549C860FFF7EDF8054628
:102B100007E00DE0FFF7E8F8401B022801D9032089
:102B200093E51E48006800F000700028F2D132E002
:102B3000E069012800D188E51848C66806F003015D
:102B4000206A814225D106F0F001606A401EB1EB97
:102B5000001F1ED106F4FE41A06AB1EB002F18D170
:102B600006F078412C20005DB1EBC06F11D106F466
:102B7000C001208E0122C2EB5000B1EB405F08D1B2
:102B800006F0C0613420005DC2EB5000B1EB406F35
:102B900001D0012059E5002057E500000010024057
:102BA0000C809F01FFFFEEFE70B504462546681EAF
:102BB000B0F1807F01D301200FE0681E4FF0E021CB
:102BC00048610F214FF0FF3002F0DCFA00204FF097
:102BD000E021886107200861002070BD70477047C0
:102BE000704770477047704730B502460B4600BFCC
:102BF00092F83C00012801D1022030BD012082F86A
:102C00003C0000BF022082F83D0010684168106857
:102C100084681D4D1068A84203D01C4D1068A8425E
:102C200003D121F470015868014319480140186824
:102C3000014310684160144D1068A84213D0106819
:102C4000B0F1804F0FD0134D1068A8420BD0124D39
:102C50001068A84207D00D4D1068A84203D00F4D50
:102C60001068A84205D124F08004986804431068D5
:102C70008460012082F83D0000BF002082F83C0003
:102C800000BF00BFB9E70000002C01400034014044
:102C90008FFFFFFD0004004000080040004001409D
:102CA000704710B504460CB9012010BD94F83D00E2
:102CB00028B9002084F83C00204600F029F80220C2
:102CC00084F83D00211D206801F04EFD012084F8AC
:102CD000480000BF84F83E0001213F2001554020FC
:102CE000015541200155422001554320015500BFA7
:102CF00000BF012084F844004520015546200155BD
:102D00004720015500BF012084F83D000020CCE79A
:102D100038B504460D492068884215D100BF0C48DB
:102D2000806D40F002000A4988650846806D00F019
:102D30000200009000BF00BF002211461D20FFF7D7
:102D400057F81D20FFF740F838BD00000004004090
:102D5000001002402DE9F04104460D4600BF94F8F2
:102D60003C00012802D10220BDE8F081012084F856
:102D70003C0000BF022084F83D00206886683F4880
:102D8000064026F47F46206886602868702824D094
:102D90000CDC00F00F01002964D10011072861D27A
:102DA000DFE800F05354555649353F00344A811A44
:102DB00090424FD009DCB0F5805F0DD0B0F5005FD8
:102DC00018D0B0F1101F4DD143E0102943D0202975
:102DD00042D0502946D140E045E0D5E902136A6867
:102DE000206801F01FFD2068866846F0770620689D
:102DF000866038E0D5E902136A68206801F012FDA8
:102E00002068806840F48040216888602BE0EA6890
:102E10006968206801F01EFD5021206801F00EFD58
:102E200021E0EA686968206801F027FD60212068D8
:102E300001F004FD17E0EA686968206801F00AFD06
:102E40004021206801F0FAFC0DE000BF00BF00BF88
:102E500000BF00BF00BF00BF00BF2968206801F0AD
:102E6000EDFC00E000BF00BF012084F83D0000BF82
:102E7000002084F83C0000BF00BF75E788FFCEFF4C
:102E800020001000704710B5044620680069C0F3A8
:102E90004000D8B12068C068C0F34000B0B16FF006
:102EA000020021680861012020772068806900F015
:102EB000030018B12046FFF7E5FF05E0204600F0CB
:102EC00002F9204600F000F9002020772068006910
:102ED000C0F38000D8B12068C068C0F38000B0B1F2
:102EE0006FF0040021680861022020772068806963
:102EF00000F4407018B12046FFF7C4FF05E02046FB
:102F000000F0E1F8204600F0DFF80020207720688C
:102F10000069C0F3C000D8B12068C068C0F3C00029
:102F2000B0B16FF0080021680861042020772068A4
:102F3000C06900F0030018B12046FFF7A3FF05E0C9
:102F4000204600F0C0F8204600F0BEF800202077B0
:102F500020680069C0F30010D8B12068C068C0F3D1
:102F60000010B0B16FF010002168086108202077D0
:102F70002068C06900F4407018B12046FFF782FF56
:102F800005E0204600F09FF8204600F09DF8002064
:102F900020772068006900F0010058B12068C068FF
:102FA00000F0010030B16FF0010021680861204697
:102FB00000F08BF820680069C0F3C01058B1206899
:102FC000C068C0F3C01030B16FF0800021680861A4
:102FD0002046FFF704FE20680069C0F3002058B1C6
:102FE0002068C068C0F3C01030B16FF480702168F1
:102FF00008612046FFF7F2FD20680069C0F38010E9
:1030000058B12068C068C0F3801030B16FF0400044
:1030100021680861204600F059F820680069C0F373
:10302000401058B12068C068C0F3401030B16FF054
:103030002000216808612046FFF7D2FD2068006962
:10304000C0F3005058B12068C068C0F3005030B1E0
:103050006FF48010216808612046FFF7C3FD2068E7
:103060000069C0F3405058B12068C068C0F34050B8
:1030700030B16FF40010216808612046FFF7B1FD00
:1030800020680069C0F3805058B12068C068C0F360
:10309000805030B16FF48000216808612046FFF74E
:1030A000A2FD20680069C0F3C05058B12068C06814
:1030B000C0F3C05030B16FF40000216808612046B1
:1030C000FFF7EEFD10BD704770477047704701462F
:1030D00000BF91F88000012801D102207047012033
:1030E00081F8800000BF2420C1F8840008680268CD
:1030F0000868006820F001000B68186022F0005298
:1031000000204866086802602020C1F8840000BFE3
:10311000002081F8800000BF00BFDFE72DE9F0410B
:1031200004460E461746D4F88800202827D106B159
:1031300017B90120BDE8F08100BF94F88000012894
:1031400001D10220F6E7012084F8800000BFE0668C
:103150003A463146204601F033FF05466DB9E06E30
:10316000012809D11020216808622068006840F019
:1031700010002168086000E001252846DAE70220F7
:10318000D8E7000070B58AB006460C4622461549BD
:10319000154800F051FB00200AE0A04204DA114972
:1031A000095C05AA115402E0202105AA1154401C13
:1031B0001428F2DB012002F023F805462A460BA171
:1031C0006846FDF701F96946A82000F025FDE0B248
:1031D00001F0F4FF642203490348FFF79FFF0AB0A0
:1031E00070BD00002C0000208827002020523D25C3
:1031F0006420202020200000704770B504460D4652
:1032000000BF94F88000012801D1022070BD012088
:1032100084F8800000BF2420C4F884002068066879
:103220002068006820F0010021680860206880683C
:1032300020F06060284321688860204601F032FB5E
:10324000206806602020C4F8840000BF002084F8B5
:10325000800000BF00BFD9E770B504460D4600BF2F
:1032600094F88000012801D1022070BD012084F86B
:10327000800000BF2420C4F884002068066820680D
:10328000006820F00100216808602068806820F054
:103290006040284321688860204601F003FB2068D5
:1032A00006602020C4F8840000BF002084F880005D
:1032B00000BF00BFD9E77047704770472DE9F0475E
:1032C00004462068C569206806682068876840F65B
:1032D0000F0005EA0009B9F1000F0FD105F0200039
:1032E00060B106F0200010B907F0805030B1206FB7
:1032F00010B12046216F8847BDE8F087B9F1000F73
:103300007ED0AD48384018B9AC4830400028F7D0DE
:1033100005F0010058B106F4807040B10120216829
:103320000862D4F88C0040F00100C4F88C0005F06D
:10333000020058B107F0010040B102202168086284
:10334000D4F88C0040F00400C4F88C0005F00400B0
:1033500058B107F0010040B1042021680862D4F898
:103360008C0040F00200C4F88C0005F0080070B139
:1033700006F0200010B99048384040B1082021687C
:103380000862D4F88C0040F00800C4F88C0005F402
:10339000006060B106F0806048B14FF400602168C1
:1033A0000862D4F88C0040F02000C4F88C00D4F8F7
:1033B0008C00002844D005F0200050B106F0200019
:1033C00010B907F0805020B1206F10B12046216F56
:1033D0008847D4F88CA02068806800F0400040281E
:1033E00002D00AF0280028B3204601F0E3FB206851
:1033F000806800F04000402818D12068806800E014
:103400001FE020F0400021688860E06F50B16C48F8
:10341000E16F8863E06FFEF7B5F988B1E06F816B0B
:1034200088470DE02046FFF748FF09E02046FFF7F8
:1034300044FF05E02046FFF740FF0020C4F88C0061
:103440005AE7E06E012879D105F01000002875D008
:1034500006F01000002871D0102021680862206852
:10346000806800F0400040283DD1E06F006840686F
:103470001FFA80F8B8F1000F34D0B4F85C00404572
:1034800030DDA4F85E80E06F0068006800F0200086
:10349000F8B92068006820F480702168086020680E
:1034A000806820F00100216888602068806820F032
:1034B0004000216888602020C4F888000020E06671
:1034C0002068006820F0100021680860E06FFEF7B7
:1034D0001EF9B4F85C00B4F85E20801A81B2204670
:1034E000FFF750FE08E734F85C0F6188401A1FFAB6
:1034F00080F860885C3CF8B1B8F1000F1CD02068FF
:10350000006820F4907021680860206880682A496B
:10351000C9430840216888602020C4F88800002042
:10352000E06620672068006820F0100021680860CD
:1035300041462046FFF726FEDEE6FFE705F4801051
:1035400050B107F4800038B14FF480102168086250
:103550002046FFF7B1FECFE605F0800058B106F037
:10356000800010B907F4000028B1606F10B1204648
:10357000616F8847C0E605F0400030B106F04000BA
:1035800018B1204601F034FBB6E605F4000030B176
:1035900006F0804018B12046FFF78DFEACE605F03E
:1035A000807030B106F0004018B12046FFF724FECD
:1035B000A2E600BFA0E60000010000102001000408
:1035C0006B4A000810B504460CB9012010BDA06973
:1035D00000B100E000BFD4F8840028B9002084F8CE
:1035E0008000204600F02AF82420C4F884002068D7
:1035F000006820F0010021680860204601F01AFBF5
:10360000012800D1E2E7A06A10B1204601F076F966
:103610002068406820F490402168486020688068F5
:1036200020F02A00216888602068006840F00100CE
:1036300021680860204601F0DDF9C7E710B586B0C3
:103640000446142101A8FCF7BEFF524920688842B5
:1036500068D100BF5048006E40F480404E49086673
:103660000846006E00F48040009000BF00BF00BF1D
:103670000846C06C40F00100C8640846C06C00F009
:103680000100009000BF00BF4FF4C0600190022015
:1036900002900020039004900720059001A94FF0AC
:1036A0009040FEF727FA3D483D49086019204860E0
:1036B00010213B4881600021C1608021016100210F
:1036C00041618161C1610162FEF726F908B1FEF72F
:1036D0001BF800BF3248A067846200BF2F48143037
:1036E000304908601820486000212E488160C16080
:1036F00080210161002141618161C1610162FEF7A8
:103700000BF908B1FEF700F800BF2648E0678462B5
:1037100000BF002211462520FEF76AFB2520FEF798
:1037200053FB34E020492068884230D100BF1A485A
:10373000806D40F40030184988650846806D00F4BB
:103740000030009000BF00BF00BF0846C06C40F0D2
:103750000100C8640846C06C00F00100009000BF82
:1037600000BF0C20019002200290002003900490E2
:103770000720059001A94FF09040FEF7BBF9002209
:1037800011462620FEF734FB2620FEF71DFB06B06F
:1037900010BD000000380140001002400800024047
:1037A000A8280020082900200044004070B50446E5
:1037B0000D461646D4F88800202825D105B10EB94B
:1037C000012070BD00BF94F88000012801D10220C3
:1037D000F7E7012084F8800000BF0020E0660B4975
:1037E000206888420AD02068406800F4000028B1B0
:1037F0002068006840F080602168086032462946F1
:10380000204601F0DDFBDCE70220DAE70080004023
:1038100010B5044602220549054800F00DF80222C1
:1038200002490348FFF7C2FF10BD00002C00002032
:10383000882700207047000070B504460E461546E4
:10384000D4F8840020284BD106B10DB9012070BDF9
:1038500000BF94F88000012801D10220F7E7012081
:1038600084F8800000BF44F8506FA580E5800020F8
:10387000E06321206063A06A503C08B31948A16F3F
:10388000C8621948A16F08631848A16F48630020F7
:10389000A16F8863236803F128022B46216DA06F76
:1038A000FEF7A2F860B11020C4F88C0000BF002021
:1038B00084F8800000BF2020C4F884000120C6E7FF
:1038C00040202168086200BF002084F8800000BF0B
:1038D0002068806840F08000216888600020B6E79A
:1038E0000220B4E76F4B0008A74B0008834A00088A
:1038F0007047704700BFFEE700B585B014216846E9
:10390000FCF761FEC020009001200190029002208F
:10391000039069460248FEF7EDF805B000BD0000CF
:103920000004004870B50825002400F083FE13E071
:103930006006040E002000F05DFE0A2001F05AFC33
:103940000A2001F057FC012000F054FE0A2001F08B
:1039500051FC00F063FE0443281EA5F10101CDB225
:10396000E6D100F047FE0A2001F044FC00F08CFE96
:10397000204670BD70B50446082517E0002000F011
:1039800039FE0A2001F036FC04F0800000F068FEE9
:103990000A2001F02FFC6006040E0A2001F02AFC28
:1039A000012000F027FE0A2001F024FC281EA5F1CA
:1039B0000101CDB2E2D100F01DFE0A2001F01AFC97
:1039C00070BD10B5012000F04BFE0A2001F012FC82
:1039D0000A2001F00FFC012000F00CFE0A2001F08B
:1039E00009FC002000F006FE0A2001F003FC10BDD7
:1039F00010B5012000F034FE0A2001F0FBFB01208D
:103A000000F0F8FD0A2001F0F5FB002000F028FE90
:103A10000A2001F0EFFB002000F0ECFD0A2001F08D
:103A2000E9FB10BD10B5002000F0E4FD0A2001F014
:103A3000E1FB002000F014FE0A2001F0DBFB012076
:103A400000F0D8FD0A2001F0D5FB012000F008FEAF
:103A50000A2001F0CFFB10BD10B5052400F0EAFDEF
:103A60000A2001F0C7FB012000F0C4FD0A2001F08C
:103A7000C1FB0BE0601E84B20A2001F0BBFB2CB935
:103A800000F002FEFFF7CEFF012010BD00F0C6FDE2
:103A90000028EFD100F0F8FD002000F0ABFD0A2077
:103AA00001F0A8FB0020F0E700B585B014216846BE
:103AB000FCF789FD4FF6FF70009000200190032075
:103AC00003900020029069460248FEF713F805B003
:103AD00000BD00000008004800B585B0142168460C
:103AE000FCF771FD4FF6FF7000900120019003205C
:103AF00003900020029069460248FDF7FBFF05B0E5
:103B000000BD00000008004830B505460024002133
:103B1000084600F03FF900F085F900BF03E02846B1
:103B200000F044F9641CB4F5963FF8D330BD0000B2
:103B300000B587B0142102A8FCF745FD00BF2A4854
:103B4000C06C40F004002849C8640846C06C00F00E
:103B50000400019000BF00BF00BF0846C06C40F0E9
:103B60000100C8640846C06C00F00100019000BF6D
:103B700000BF00BF0846C06C40F00200C8640846A1
:103B8000C06C00F00200019000BF00BF4FF448700D
:103B900002900120039000200590049002A9134890
:103BA000FDF7A8FF4FF480700290012003900020E1
:103BB0000590049002A94FF09040FDF79BFFFFF79E
:103BC0008BFF4FF09040806940F480704FF090413F
:103BD000886106481830006840F4087003491831BD
:103BE000086007B000BD000000100240000400485B
:103BF00070B505460E461446A4F12000C4B204EB8D
:103C00004400044901EB00123146284600F01AF83E
:103C100070BD0000EE5B0008F0B507460C460025BD
:103C200040F23F1609E0227831463846FFF7E0FFC0
:103C3000A6F1100086B2641C6D1C207808B1142D0A
:103C4000F1D3F0BD2DE9F04306468946174600241E
:103C50000025A046B0464946404600F09BF800BF0C
:103C60001EE000F0DFF800250FE037F81400012116
:103C7000A940084020B90C48008800F097F803E0FC
:103C80000A48008800F092F86D1C102DEDD308F161
:103C9000010000F0FF084946404600F07BF8641C34
:103CA000182CDED3BDE8F0831200002010000020A5
:103CB00010B5FFF73DFF002000F016F80949088015
:103CC0000846008848F23021884202D100F0F0FA1C
:103CD00001E000F07DFB002000F006F801490880BB
:103CE00010BD00001400002070B50446274800688D
:103CF00040F40070254908600846006840F4807070
:103D0000086022481038006840F020001F49103930
:103D100008601F4804601D48006840F020001B49EF
:103D2000086000BF00BF00BF18481038006840F0AE
:103D300020001649103908600846006840F4807079
:103D40000860FFF7B1FE4FF09040806A40F4807049
:103D50004FF09041886200BF00BF00BF0C48001FB9
:103D6000006885B24FF09040806940F480704FF059
:103D700090418861FFF7B0FE04481038006840F4B5
:103D80000070024910390860284670BD28040048B8
:103D90001408004830B504460D462146202000F0A6
:103DA0007DF82946212000F079F830BD1B490968CB
:103DB00041F40071194A116018491039096841F439
:103DC0008071164A103A11601146096841F02001CD
:103DD0001160134908601149096841F020010F4A38
:103DE000116000BF00BF00BF0C491039096841F0E5
:103DF00020010A4A103A11601146096841F48071A5
:103E0000116000BF00BF00BF04491039096841F4C8
:103E10000071024A103A11607047000028040048FF
:103E2000140800481B48006840F4007019490860F5
:103E30000846006840F48070086016481038006832
:103E400040F0200013491039086022201249086010
:103E50001048006840F020000E49086000BF00BF15
:103E600000BF0C481038006840F0200009491039A4
:103E700008600846006840F48070086000BF00BF1A
:103E800000BF04481038006840F400700149103940
:103E9000086070472804004814080048214A126846
:103EA00042F400721F4B1A601A46126842F4807284
:103EB0001A601C4A103A126842F02002194B103B5B
:103EC0001A60194A1060174A126842F02002154B16
:103ED0001A6000BF00BF00BF124A103A126842F0D9
:103EE0002002104B103B1A601A46126842F480728E
:103EF0001A600D4A11600B4A126842F02002094B09
:103F00001A6000BF00BF00BF064A103A126842F0B4
:103F10002002044B103B1A601A46126842F4807269
:103F20001A607047280400481408004808B500BF0C
:103F30001548806C40F00400134988640846806C82
:103F400000F00400009000BF00BF00BF0846806C76
:103F500040F0010088640846806C00F00100009089
:103F600000BF00BF002211460B20FDF741FF0B20D0
:103F7000FDF72AFF002211460C20FDF739FF0C2027
:103F8000FDF722FF08BD00000010024000B587B019
:103F9000142102A8FCF717FB00BF5148C06C40F089
:103FA00004004F49C8640846C06C00F0040001904A
:103FB00000BF00BF00BF0846C06C40F02000C864CE
:103FC0000846C06C00F02000019000BF00BF00BF99
:103FD0000846C06C40F00100C8640846C06C00F0A0
:103FE0000100019000BF00BF00BF0846C06C40F058
:103FF0000200C8640846C06C00F00200019000BFD7
:1040000000BF00BF0846C06C40F00800C864084606
:10401000C06C00F00800019000BF00BF01224FF407
:104020007F413048FDF75AFE002204212E48FDF75B
:1040300055FE0022C0212D48FDF750FE4FF47F4071
:1040400002900120039000200490059002A92548C9
:10405000FDF750FD0120029000200390049002A97A
:104060004FF09040FDF746FD03200290204803905A
:104070000020049002A91D48FDF73CFD0420029099
:1040800000200390049002A91848FDF733FD042096
:1040900002900120039000200490059002A912488C
:1040A000FDF728FDC020029001200390002004901D
:1040B000059002A90D48FDF71DFD00220E210620E6
:1040C000FDF796FE0620FDF77FFE00220F21072058
:1040D000FDF78EFE0720FDF777FE07B000BD00005C
:1040E0000010024000080048000C0048000400488E
:1040F0000000211000B587B00020039004900590C7
:1041000006900090019002901448154908604F20D5
:10411000486000211248816042F21071C1600021A4
:1041200001618161FEF7BDFD08B1FDF7EDFA4FF4C5
:104130008050039003A90A48FEF70CFE08B1FDF772
:10414000E3FA00200090029069460548FEF74CFD16
:1041500008B1FDF7D9FA07B000BD00000004004027
:104160003C27002010B51848184908604FF4165035
:104170004860002115488160C16001610C214161E6
:1041800000218161C1610162416200200F498862A2
:104190000846FFF717FA08B1FDF7B6FA00210B48F9
:1041A000FFF75AF808B1FDF7AFFA00210748FFF70B
:1041B00024F808B1FDF7A8FA0448FEF788FF08B113
:1041C000FDF7A2FA10BD000000380140882700204A
:1041D00010B51848184908604FF41650486000217F
:1041E00015488160C16001610C214161002181613C
:1041F000C1610162416200200F4988620846FFF7F1
:10420000E1F908B1FDF780FA00210B48FFF724F827
:1042100008B1FDF779FA00210748FEF7EEFF08B173
:10422000FDF772FA0448FEF752FF08B1FDF76CFA89
:1042300010BD0000004400401828002000BFFEE729
:1042400000BFFEE77047000070B5164DED6805F041
:104250000304144DED68C5F303156B1C022C0CD040
:10426000032C09D1104DB5FBF3F50E4EF668C6F3DD
:10427000062605FB06F10AE000BF0C4DB5FBF3F581
:10428000084EF668C6F3062605FB06F100BF00BF20
:10429000044DED68C5F341656D1C6A00B1FBF2F099
:1042A00070BD00000010024000366E010024F400D2
:1042B00000B501210020FFF7F1FD4FF47A70FDF702
:1042C000D8F900210120FFF7E9FD41F2907110209B
:1042D000FFF7E4FD4FF41C516020FFF7DFFD0121E3
:1042E0006120FFF7DBFD02214620FFF7D7FD48F2F2
:1042F00010011320FFF7D2FD48F2FE011220FFF754
:10430000CDFD4FF4A0610220FFF7C8FD41F230015E
:104310000320FFF7C3FD40F203313020FFF7BEFD5D
:1043200040F203313120FFF7B9FD40F20331322072
:10433000FFF7B4FD4FF440713320FFF7AFFD0321C9
:104340003420FFF7ABFD40F203313520FFF7A6FD27
:1043500014213620FFF7A2FD40F203313720FFF78A
:104360009DFD40F203313820FFF798FD40F2033104
:104370003920FFF793FD4FF440713A20FFF78EFD8F
:1043800003213B20FFF78AFD40F203313C20FFF779
:1043900085FD4FF4A0513D20FFF780FD4FF40071E3
:1043A0009220FFF77BFD40F203319320FFF776FD6B
:1043B00040F60D019020FFF771FD41F21801032036
:1043C000FFF76CFD40F273110720FFF767FD00BD9A
:1043D00010B543F20801E320FFF760FD1221E7204A
:1043E000FFF75CFD41F23121EF20FFF757FD00217F
:1043F0000120FFF753FD4FF4E0610220FFF74EFD6F
:1044000041F230010320FFF749FD00210420FFF7AE
:1044100045FD40F207210820FFF740FD002109205B
:10442000FFF73CFD00210A20FFF738FD00210C209A
:10443000FFF734FD00210D20FFF730FD00210F2094
:10444000FFF72CFD00211020FFF728FD0721112088
:10445000FFF724FD00211220FFF720FD002113208B
:10446000FFF71CFDC820FDF721FB41F290611020F1
:10447000FFF714FD40F227211120FFF70FFD322036
:10448000FDF714FB1D211220FFF708FD3220FDF778
:104490000DFB4FF400611320FFF700FD14212920CC
:1044A000FFF7FCFC0B212B20FFF7F8FC3220FDF777
:1044B000FDFA00212020FFF7F1FC00212120FFF769
:1044C000EDFC07213020FFF7E9FC40F207713120B5
:1044D000FFF7E4FC06213220FFF7E0FC40F2047114
:1044E0003520FFF7DBFC41F604713620FFF7D6FCE0
:1044F00004213720FFF7D2FC00213820FFF7CEFC43
:1045000040F206713920FFF7C9FC40F201713C20EE
:10451000FFF7C4FC0F213D20FFF7C0FC0021502015
:10452000FFF7BCFCEF215120FFF7B8FC002152201F
:10453000FFF7B4FC40F23F115320FFF7AFFC4FF4FC
:104540001C516020FFF7AAFC01216120FFF7A6FCA7
:1045500000216A20FFF7A2FC00218020FFF79EFCCB
:1045600000218120FFF79AFC00218220FFF796FCB2
:1045700000218320FFF792FC00218420FFF78EFCAE
:1045800000218520FFF78AFC10219020FFF786FC90
:1045900000219220FFF782FC03219320FFF77EFC8D
:1045A0004FF488719520FFF779FC00219720FFF7E1
:1045B00075FC00219820FFF771FC41F218010320DF
:1045C000FFF76CFC40F273110720FFF767FC10BD8A
:1045D00010B5FFF70DFA5F20FFF7CCF9FFF73CFAB3
:1045E000FFF7A0F90446FFF7ECF9FFF71BFA2046A6
:1045F00010BD000030B10849096841F04001064A89
:10460000116007E004491031096841F04001024A95
:1046100010321160704700001804004810B5802166
:104620000348FDF753FB012800D110BD0020FCE733
:104630000004004800B585B014216846FBF7C3FFAD
:104640008020009000200190012002900220039021
:1046500069460248FDF74EFA05B000BD0004004867
:1046600030B10849096841F08001064A116007E04D
:1046700004491031096841F08001024A103211608A
:10468000704700001804004800B585B01421684642
:10469000FBF799FF802000901120019000200290EC
:1046A0000220039069460248FDF724FA05B000BDD8
:1046B00000040048704710B5FDF71CFB10BD00B5A5
:1046C000A5B0382117A8FBF77EFF142112A8FBF72D
:1046D0007AFF442101A8FBF776FF4FF40070FDF745
:1046E000D9FB012017900004189002201E9003218E
:1046F0001F9117A84162142181620221C1620163E6
:104700004163FDF79DFF08B1FCF7FEFF0F201290FB
:10471000032013900020149015901690022112A8E7
:10472000FDF706FE08B1FCF7EFFF03200190002023
:104730000290039001A8FDF743FC08B1FCF7E4FFE9
:1047400025B000BD0348006840F4700001490860CE
:104750007047000088ED00E010B50248FEF793FBBB
:1047600010BD00003C27002010B50268264B98427F
:104770000BD0B0F1804F08D0244B984205D0244B89
:10478000984202D0234B984203D122F070024B682A
:104790001A431D4B984214D0B0F1804F11D01B4BDF
:1047A00098420ED01A4B98420BD01A4B984208D020
:1047B000194B984205D0194B984202D0184B984299
:1047C00003D122F44072CB681A4322F080034C6973
:1047D00043EA040202608B68C3620B6883620A4B7F
:1047E00098420BD00B4B984208D00B4B984205D007
:1047F0000A4B984202D00A4B984201D10B690363DD
:104800000123436110BD0000002C01400004004062
:1048100000080040003401400040014000440140D5
:104820000048014030B50C46816821F47F4142EADE
:10483000032525432943816030BD00000A46816875
:10484000034B194042F00703194381607047000091
:104850008FFFCFFF30B50B461446026A056A25F07C
:1048600001050562816921F0F00141EA041122F09D
:104870000A021A438161026230BD30B50B4614460C
:10488000056A25F0100505628169026A21F470410C
:1048900041EA043122F0A00242EA0312816102627D
:1048A00030BD000070B5456E2DB90125A0F86A50E5
:1048B000A0F868501CE0082308240568AD68C5F31B
:1048C00042610568AD686A0F0A4DAD5C15FB04F5E1
:1048D000094EB65C95FBF6F5A0F86A50054D6D5C87
:1048E00015FB03F5044E765C95FBF6F5A0F86850D1
:1048F00070BD0000C65B0008CE5B000890F8281071
:1049000001F0010139B10168496821F40031C26A3E
:1049100011430268516090F8281001F00201022949
:1049200007D10168496821F48031026B11430268A4
:10493000516090F8281001F00401042907D10168A2
:10494000496821F48021426B11430268516090F85C
:10495000281001F00801082907D10168496821F4ED
:104960000041826B11430268516090F8281001F0F9
:104970001001102907D10168896821F48051C26BA8
:1049800011430268916090F8281001F0200120295D
:1049900007D10168896821F40051026C1143026853
:1049A000916090F8281001F04001402913D101686E
:1049B000496821F48011426C114302685160416CD6
:1049C000B1F5801F07D10168496821F4C001826CEC
:1049D00011430268516090F8281001F0800180298D
:1049E00007D10168496821F40021C26C11430268B3
:1049F0005160704738B504460020C4F88C00FDF7BC
:104A000073F905462068006800F0080008280CD1FA
:104A10006FF07E402B4600224FF40011009020469C
:104A200000F01EFB08B1032038BD2068006800F0CC
:104A3000040004280CD16FF07E402B4600224FF476
:104A400080010090204600F00BFB08B10320EBE74B
:104A50002020C4F88400C4F888000020E06600BF6D
:104A600084F8800000BF00BFDEE770B50546AC6A81
:104A70000020A4F85E00A4F856002046FEF71DFCB6
:104A800070BD2DE9F0410546AC6AD4F88460D4F8D5
:104A900088702068806800F08000802807D1212E6F
:104AA00005D10020A4F85600204600F0B2F8206896
:104AB000806800F04000402807D1222F05D1002057
:104AC000A4F85E00204600F075F8D4F88C0040F0A1
:104AD0001000C4F88C002046FEF7EFFBBDE8F08123
:104AE00070B50546AC6A2868006800F0200000BB7D
:104AF0000020A4F85E002068006820F4807021681F
:104B000008602068806820F00100216888602068C3
:104B1000806820F04000216888602020C4F8880068
:104B2000E06E012805D12068006820F0100021689F
:104B30000860E06E012805D1B4F85C102046FEF74D
:104B400021FB02E02046FEF763FE70BD70B505460E
:104B5000AC6AE06E012806D1B4F85C00410820463A
:104B6000FEF710FB02E02046FEF764FE70BD70B554
:104B70000546AC6A2868006800F0200078B900207B
:104B8000A4F856002068806820F0800021688860C2
:104B90002068006840F040002168086002E020467C
:104BA000FEF7A6FE70BD70B50446A56A2846FEF75E
:104BB000A0FE70BD0168096821F49071026811605F
:104BC00001688968094A114002689160C16E012933
:104BD00005D10168096821F01001026811602021E7
:104BE000C0F888100021C16601677047FEFFFFEF23
:104BF00010B504462068006820F040002168086075
:104C00002020C4F88400002060672046FEF770FE74
:104C100010BD0168096821F0C001026811600168D7
:104C2000896821F40001026891602021C0F8841095
:104C3000704700002DE9FE4F044600200290D6493F
:104C40002068884200D100E000BF2169A0680843C5
:104C500061690843E16940EA010820680068CF49BA
:104C6000084040EA0800216808602068406820F495
:104C70004050E168084321684860D4F81880C6496C
:104C80002068884202D0206A40EA080820688068CC
:104C9000C349084040EA0800216888602068C06A6B
:104CA00020F00F00616A08432168C86200BFBD4957
:104CB0002068884216D1BC48006800F0030030B17B
:104CC000012808D0022804D0032808D105E00125D6
:104CD00007E0022505E0042503E0082501E0102592
:104CE00000BF6FE0B1492068884216D1AE48006825
:104CF00000F00C0030B1042808D0082804D00C289B
:104D000008D105E0002507E0022505E0042503E0C1
:104D1000082501E0102500BF54E0A549206888421D
:104D200016D1A148006800F0300030B1102808D03A
:104D3000202804D0302808D105E0002507E002250E
:104D400005E0042503E0082501E0102500BF39E057
:104D500098492068884216D19348006800F0C00046
:104D600030B1402808D0802804D0C02808D105E000
:104D7000002507E0022505E0042503E0082501E001
:104D8000102500BF1EE084492068884219D186485A
:104D9000006800F4406048B1B0F5806F0AD0B0F50B
:104DA000006F05D0B0F5406F08D105E0002507E0A1
:104DB000022505E0042503E0082501E0102500BFD9
:104DC00000E0102500BF7449206888425DD135B1EC
:104DD000022D08D0042D08D0082D0DD109E0FDF7D3
:104DE000BFFB06460CE0744E0AE0FDF7DDFB06460D
:104DF00006E04FF4004603E000260120029000BFC9
:104E000000BF002E10D06D49606A31F81000B6FB6B
:104E1000F0F9606800EB4000484503D86068000383
:104E2000484502D201200290AAE06449606A31F844
:104E300010C06246002330461946FBF74DFA4FF486
:104E4000807C00220B46A0FB0C1B03FB0CB300FB79
:104E50000233606840088C461CEB000043EB020103
:104E6000CDE90001D4F804C062460023FBF734FA10
:104E70000746B7F5407F05D3B7F5801F02D22068FB
:104E8000C7607DE0012002907AE0E069B0F5004F54
:104E900040D1092D17D2DFE805F005090D160F16D0
:104EA00016161300FDF75CFB064610E0FDF76AFBE3
:104EB00006460CE0404E0AE0FDF776FB064606E0AB
:104EC0004FF4004603E000260120029000BF00BF1F
:104ED000FEB13A49606A31F81000B6FBF0F04000CC
:104EE000616800EB5100B0FBF1F087B2102F0ED3D8
:104EF000B7F5803F0BD24FF6F07007EA000AC7F310
:104F000042004AEA000A2068C0F80CA038E00120FC
:104F1000029035E0092D17D2DFE805F005090D16DE
:104F20000F1616161300FDF71BFB064610E0FDF7E3
:104F300029FB06460CE0204E0AE0FDF735FB06464D
:104F400006E04FF4004603E000260120029000BF77
:104F500000BFAEB11949606A31F81000B6FBF0F03D
:104F6000616800EB5100B0FBF1F087B2102F05D360
:104F7000B7F5803F02D22068C76001E001200290AF
:104F80000120A4F86A00A4F8680000202067606788
:104F90000298BDE8FE8F000000800040F369FFCF5B
:104FA000FFF4FF1100380140881002400044004027
:104FB00000480040004C00400024F400AE5B0008B4
:104FC00070B504460E46154644F8586FA58000207B
:104FD000606322202063606A583C08B31D48E16F7B
:104FE000C8621D48E16F08631C48E16F48630020F8
:104FF000E16F8863236803F124012B46A26DE06F03
:10500000FCF7F2FC60B11020C4F88C0000BF002057
:1050100084F8800000BF2020C4F88400012070BD07
:1050200000BF002084F8800000BF2068006840F4C2
:105030008070216808602068806840F00100216865
:1050400088602068806840F0400021688860002007
:10505000E5E70000E14A00084D4B0008834A0008DC
:105060002DE9F04104460D4617469846069E4AE053
:10507000701C002847D0FCF737FEA0EB0800B042B8
:1050800000D8C6B92068006820F4D0702168086094
:105090002068806820F00100216888602020C4F822
:1050A0008400C4F8880000BF002084F8800000BF9E
:1050B0000320BDE8F0812068006800F0040010B310
:1050C0002068C069C0F3C020E8B14FF400602168D7
:1050D00008622068006820F4D070216808602068A9
:1050E000806820F00100216888602020C4F88400D6
:1050F000C4F88800C4F88C0000BF002084F8800049
:1051000000BF0320D5E72068C0692840A84201D12C
:10511000012000E00020B842AAD00020C9E700002A
:1051200010B50248FEF7CAF810BD0000882700201D
:1051300010B50248FEF7C2F810BD00001828002084
:1051400000BFFEE703B401984100009850EAC12077
:1051500018BF04204A0D18BF40F0010040F2FF7252
:10516000B2EB515F08BF40F00200012808BF0520E4
:1051700002B0704702480068C0F302207047000088
:105180000CED00E010B5002804DB0A07130E054AF9
:10519000135406E00A07140E034A00F00F031B1F06
:1051A000D45410BD00E400E018ED00E030380A28C7
:1051B00001D20120704700207047000010B504465E
:1051C00001224FF6FF710948FCF788FD21020022F9
:1051D0000648FCF783FD012204210548FCF77EFD0B
:1051E000002204210248FCF779FD10BD00080048A8
:1051F000000C0048002100E0491C8142FCD37047AC
:1052000070B50446FEF7F4FBA020FEF7B3FBFEF7F3
:1052100023FC2046FEF7AEFBFEF71EFCFEF702FC69
:10522000FEF7E6FBA120FEF7A5FBFEF715FCFEF757
:1052300079FB0546FEF7C5FBFEF7F4FB284670BD7B
:105240002DED0C8BFCF762FDFFF739FAFEF79EFEA1
:10525000FEF750FFFEF786FFFEF768FEFEF7B8FF89
:10526000FEF794FEFEF762FEFEF77CFFFEF720FDE0
:105270004FF6FF70FEF748FCFEF73EFBFFF7A8F97C
:10528000044655E004222BA12C48FEF7D5FA20460F
:1052900000F08AFA41EC190B9FED290B53EC102B0F
:1052A00000F096FA41EC180B53EC182B26A12A4873
:1052B000FBF78AF828491820FEF7AEFC204600F0DC
:1052C00073FA41EC1D0B9FED1E0B53EC102B00F0FD
:1052D0007FFA41EC1C0B9FED210B53EC102B00F0DF
:1052E00063F841EC1A0B204600F05EFA41EC1C0B0F
:1052F0009FED130B53EC102B00F06AFA41EC1B0BE3
:1053000053EC1A2B00F0F8F841EC190B9FED150B3C
:1053100053EC102B00F05CFA41EC180B53EC182BFB
:1053200012A10D48FBF750F80B493020FEF774FC32
:10533000A8E7000071657165000000008827002063
:1053400051DA1B7C6132E93F5245535F4B3A2535B8
:105350002E32664B00000000180000200000000004
:10536000000024406666666666660A405042313434
:10537000563A25362E3366560000000010B5002937
:105380000AD00878002807D005487844FBF7FAFCD3
:10539000002801D0002010BD0248784410BD000054
:1053A000EA1A0000E21A000010B591EA030F48BFA4
:1053B00083F0004300F11283841A71EB030C05D2D1
:1053C000121943EB0C03001B61EB0C01DFF824E125
:1053D0004FEA1154A4EB135C1EEA430F18BF9EEA78
:1053E000445F73D023EA0E03DCF1200E21EA04515E
:1053F00043F4801332D322FA0CFE10EB0E0023FA92
:105400000CFE41EB0E01CCF1200E03FA0EFE10EB68
:105410000E0051F10001B1F5801FCCF1200E32D207
:1054200001EB045112FA0EF2BDE8104058BF70476C
:10543000401C38BF5FEA420218BF7047002814BF03
:1054400020F0010041F100014FEA410313F5001F74
:1054500038BF7047A1F1C04100F0B2BA012A43EB56
:105460000302ACF1200CDCF11F0E32BF4FF0000E36
:1054700023FA0CF310EB030041EB0451B4EB115F82
:10548000D0D0A1EB045101F5801149085FEA30004A
:1054900001EB04510ED350F1000038BF12FA0EFE9A
:1054A00008D1BDE81040C9E7401C38BF5FEA42029E
:1054B000CAD1C3E7BDE810404FEA410313F5001F0E
:1054C00038BF7047A1F1C04100F07ABA9EEA445F4C
:1054D00008D011EA5E0FBDE8104004BF01F00041A2
:1054E00000207047BDE8104070B500F01BFA00BF07
:1054F00064FBBE3E0000E0FF2DE9C04130B4DFF8A0
:10550000A0C23CEA111418BF3CEA131400F0EC806E
:1055100081EA03051CEA111444EAD57418BF1CEA99
:10552000131500F0C780A4EB05044FF0004545EAD1
:10553000C12145EAC32341EA505143EA525304F1E1
:105540007F74994204F500344FEAC0204FEAC2222A
:1055500008BF904200F09C804FEA13650FF240169E
:10556000765D4FEA134506FB05F7C7F1807706FB2A
:1055700007F74FEAD737A7FB03687642C8F58038AC
:10558000A7FB06CE38BFA8F1010807FB08E64FF0DD
:10559000000EA6FB028CE6FB03CEDCF1000CCEF184
:1055A000004E38BFAEF1010EA6FB0C584FF00007BD
:1055B0004FF00005E6FB0E87A1FB08C6A0FB07CE57
:1055C00016EB0E0645F10005E1FB076515F1E04E0F
:1055D0007EBFA4F580345FEA46066D4116F1800770
:1055E00045F100054FEA17274FEA066647EA0567C7
:1055F000A6F1DE46B6F1805F4FEA15251FD9384681
:1056000024F0010C05EBC471BCF1FE6F01EB0C1131
:1056100002D8F0BCBDE8008124425CBF01F5801EC9
:105620009EEAC47F02D4F0BCBDE80081244238D495
:10563000F0BCA1F1C041BDE8004100F0C1B94FEAA2
:10564000D22242EA43524FEAD323A7FB02864FEA13
:10565000D02040EA415007FB03661EEA0E0F4FEAD6
:10566000D12105FB026658BFA6EB0056B6EB0056EB
:105670004FEA520E4EEAC37E18EB0E0E56EB530E57
:10568000BDD518EB02085E417F1C55F10005B6E759
:105690004FF480154FF000074FF000064FF0000860
:1056A000ADE7F0BC4FF0000001F1C04101F0004156
:1056B000BDE8008111EA0C1F0CEA131500D00CE0C4
:1056C00013EA0C1F00F025804FF00000F0BC81EAC7
:1056D000030101F00041BDE80081F0BCBDE80041DC
:1056E00081EA030100F06CB9F0BCBDE8004170B57F
:1056F00000F018F9097EFC3E00F007B881EA0301CA
:105700004FF0000001F00041704781EA030100F012
:1057100057B9F0BCBDE800414FF000002149704787
:10572000FFFDFBF9F7F5F4F2F0EEEDEBE9E8E6E466
:10573000E3E1E0DEDDDBDAD8D7D5D4D3D1D0CFCDED
:10574000CCCBCAC8C7C6C5C4C2C1C0BFBEBDBCBB26
:10575000BAB9B8B7B6B5B4B3B2B1B0AFAEADACAB21
:10576000AAA9A8A8A7A6A5A4A3A3A2A1A09F9F9EFB
:105770009D9C9C9B9A9999989797969595949393AD
:10578000929191908F8F8E8E8D8C8C8B8B8A898944
:1057900088888787868585848483838282818180C7
:1057A0000000FF070000F87FB0FA80F310FA03F161
:1057B0000AD0C3F11D0303F580634FEA41504FEA5D
:1057C000035202EBD12170474FF0000070470000F8
:1057D000DFF848C170B51CEA111E1EBF1CEA131584
:1057E0009EEA0C0F95EA0C0F00F06F8081EA03042B
:1057F00023EA4C134EEAD47E21EA4C1141F4801185
:1058000043F48013AE44A1FB024CA0FB0365AEF150
:105810007F7E361955EB0C05A1FB034C4CF10003C0
:10582000A0FB021C16EB0C06654153F10003094274
:1058300018BF46F0010613F4007F0BD14FEA033185
:105840004FEA0530340341EA155140EA16506FF033
:1058500003020AE04FEAC3214FEAC520F40241EAFD
:10586000555140EA56506FF0020202EB2E4201EB16
:10587000025585EACE710AD05FEA440C18BF24F0C5
:10588000004450F1000041F1000120EAD47040F2E0
:10589000FE7C624500D270BDA84214BF4FF0804428
:1058A0004FF04044002E08BF0024BEF1806FA8BF17
:1058B000A1F1C041BDE8704080F282804FF000004D
:1058C00001F1C04101F0004170479EEA0C0F0CEA63
:1058D000131518BF95EA0C0F06D04FF0000081EAAF
:1058E000030E0EF0004170BD00F01CF88900013E6F
:1058F00000F007B800F009B84FEA430C5FEA5C5CBF
:1059000008D081EA030100F05BB84FEA410C5FEA7E
:105910005C5CF6D14FF00000014970470000FF07C2
:105920000000F87F0EF1020E2EF0030E5EF8046BFD
:10593000364205D4012A43EB030515F5001F12D8A2
:10594000012841EB010C1CF5001F0CD80ED14FEAC9
:10595000D17C15F5001F0CEB4C0C0CF1020C08BFB0
:105960004CEBD37C04E04FF0080C01E04FEAD37C11
:105970000CEB4C0526FA05F606F00706B6F1040C0A
:1059800006D20EEB860CBDE870404CF0010C60476F
:10599000DFE80CF0090B02024FF000414FF000006D
:1059A000A1F5002170BD19461046012851EB0104F4
:1059B00018BFD4F5001484BF002001F0004170BD71
:1059C0000808A0F500114FEA3101704710B591EABF
:1059D000030F48BF83F000433FF5EEAC841A71EB30
:1059E000030C07D212198CF0004C43EB0C03001B84
:1059F00061EB0C01DFF8A4E14FEA1154A4EB135C56
:105A00001EEA430F18BF9EEA445F00F0B08023EA0D
:105A10006E03524221EA0451C3EB6E0338BF5B1E92
:105A2000DCF1200E25D322FA0CFE10EB0E0043FA17
:105A30000CFE41EB0E01CCF1200E03FA0EFE10EB32
:105A40000E0051F10001CCF1200E29D412FA0EF211
:105A500001EB0451BDE8104058BF7047401C1CBF0B
:105A6000B2F1004F704700280CBF491C20F0010024
:105A7000704712EB020E43EB030218BF4FF0010E0A
:105A80004EEA4202ACF1200CDCF11E0E54D943FA6E
:105A90000CFE10EB0E0051F1FF31CCF11E0ED5D5EE
:105AA0000EF1010E12FA0EFE404141EB010101EB35
:105AB000445C5FEA5C5C10D910EBDE7001EB0451D2
:105AC00038BFBEF1004FBDE8104018BF7047002836
:105AD0000CBF491C20F00100704730D24FEAD42C93
