:020000040800F2
:1000000018300020910200084D4E00087943000886
:10001000494E0008F5140008655D00080000000066
:10002000000000000000000000000000E152000895
:10003000C115000800000000514E0008E3520008FE
:10004000AB020008AB020008AB020008AB020008DC
:10005000AB020008AB020008E1150008E116000839
:10006000AB020008AB020008AB020008F91400085C
:1000700009150008AB020008AB020008AB0200083B
:10008000AB02000800000000AB020008AB02000851
:10009000AB020008AB020008AB020008AB0200088C
:1000A000AB020008AB020008AB020008AB0200087C
:1000B000AB0200088D530008AB020008AB02000839
:1000C000AB020008AB020008AB020008AB0200085C
:1000D000AB020008555D0008AB020008AB02000847
:1000E000AB020008AB020008AB020008AB0200083C
:1000F000AB020008AB020008AB02000800000000E1
:1001000000000000AB02000800000000AB02000885
:10011000AB02000800000000AB020008AB020008C0
:10012000AB020008AB020008AB020008AB020008FB
:10013000AB0200080000000000000000AB02000855
:10014000AB020008AB020008000000000000000045
:10015000000000000000000000000000000000009F
:10016000000000000000000000000000AB020008DA
:10017000AB020008000000000000000000000000CA
:1001800000000000AB0200080000000000000000BA
:10019000000000000000000000000000000000005F
:1001A0000000000000000000AB020008AB020008E5
:1001B000AB020008AB020008AB0200080000000020
:1001C00000000000AB02000800000000000000007A
:1001D000AB020008AB02000800F002F800F049F89A
:1001E0000AA090E8000C82448344AAF10107DA4592
:1001F00001D100F03EF8AFF2090EBAE80F0013F09B
:10020000010F18BFFB1A43F001031847847900005F
:10021000A4790000103A24BF78C878C1FAD85207F0
:1002200024BF30C830C144BF04680C607047000070
:100230000023002400250026103A28BF78C1FBD8EF
:10024000520728BF30C148BF0B607047662906F0CF
:100250004A83002070471FB506F040FB00F0CAFB40
:1002600004000020002105F011FFE0601FBD10B563
:1002700010BD00F0BFFC1146FFF7EDFF05F03EFE9C
:1002800000F0DDFC03B4FFF7F2FF03BC00F020FD3B
:100290000948804709480047FEE7FEE7FEE7FEE71A
:1002A000FEE7FEE7FEE7FEE7FEE7FEE70448054956
:1002B000054A064B7047000079530008D901000831
:1002C000182A002018300020182C0020182C00209C
:1002D00053EA020C00F069802DE9F04B4FF0000664
:1002E000002B1FBFB3FA83F503FA05F424FA05F6D1
:1002F0005E4012BF1643B2FA82F502FA05F4C5F168
:1003000020051EBF22FA05FC44EA0C04203556EAFB
:10031000044C4FEA144418BF641C4FF000084FF01F
:100320000009904271EB030C39D3002919BFB1FACF
:1003300081F701FA07F6B0FA80F700FA07F6C7F17D
:1003400020071EBF20FA07FC46EA0C062037B6FB42
:10035000F4FCA7EB0507103F07F01F0BCBF12006BD
:100360000CFA0BFB2CFA06F644BFB3460026202FEE
:10037000A4BF5E464FF0000B5BEA060C08BF4FF0CF
:10038000010B19EB0B09ABFB027C48EB0608C01B09
:1003900006FB02CC0BFB03CC71EB0C01C1E70B4657
:1003A000024641464846BDE8F08B13B54FF00000C9
:1003B0004FF00001AFF30080BDE81C407047000023
:1003C0000FB41CB5074B06AA7B44694600900598FC
:1003D00000F0F7FA0020694600F006FB1CBC5DF84F
:1003E00014FB00001D06000070B504468569006816
:1003F000C10601D5302600E02026C00707D070BD19
:10040000D4E9012130469047206A401C20626D1ECD
:10041000F6D570BD70B5044685690078C00707D170
:1004200070BDD4E9012120209047206A401C206241
:100430006D1EF6D570BD2DE9F0474FF0000A8946D4
:100440000446C0F820A02046E1688847002876D0FE
:10045000252806D0D4E901219047206A401C20625B
:10046000F1E7E168204600258847C4F81CA006464D
:100470000027C4F818A02A2E09D0304605F0A8FCA1
:1004800038B304EB8708303EC8F8186019E059F813
:10049000041B204604EB87029161E1688847012F25
:1004A000064618D1E069002820DA25F020051DE075
:1004B000D8F8180000EB800006EB40003038C8F890
:1004C00018002046E1688847064605F081FC0028B0
:1004D000EED1012F0AD02E2E08D12046E1688847A0
:1004E0007F1C0646022F45F02005C4DBA0690028CA
:1004F00003DA404245F00105A061E80701D025F08C
:100500001005B6B1A6F14100192802D8203645F4ED
:1005100000654A463146204625604D46FFF796FE67
:1005200058B1012806D0ED1D25F0070000F108099B
:1005300089E704E005F1040985E730468AE7206A87
:10054000BDE8F0874FF0000200B51346944696468A
:10055000203922BFA0E80C50A0E80C50B1F12001D6
:10056000BFF4F7AF090728BFA0E80C5048BF0CC084
:100570005DF804EB890028BF40F8042B08BF7047E2
:1005800048BF20F8022B11F0804F18BF00F8012B54
:10059000704770477047704770472DE9FF4F0C4612
:1005A0001E464FF0FF378BB0D2E90001DDF86080C6
:1005B0000A908A46C1F30A5505B93D46002108460E
:1005C0004FF00000BAF1000F00F4400005DA00EB34
:1005D00080004FF4400101EA50004FEA9059B9F110
:1005E000010F00DDB9460A9850EA4A000ED044F6E1
:1005F0001050A5F2FF3545432F14B8F1000F1ED05F
:100600007542291E1EDDC9F100021CE0B8F1010F80
:100610004FF0000001D0302103E0F24305E0215407
:10062000401CB042FBDB30460022002121540B99D4
:10063000C1F80880C1E900200FB0BDE8F08FBD1BF4
:100640006D1CDEE74A4600DA694206A800F05CFA53
:1006500006AB93E8070003AB83E8070050460A990E
:1006600000F03DFB8DE80700A0F500501F3800901A
:100670000398002D0ADD42F21F014A460844002378
:1006800003A90390684600F0A6FD09E0A0F500501C
:100690004A461F38002303A90390684600F0B0FDC6
:1006A0008DE807000004000C03D04FF0FF30410834
:1006B00000E01046B8F1000F03D00022009215466A
:1006C0001EE0751E05D400F099F9303262556D1E9A
:1006D000F9D5B3460122084302D000227F1C04E072
:1006E0002078302801D100227F1E002A099784D06B
:1006F0001DE0112D07DA00F081F9303262556D1CD2
:1007000050EA0102F5D1084302D00098C8B10EE0CA
:100710000021681E05E0235C625C63542254401E85
:10072000491C8142F7DBAB46A81B401E0990002004
:1007300004F80B000B98099AC0F80880C0E9002B58
:100740007AE711264FF0000857E72DE9F04F884669
:100750000446D21D22F0070191B0D1E90001CDE994
:100760000A0105F001FB02460B98C00F01D02D20B5
:1007700007E02068810701D52B2002E0202101EA53
:10078000C000032A099001D0072A05DB0346414631
:10079000204600F079F90BE12078800601D5E06968
:1007A00000E00620B8F1650F814606D0B8F1660F6B
:1007B00018D0B8F1670F70D131E00020B9F1110FF6
:1007C000009001DB112301E009F101030AAA01A94C
:1007D0000CA8FFF7E2FEDDE90C70002609F1010527
:1007E000834647E001204B4600904FF000470AAA9D
:1007F00001A90CA8FFF7D1FEDDE90DB00C995D460B
:10080000002610B909F101000D18B9EB050003D459
:10081000C0F1FF3609F10105A5EB09002BE0B9F1A4
:10082000010F01DA4FF001090020B9F1110F00901A
:10083000484601DD112300E003460AAA01A90CA8DD
:10084000FFF7ABFEDDE90C704D46002683462078AD
:1008500000070AD4AB4500DA5D4601A8012D04DD8E
:10086000411911F8011C302907D04F4502DA17F160
:10087000040F04DA012082460FE06D1EEEE7002F20
:1008800002DCED1B3E4403E0781CA84200DD7D1C29
:10089000B81B00F1010A4FF000472078000703D48D
:1008A000AA4501DB4FF0FF3A0021B7F1004F0DF1EF
:1008B00043088DF8431024D002202B23002F01DAA7
:1008C0007F422D230A21021EA0F1010000DC5FB14E
:1008D00097FBF1FC97FBF1F201FB1C7C17460CF136
:1008E000300C08F801CDEEE7A8F101000370218873
:1008F000090501D5452100E06521A0F1010800F8B6
:10090000011C09980FA9A1EB0807FF1D00B10120E8
:10091000411901EBEA70A1693844081A401EA06130
:100920002078C00602D42046FFF75EFD099828B162
:10093000D4E901219047206A401C20622078C0063B
:1009400022D52046FFF750FD1EE0002E04DBB34504
:1009500002DD01A8805D00E03020D4E9012190474C
:10096000206A401C2062761CAAF101005FEA000A9E
:100970000AD100F03FF8C0680168405CD4E9012169
:100980009047206A401C2062281EA5F10105DCDC8E
:1009900007E0D4E9012118F8010B9047206A401CB8
:1009A0002062381EA7F10107F3DC2046FFF732FD75
:1009B000032011B041E6000001694A1C0261087879
:1009C000704700B58FB0CDE901310021059105498F
:1009D0007944CDE9031011466846FFF72CFD0FB0AE
:1009E00000BD0000E5FFFFFF0A6802F8010B0A6086
:1009F0007047000000487047D429002030B5B0F19E
:100A00000A024FEA900E71F100034EEA817EB0EBCC
:100A10000E0061EB91014FEA101E4EEA017E10EBD1
:100A20000E0041EB11114FEA102E4EEA016E10EB51
:100A30000E0041EB11214FEA104E4EEA014E10EB31
:100A40000E0041EB1141401841F100014FEAD00086
:100A500040EA41704FEAD10110EB80054FEA810472
:100A600044EA907444EB01046D1944EB0404521BF6
:100A7000A3414FF0000348BF0A3200D530BD401CEF
:100A800041F1000130BD00002DE9F0411F46044650
:100A900003260168072A01F4006004DB08B116A5EB
:100AA00005E016A503E008B115A500E015A521F0A5
:100AB00010002060A069C01EA0610FB1401EA0619F
:100AC0002046FFF791FC4FB1D4E901213846904709
:100AD000206A401C2062C01C206206E0206AFAE7FF
:100AE000D4E9012115F8010B9047761EF8D2204673
:100AF000FFF790FCBDE8F0814E414E006E616E0044
:100B0000494E4600696E66002DE9F047814616465B
:100B10008AB0354878440DC88DE80D0032487844D5
:100B2000801C03AC0DC884E80D0041F69B300844DE
:100B3000372190FBF1F290FBF1F5A5F1800501FB67
:100B400012041B3C02D56442012000E00020DFF8C3
:100B500098A080460027FA44AAF1BE0A0EE0E007FA
:100B60000AD03246684607EB470101230AEB8101B0
:100B700000F046FB8DE8070064107F1C002CEED1CE
:100B8000194F7F44AE3F19E0E80715D007EB04107A
:100B90000DF1180A90E80E008AE80E00C068F042D5
:100BA00001D1981908903246012306A903A800F044
:100BB00027FB03AB83E807006D10641C002DE3D115
:100BC0004FF0010332466946B8F1000F03A802D086
:100BD00000F001FB01E000F013FBC9E90001C9F8D6
:100BE00008200AB0BDE8F087607000000048704738
:100BF000B42900207546FFF7F9FFAE4605006946A7
:100C0000534620F00700854618B020B5FFF74EFB8D
:100C1000BDE820404FF000064FF000074FF00008FD
:100C20004FF0000B21F00701AC46ACE8C009ACE87E
:100C3000C009ACE8C009ACE8C0098D46704710B5E2
:100C40000446AFF300802046BDE81040FFF71ABB12
:100C50004FF0013C50F8042B51F8043B9A4221D14B
:100C6000A2EB0C03934313EACC1317D150F8042BD7
:100C700051F8043B9A4215D1A2EB0C03934313EABB
:100C8000CC130BD150F8042B51F8043B9A4209D1F4
:100C9000A2EB0C03934313EACC13DBD04FF000001C
:100CA000704700BFD01A01BAB1FA81F101F0180102
:100CB00022FA01F0CB40C1F12001DBB2C0B2C01A70
:100CC0002CFA01F3D11A914311EAC311E6D170470E
:100CD00001491820ABBEFEE72600020070475FEA1C
:100CE000400C08BF91F0000F4FEA8C234FEAC1225D
:100CF00043EA51514FEA1C5018BF00F5F0404FEA4B
:100D0000300018BF41F000415FEA6C5C00F02980C0
:100D1000BCF1FF3F08BF40F080407047130C06BF96
:100D200012044FF0100C4FF0000C130E04BF12020F
:100D30000CF1080C130F04BF12010CF1040C930FFB
:100D400004BF92000CF1020CD30F04BF52000CF14F
:100D5000010C11464FF00002A0F11F00A0EB0C00A7
:100D6000704711F0004F08BF704731F000413FF469
:100D7000D5AF0B0C06BF09044FF0100C4FF0000C60
:100D80000B0E04BF09020CF1080C0B0F04BF090184
:100D90000CF1040C8B0F04BF89000CF1020CCB0F7B
:100DA00004BF49000CF1010CCCF12003A0EB0C00B6
:100DB00022FA03F302FA0CF241EA030100F1010006
:100DC000704720F07F4C80EA030023F07F47ACEBB4
:100DD000070303F57C5300F0004003F1FF032DE906
:100DE00080494FEA154B09B44FEA144325EA0B4EEC
:100DF00024EA03480FF2042606EB132749083E783D
:100E00005FEA320203FB0667C7F5000707FB06F639
:100E10004FEA54374FEAD64606F1020607FB066C46
:100E2000CCF1005C4FEA1C472CEA074C07FB06F4A8
:100E30000CFB06F504EB15464FEA961634BF00206E
:100E40004FF000404FEAD13706FB07FC4FEA1C4C3D
:100E50000CFB0BF7D21B03FB0CF761EB07010CFB40
:100E60000EF7B0EB074072EB17420CFB08F734BFEC
:100E7000A2EB0742B2EB074261EB17414FEA0C4489
:100E80004FEA910706FB07FC4FEA1C4C0CFB0BF7E3
:100E9000B0EBC74072EB573203FB0CF734BFA2EB49
:100EA000C742B2EBC74261EB57310CFB0EF7B0EB18
:100EB000C70072EB57720CFB08F734BFA2EBC702F6
:100EC000B2EBC70261EB5771039F4FEA816141EAC0
:100ED000921104EBCC044FEAD1374FEA826206FB51
:100EE00007FC42EA90124FEA80604FEA1C4C0CFB70
:100EF0000BF7D21B03FB0CF761EB07010CFB0EF7A2
:100F0000B0EB074072EB17420CFB08F734BFA2EBC3
:100F10000742B2EB074261EB17414FEA8C554FEAAB
:100F2000910704EB9C2406FB07FC4FEA1C4C0CFBCE
:100F30000BF7B0EBC74072EB573203FB0CF734BF33
:100F4000A2EBC742B2EBC74261EB57310CFB0EF785
:100F5000B0EBC70072EB57720CFB08F734BFA2EB83
:100F6000C702B2EBC70261EB577115EB4C254FEA94
:100F7000816141EA92114FEA82624FEAD13742EA37
:100F8000901206FB07FC44F100044FEA80604FEA30
:100F90001C4C0CFB0BF7D21B03FB0CF761EB07019E
:100FA0000CFB0EF7B0EB074072EB17420CFB08F797
:100FB00034BFA2EB0742B2EB074261EB174115EBDE
:100FC0001C154FEA813141EA92414FEA823242EAEE
:100FD00090424FEA80304FEA0C7644F1000448EA30
:100FE00003434EEA0B484FF0000EB2EB080C71EBD6
:100FF000030724BF624639464EEB0E0E4FF0000B3E
:101000000018524149414BEB0B0BB2EB080C71EB52
:1010100003077BF1000B24BF624639464EEB0E0EF0
:101020004FF0000B0018524149414BEB0B0BB2EB58
:10103000080C71EB03077BF1000B24BF62463946B5
:101040004EEB0E0E51EA020718BF46F0010616EBF2
:101050000E7655F1000254F1000103D5BDE8890177
:10106000BDE80088BDE88901BDE80048B6195241D5
:1010700041EB0101A3F10103704780807F7E7D7CFD
:101080007B7A7978777676757473727171706F6E1A
:101090006E6D6C6C6B6A6A696868676666656464C5
:1010A000636362616160605F5F5E5E5D5D5C5C5B4F
:1010B0005B5A5A59595858575756565555555454BE
:1010C000535352525251515050504F4F4F4E4E4D1C
:1010D0004D4D4C4C4C4B4B4B4A4A4A494949484868
:1010E00048474747474646464545454444444443A8
:1010F00043434342424242414141002B9C4630D44B
:1011000077002BD01CB54FEA370703B44FF010001F
:101110004FF01001BAF1000F06D0BCF1000FDCBF98
:1011200040F0080040F008014FF000000FBCBDE89F
:1011300010400BF1010BBBF1010F08BF5FEA17076D
:1011400022BF12F1010211F101014FF0004143F100
:10115000000300F0004043EA00007047F9D357084D
:10116000D0E746EA064613F1400F4FEA16461FDD68
:1011700013F1200FDFBF16430A46002120335B42E4
:10118000BED0C3F1200746EA064602FA07F74FEA47
:10119000164646EA0706C3F1200722FA03F201FACF
:1011A00007F721FA03F14FF0000342EA0702A7E72D
:1011B00046EA020646EA06464FEA164646EA0106AF
:1011C000BCBF46EA0646360C4FF000034FF0000263
:1011D0004FF0000194E72DE9804C9A46934670B495
:1011E00091E8380007C831EA400C48BF34EA430CA4
:1011F00003D5FFF7E6FDFFF780FFF0BCBDE8008CEC
:101200002DE9804C9A46934670B491E8380007C89F
:1012100010F0804F08BF13F0804F03D100F005F8A5
:10122000FFF76BFFF0BCBDE8008C20F07F4780EA41
:10123000030023F07F4C07EB0C03A3F57C5300F075
:101240000040A3F1FE0392F0000F00F0B38095F090
:10125000000F00F077802DE901494FEA11404FEA75
:10126000144621EA004800FB06FC24EA064708FB76
:1012700006F607FB08F800FB07F718EB06484CEBEF
:10128000164C4FEA124B18EB07484FEA15464CEB49
:10129000174022EA0B4E0BFB06FC25EA06470EFB25
:1012A00006F607FB0EFE0BFB07F71EEB064E4CEB9C
:1012B000164C4FF000061EEB074E4CEB174B18EB8D
:1012C0000B0840F1000018EB0E0B58EB000840F142
:1012D00000008F1A4FF000013CBFC943661B14BFCA
:1012E000B5EB040C00213CBFC943F61B4FEA174481
:1012F0004EEA8E0E27EA04454FEA1C4704FB0762BC
:101300002CEA074C05FB07F70CFB05F604FB0CFC6D
:1013100016EB074642EB174216EB0C4642EB1C421B
:101320001BEB060658EB0202414146EA9E0601D538
:10133000BDE80189B619524141EB0101A3F1010356
:10134000BDE801894FEA14454FEA114724EA0546F2
:1013500021EA074C05FB07F406FB07F70CFB06F137
:1013600005FB0CFC11EB074144EB17444FEA124715
:1013700011EB0C4144EB1C4422EA074C05FB07F23D
:1013800006FB07F70CFB06F605FB0CFC16EB074605
:1013900042EB174216EB0C4642EB1C456A1854F11F
:1013A000000148BF7047B619524141EB0101A3F15A
:1013B0000103704795F0000F37D04FEA11424FEA12
:1013C000144721EA024624EA074C02FB07F106FB18
:1013D00007F70CFB06F402FB0CFC14EB074441EB93
:1013E00017414FEA154714EB0C4441EB1C4125EA29
:1013F000074C02FB07F506FB07F70CFB06F602FBA2
:101400000CFC16EB074645EB174516EB0C4645EB77
:101410001C42121951F1000148BF7047B6195241E0
:1014200041EB0101A3F1010370474FEA14454FEA74
:10143000114724EA054621EA074C05FB07F106FBA4
:1014400007F70CFB06F24FF0000605FB0CFC12EB55
:10145000074241EB174112EB0C4251EB1C4148BFD4
:101460007047921841EB0101A3F10103704700009E
:1014700070B50446206803F0B6FA002836D120681B
:1014800080681B49084048B1E06D40F01000E065FD
:10149000206E40F001002066012070BD206803F03E
:1014A00087FA01F08DF905461AE0206803F09BFAEF
:1014B00010B9206803F07CFA01F082F9401B022881
:1014C0000ED92068006800F0010048B9E06D40F0D6
:1014D0001000E065206E40F0010020660120DCE78E
:1014E0002068006800F001000028DED00020D4E76A
:1014F0003F00008000BFFEE710B5024800F0F9FE93
:1015000010BD0000F428002010B5024800F0F1FEE4
:1015100010BD00005429002030B50E4D0468AC42C7
:1015200001D20D4901E00C4920310B460478083CFA
:101530001425B4FBF5F2446CA40803EB8404846422
:10154000054C8034C46402F01F050124AC400465DE
:1015500030BD0000080402400008024001794A1E24
:10156000064B03EB82024265044A403282654A1E02
:1015700002F01F0301229A40C26570470009024031
:1015800030B5D0E913546C60446D14B1D0E91654F1
:101590006C6090F8444004F01F050124AC40056CD9
:1015A0006C60046863608468102C04D10468A260D5
:1015B0000468E16003E00468A1600468E26030BD93
:1015C0007047002109E0002201E0531C9AB240F666
:1015D000B8339A42F9DB4B1C99B28142F3DB704776
:1015E00030B52DED0C8B8BB0142004F01BFC0446A1
:1015F00000250CE0A54206DA691CC8B204F012FC12
:1016000006A9485502E0202006A948556D1C142D56
:10161000F0DB06AAA01C14545621E01C1154A2B2FF
:1016200006A9244802F04AFE06A9482003F036F82D
:10163000204604F041FF41EC1D0B9FED1F0B53ECC6
:10164000102B04F063FF41EC1C0B9FED1D0B53ECC2
:10165000102B04F031FD41EC1A0B204604F02CFF56
:1016600041EC1C0B9FED140B53EC102B04F04EFFC0
:1016700041EC1B0B53EC1A2B04F0C6FD41EC190B8B
:101680009FED110B53EC102B04F040FF41EC180BB5
:1016900053EC182B0EA101A8FEF792FE01A97820A9
:1016A00002F0FCFF012000F083FF0BB0BDEC0C8BBF
:1016B00030BD00006428002051DA1B7C6132E93F14
:1016C00000000000000024406666666666660A4008
:1016D00050423134563A25362E336656000000000B
:1016E00070B54FF6FF7002F051FF0FA1002002F01D
:1016F000D5FF01243C250AE0E0B204F071FB640050
:10170000642000F03FFFC4F3002000B10124281E34
:10171000A5F10105F0D1022000F04AFF4FF6FF705D
:1017200002F034FF70BD00002020204920616D20B0
:1017300061206C6F772D6C6576656C20696E7465C1
:1017400072727570742E20202020000072B600BFC7
:10175000FEE700002DE9F0439BB004460E464FF033
:101760000008306800B100BF00BF94F8580001289D
:1017700003D102201BB0BDE8F083012084F858009B
:1017800000BF0020179018902068B0F1A04F02D140
:101790003148009001E000200090009850B9E06DC1
:1017A00040F02000E06500BF002084F8580000BF32
:1017B0000120DFE7009803F02AF90746206803F0CC
:1017C00026F9D8BBD7BB254D306800B394F8380054
:1017D000716841EA4030A96821F460410843A8607B
:1017E0004FF0A04003F004F981461B4803F000F9D4
:1017F00049EA0009B9F1000F27D1B1683068084300
:10180000A96840F61F7291430843A8601DE0A868CC
:1018100020F46040A8604FF0A04003F0E9F8814652
:101820000D4803F0E5F849EA0009B9F1000F0CD1C1
:10183000A86840F61F718843A86006E0FFE7E06DE6
:1018400040F02000E0654FF0010800BF002084F860
:10185000580000BF40468DE70001005000030050D3
:101860002DE9F84F05460C464FF0000A0020009085
:10187000FE49E068884200D000E000BF00BF95F854
:101880005800012802D10220BDE8F88F012085F818
:10189000580000BF286803F0B5F800287DD12968FA
:1018A000D4E9002001F1300CC0F3012B0CEB8B03C9
:1018B000D3F800C000F01F0E4FF01F0B0BFA0EFB09
:1018C0002CEA0B0C00F01F0BC2F3846E0EFA0BFE19
:1018D0004CEA0E0CC3F800C000BF286803F092F871
:1018E0008146286803F07AF88046B9F1000F64D188
:1018F000B8F1000FFBD1A068B0F1004F0AD1216808
:101900000022286803F090F84FF00041286803F0A7
:10191000B0F808E0A2682168286803F085F8002183
:10192000286803F0A6F860692968C968C1F3C10195
:10193000490000FA01F7206904283FD0286822688E
:10194000216900F1600C0CEB8103D3F800C0DFF8D3
:1019500020B30CEA0B0C02F0F84B4BF0004B4BEAB7
:10196000070B4CEA0B0CC3F800C000BF2868A26943
:10197000216900F1600C0CEB8103D3F800C02CF05E
:10198000807C4CEA020CC3F800C000BF2868227FAC
:101990002169012A02D1520601E0C6E10022134664
:1019A00000F1600C0CEB8102D2F800C02CF0007C3E
:1019B0004CEA030CC2F800C000BFA7E00021286871
:1019C00003F003F8C0F3120030B90021286802F0D8
:1019D000FCFFC0F3846007E00021286802F0F5FFF7
:1019E00090FAA0F0B0FA80F02168C1F3120119B9A1
:1019F0002168C1F3846104E0216891FAA1F1B1FA90
:101A000081F1884204D100221146286803F026F8AB
:101A10000121286802F0D9FFC0F3120030B901217A
:101A2000286802F0D2FFC0F3846007E00121286833
:101A300002F0CBFF90FAA0F0B0FA80F02168C1F379
:101A4000120119B92168C1F3846104E0216891FA97
:101A5000A1F1B1FA81F1884204D100220121286864
:101A600002F0FCFF0221286802F0AFFFC0F3120071
:101A700030B90221286802F0A8FFC0F3846007E0B3
:101A80000221286802F0A1FF90FAA0F0B0FA80F0DD
:101A90002168C1F3120119B92168C1F3846104E01E
:101AA000216891FAA1F1B1FA81F1884204D10022B2
:101AB0000221286802F0D2FF0321286802F085FF86
:101AC000C0F3120030B90321286802F07EFFC0F392
:101AD000846007E00321286802F077FF90FAA0F005
:101AE000B0FA80F02168C1F3120119B92168C1F37D
:101AF000846104E0216891FAA1F1B1FA81F1884290
:101B000004D100220321286802F0A8FF286802F00F
:101B10006AFF002872D12868E2682168D0F8B030E6
:101B2000C1F3120C23EA0C0302F0180BDFF844C1D6
:101B30002CFA0BFC0CEA010C43EA0C03C0F8B030A1
:101B400000BF4A49E068884258D12368C3F31203B2
:101B50001BB92368C3F3846304E0236893FAA3F3F7
:101B6000B3FA83F35B1C03F01F03092B3ED82368F1
:101B7000C3F312031BB92368C3F3846304E023682F
:101B800093FAA3F3B3FA83F35B1C03F01F034FF044
:101B9000010C0CFA03FC2368C3F312031BB923687E
:101BA000C3F3846304E0236893FAA3F3B3FA83F3E3
:101BB0005B1C03F01F034CEA836C2368C3F312031E
:101BC0001BB92368C3F3846304E0236893FAA3F387
:101BD000B3FA83F35B1C03F01F0303EB43034FF0E3
:101BE000000B4BEA03534CEA030347E02368C3F3BB
:101BF000120323B92368C3F3846305E043E0236839
:101C000093FAA3F3B3FA83F35B1C03F01F034FF0C3
:101C1000010C0CFA03FC2368C3F312031BB92368FD
:101C2000C3F3846304E0236893FAA3F3B3FA83F362
:101C30005B1C03F01F034CEA836C2368C3F312039D
:101C40001BB92368C3F3846304E0236893FAA3F306
:101C5000B3FA83F35B1C03F01F030A3B03EB43035C
:101C60004FF0007B4BEA035306E0000000007F408A
:101C700000F0FF03FFFF07004CEA03031946A268C8
:101C8000286802F0D1FE2F492068084050B300BFF9
:101C90002D48806800F0E07600BF2C49206888421B
:101CA00003D02B49206888421DD106F40000D0B92A
:101CB0002868B0F1A04F3ED146F40001224802F05E
:101CC000C7FE244800682449B0FBF1F0401C00EB3B
:101CD00040008000009002E00098401E00900098B4
:101CE0000028F9D127E01D49206888420CD106F070
:101CF000807048B91A49286888421CD046F0807123
:101D0000114802F0A5FE16E016492068884212D15B
:101D100006F4800078B91249286888420BD046F44E
:101D20008001094802F094FE05E0E86D40F02000D3
:101D3000E8654FF0010A00BF002085F8580000BF99
:101D40005046A1E50000088000030050000021C3B8
:101D50001000C09010000020400D0300000052C78A
:101D600000010050000084CB01460868006C7047F9
:101D70002DE9F84F04464FF000090020009014B9F7
:101D80000120BDE8F88F606920B194F82400012893
:101D900000D100BFE06D30B9204600F01DF90020F1
:101DA000206684F8580020688168C1F3407131B121
:101DB00020688168814A1140816000BF00BF2068AF
:101DC00002F01BFEB0B9206881687D4A114041F0E5
:101DD0008051816000BF7B4800687B49B0FBF1F017
:101DE000401C4000009002E00098401E00900098C7
:101DF0000028F9D1206802F000FE48B9E06D40F0FB
:101E00001000E065206E40F0010020664FF00109EF
:101E1000206802F0F7FD0646E06D00F01000002893
:101E20007CD1002EFCD1E06D20F4807040F00200E7
:101E3000E065206802F0D7FDB0B94FF0A04002F095
:101E4000D2FD8246614802F0CEFD4AEA000ABAF1AC
:101E5000000F09D160685E49896821F47C11014353
:101E60005B4A916000BF00BF607FE16B41EA403098
:101E7000E1680843A168084394F8241040EA01454A
:101E800094F82400012803D1208D401E45EA4045E6
:101E9000E06A28B1A08D00F47870216B08430543F7
:101EA0002068C0684B49084028432168C860206802
:101EB000006920F04060616B084321680861206878
:101EC00002F0A0FD8046206802F088FD0746B8F1C8
:101ED000000F50D1F7BB207F002141EA803194F8F8
:101EE000380041EA40052068C06844F20201884396
:101EF00028432168C860206988B12068006940F4DF
:101F00008030216808612068D0F8C0006FF30D00B0
:101F1000216908432168C1F8C0000EE045E020684F
:101F2000006920F48030216808612068D0F8C00082
:101F30006FF30D002168C1F8C00094F8400001283B
:101F400013D1606C40F00101A06C0843E16C0843C0
:101F5000216D00E00FE008432168096940F2FC723E
:101F6000914308432168086105E02068006920F07A
:101F70000100216808616069012809D12068006BAF
:101F800020F00F00216A491E08432168086305E01C
:101F90002068006B20F00F0021680863E06D20F0DE
:101FA000020040F00100E06505E0E06D40F0100047
:101FB000E0654FF001094846E3E60000C0FFFF5F1F
:101FC000C0FFFF7F10000020400D03000001005003
:101FD000000300500740F0FF10B586B004461421FE
:101FE00001A8FEF7AFFA2068B0F1A04F2FD1334817
:101FF0000068401C314908600846006801280DD17E
:1020000000BF2F48C06C40F400502D49C8640846FA
:10201000C06C00F40050009000BF00BF00BF284813
:10202000C06C40F002002649C8640846C06C00F04D
:102030000200009000BF00BF8814019003200290AE
:102040000020039001A91F4800F0C0FA33E01E49A8
:10205000206888422FD119480068401C1749086041
:102060000846006801280DD100BF1548C06C40F437
:1020700000501349C8640846C06C00F4005000903A
:1020800000BF00BF00BF0E48C06C40F002000C490A
:10209000C8640846C06C00F00200009000BF00BF9A
:1020A0004FF400400190032002900020039001A90A
:1020B000044800F08BFA06B010BD000000000020BC
:1020C0000010024000040048000100502DE9F041DA
:1020D0000446434802F074FC0646206802F092FC75
:1020E00000287AD100BF94F85800012802D10220BC
:1020F000BDE8F081012084F8580000BF2046FFF7BA
:10210000B7F90546002D63D1E06D40F601618843C3
:1021100040F48070E06533492068884202D14FF076
:10212000A04000E020682168884200D01EB9E06D20
:1021300020F48010E065E06D00F48050B0F5805F21
:1021400004D1206E20F00600206601E00020206609
:102150001C202168086000BF002084F8580000BFE0
:1021600020492068884202D14FF0A04000E020685A
:102170002168884204D01EB1052E01D0092E0ED14F
:102180002068C06800F0007028B1E06D20F40050B5
:1021900040F48050E065206802F03EFC1EE0E06DF7
:1021A00040F48010E0650F492068884202D14FF06A
:1021B000A04000E020680746F86800F0007068B1B1
:1021C000E06D20F4005040F48050E06506E004E04B
:1021D00000BF002084F8580000E00225284687E769
:1021E00000030050000100500146002091F8252016
:1021F000022A03D00422CA63012027E00A68126879
:1022000022F00E020B681A608A6C126822F4807247
:102210008B6C1A600A68126822F001020B681A605F
:1022200091F8442002F01F0301229A400B6C5A607F
:10223000D1E913325A604A6D42B14A6D126822F4F4
:1022400080724B6D1A60D1E916325A60012281F812
:10225000252000BF002281F8242000BF704770B500
:102260000446002594F8250002280BD00420E063E2
:10227000012084F8250000BF002084F8240000BF5E
:10228000012534E02068006820F00E002168086015
:102290002068006820F0010021680860A06C0068D8
:1022A00020F48070A16C086094F8440000F01F01D5
:1022B00001208840216C4860D4E913104860606DAB
:1022C00040B1606D006820F48070616D0860D4E9F1
:1022D00016104860012084F8250000BF002084F813
:1022E000240000BFA06B10B12046A16B8847284690
:1022F00070BD70B50446206C05682068066894F8C7
:10230000440000F01F01042088402840E0B106F09E
:102310000400C8B12068006800F0200028B92068D7
:10232000006820F004002168086094F8440000F080
:102330001F0104208840216C4860206B002856D083
:102340002046216B884752E094F8440000F01F01BA
:1023500002208840284018B306F0020000B320682D
:10236000006800F0200040B92068006820F00A00F2
:1023700021680860012084F8250094F8440000F0EA
:102380001F0102208840216C486000BF002084F8B3
:10239000240000BFE06A50B32046E16A884726E087
:1023A00094F8440000F01F01082088402840F0B154
:1023B00006F00800D8B12068006820F00E002168FF
:1023C000086094F8440000F01F0101208840216C4F
:1023D00048600120E06384F8250000BF002084F8F5
:1023E000240000BF606B10B12046616B884770BD50
:1023F00070B504460CB9012070BD2F492068884291
:102400000BD22E492068401A1421B0FBF1F0800055
:1024100060642A48083820640AE027492068401A86
:102420001421B0FBF1F08000606423480838206478
:10243000022084F825002068056847F6F07085437F
:10244000D4E9020108432169084361690843A1698D
:102450000843E1690843216A084305432068056091
:102460002046FFF759F8A068B0F5804F01D1002051
:1024700060602079A16C0860D4E91310486060683E
:1024800060B16068042809D82046FFF767F800208B
:10249000616D0860D4E91610486003E000206065B3
:1024A000A065E0650020E063012084F8250000209D
:1024B00084F8240000BF9FE708040240080002409F
:1024C0002DE9F04104460D4616461F464FF0000820
:1024D00000BF94F82400012802D10220BDE8F08159
:1024E000012084F8240000BF94F8250001283FD182
:1024F000022084F825000020E0632068006820F0B6
:102500000100216808603B46324629462046FFF715
:1025100037F8206B30B12068006840F00E00216869
:1025200008600BE02068006820F004002168086063
:102530002068006840F00A0021680860A06C00680C
:1025400000F4803028B1A06C006840F48070A16C69
:102550000860606D28B1606D006840F48070616D46
:1025600008602068006840F001002168086006E00B
:1025700000BF002084F8240000BF4FF0020840464E
:10258000ACE7000070B5044600F01AF9064625468F
:10259000681C10B104480068054400BF00F010F941
:1025A000801BA842FAD370BD0C00002070470000C9
:1025B00010B5044604480068204020B10248046079
:1025C0002046FFF7F3FF10BD1404014078B5034621
:1025D0000022D0E0012696400D6805EA0604002C92
:1025E00072D04D68012D08D04D68022D05D04D6880
:1025F000112D02D04D68122D13D198685600032575
:10260000B540A8435600CD68B54028439860586847
:1026100001259540A8430D79C5F300159540284341
:102620005860D86856000325B540A84356008D6809
:10263000B5402843D8604D68022D02D04D68122D58
:1026400013D1D60803F1200555F826005507EE0EE4
:102650000F25B540A8435607F60E0D69B54028432F
:10266000D60803F1200545F8260018685600032512
:10267000B540A8430D7905F003055600B540284341
:1026800018604D6805F08055B5F1805F72D100BFCC
:102690003C4D2D6E45F001053A4E356635462D6EA2
:1026A00005F00105009500BF00BF4FEAB63596085A
:1026B00055F8260095072E0F0F25B540A843B3F116
:1026C000904F02D100251AE054E02F4DAB4201D1CA
:1026D000012514E02D4DAB4201D102250FE02C4D18
:1026E000AB4201D103250AE02A4DAB4201D10425BA
:1026F00005E0294DAB4201D1052500E006259607EE
:10270000360FB5402843254D960845F82600244D40
:102710002868A0434D6805F48035B5F5803F00D1A9
:1027200020431F4D28602D1D2868A0434D6805F4E7
:102730000035B5F5003F00D12043194D2D1D28600F
:102740002D1D2868A0434D6805F48015B5F5801F40
:1027500000D12043124D083528602D1D2868A04364
:102760004D6805F40015B5F5001F00D120430C4D50
:102770000C352860521C0D68D540002D7FF42AAF1F
:1027800078BD000000100240000400480008004826
:10279000000C0048001000480014004808000140E8
:1027A00000040140024613690B400BB1012000E018
:1027B000002070470AB1816100E08162704700002B
:1027C00001480068704700000400002003480068CA
:1027D0000349096808440149086070470400002063
:1027E0000C00002010B50024032000F0ABF80320FB
:1027F00000F008F808B1012401E000F02FF82046AD
:1028000010BD000070B50446002511480068D8B11D
:102810000F4800684FF47A71B1FBF0F00D49096878
:10282000B1FBF0F6304600F02BFF58B9102C07D260
:1028300000222146501E00F047F80748046004E0DB
:10284000012502E0012500E00125284670BD0000B9
:102850000C000020100000200800002008B500BF78
:102860000E48006E40F001000C4908660846006EF4
:1028700000F00100009000BF00BF00BF0846806D5F
:1028800040F0805088650846806D00F080500090D0
:1028900000BF00BF00F0F6F808BD000000100240C5
:1028A0000146084600280DDB00BF00BF00F01F03F3
:1028B00001229A4043099B0003F1E023C3F8002161
:1028C00000BF00BF00BF70472DE9F05F80460D4696
:1028D000164603F061FA074639462A46334601F0A8
:1028E0000700C0F1070ABAF1040F02D94FF0040A39
:1028F00001E0C0F1070AD14600F1040ABAF1070F5E
:1029000002D24FF0000A01E0A0F1030AD4464FF0D2
:10291000010A0AFA09FAAAF1010A0AEA020A0AFAFB
:102920000CFA4FF0010B0BFA0CFBABF1010B0BEAAD
:10293000030B4AEA0B042146404603F035FABDE892
:10294000F09F000000BF00F00702064B19684FF629
:10295000FF031940044B0B4343EA0221014B19606A
:1029600000BF70470CED00E00000FA0502468ABB8C
:102970004148006800F4C060B0F5806F2BD13E483C
:102980008030006820F480703B4BC3F8800018460C
:10299000006820F4C06040F4007018603748006898
:1029A00032235843364BB0FBF3F0411C00E0491E84
:1029B0003148406900F48060B0F5806F01D1002992
:1029C000F5D12D48406900F48060B0F5806F51D199
:1029D0000320704708E028488030006820F48070A9
:1029E000254BC3F8800045E0B2F5007F3AD122487C
:1029F000006800F4C060B0F5806F2AD11E488030B6
:102A0000006840F480701C4BC3F8800018460068D2
:102A100020F4C06040F40070186018480068322349
:102A20005843174BB0FBF3F0411C00E0491E12481D
:102A3000406900F48060B0F5806F01D10029F5D1C4
:102A40000D48406900F48060B0F5806F12D103201A
:102A5000BFE709488030006840F48070064BC3F837
:102A6000800007E00448006820F4C06040F4806003
:102A7000014B18600020ACE70070004010000020FF
:102A800040420F000348806840F48040014988605C
:102A900070470000007000402DE9F843044600270D
:102AA000B846206800F40020B0F5002F73D1B94675
:102AB000D348806D00F0805078B900BFD048806D59
:102AC00040F08050CE4988650846806D00F0805007
:102AD000009000BF00BF4FF00109CA48006840F4F1
:102AE0008070C8490860FFF76BFE064606E0FFF7F6
:102AF00067FE801B022801D9032705E0C148006852
:102B000000F480700028F2D000BF002F46D1BC48EE
:102B10009030006800F44075CDB1206CA84216D00A
:102B2000B7489030006820F44075B548D0F8900060
:102B300040F48030B249C1F890000846D0F89000C7
:102B400020F48030C1F890000846C0F8905005F09D
:102B50000100A0B1FFF734FE064608E0FFF730FEA3
:102B6000801B41F28831884201D9032706E0A4483E
:102B70009030006800F002000028EFD000BF5FB97D
:102B80009F489030006820F44070216C08439C49B5
:102B9000C1F8900003E00CE0B84600E0B846B9F197
:102BA000010F05D19648806D20F0805094498865CA
:102BB00000BF207800F0010048B1914888300068DB
:102BC00020F00300616808438D49C1F8880020782F
:102BD00000F00200022809D189488830006820F0FE
:102BE0000C00A16808438649C1F88800207800F0ED
:102BF0000400042809D182488830006820F03000A1
:102C0000E16808437E49C1F88800207800F0080098
:102C1000082809D17A488830006820F0C00021696E
:102C200008437749C1F88800207800F02000202868
:102C300009D173488830006820F440606169084316
:102C40006F49C1F88800207800F04000402809D181
:102C50006B488830006820F44050A16908436849F7
:102C6000C1F88800207800F08000802809D16448ED
:102C70008830006820F44040E16908436049C1F8A9
:102C80008800208800F48070B0F5807F09D15C480E
:102C90008830006820F44030216A08435849C1F860
:102CA0008800208800F40070B0F5007F09D15448F6
:102CB0008830006820F44020616A08435049C1F818
:102CC0008800208800F48060B0F5806F13D14C48F4
:102CD0008830006820F44010A16A084348498831D0
:102CE0000860A06AB0F5801F05D14548C06840F46F
:102CF00080104349C860208800F40060B0F5006F80
:102D000013D13F488830006820F44000E16A08434E
:102D10003B4988310860E06AB0F5800F05D138483A
:102D2000C06840F480103649C860208800F48050A4
:102D3000B0F5805F13D132488830006820F04070D1
:102D4000216B08432E4988310860206BB0F1807FE9
:102D500005D12B48C06840F480102949C8602088FC
:102D600000F40050B0F5005F13D1254888300068AA
:102D700020F04060616B0843214988310860606B36
:102D8000B0F1006F05D11E48C06840F480101C49A6
:102D9000C860208800F48040B0F5804F13D11848F7
:102DA0008830006820F04060A16B084314498831E6
:102DB0000860A06BB0F1006F05D11148C06840F405
:102DC00080100F49C860208800F40040B0F5004F23
:102DD00013D10B488830006820F04050E16B084365
:102DE000074988310860E06BB0F1805F05D1044885
:102DF000C06840F480300249C8604046BDE8F883AE
:102E000000100240007000402DE9F04104460D46DC
:102E10004FF0000814B90120BDE8F0817D4800683A
:102E200000F00F00A8420ED27A48006820F00F0090
:102E30002843784908600846006800F00F00A8425F
:102E400001D00120E8E7207800F00100002864D0DC
:102E50006068032823D17048006800F0007008B94A
:102E60000120D9E701F0F6FF06466C48864237D9C3
:102E70006948806800F0F00030B1207800F002006E
:102E800002282DD1A06858BB6348806820F0F0006C
:102E900040F08000604988604FF0800820E0606862
:102EA000022806D15C48006800F4003040B90120D7
:102EB000B2E75948006800F4806008B90120ABE728
:102EC00000F0DEF806465548864209D95248806827
:102ED00020F0F00040F080004F4988604FF08008FB
:102EE0004D48806820F00300616808434A498860C3
:102EF000FFF766FC074608E0FFF762FCC01B41F2E3
:102F00008831884201D9032086E74348806800F071
:102F10000C006168B0EB810FEED1207800F0020068
:102F2000022820D1207800F00400042805D13A4876
:102F3000806840F4E06038498860207800F008003C
:102F4000082807D13448806820F4605040F4E060DD
:102F5000314988603048806820F0F000A16808435B
:102F60002D49886008E0B8F1800F05D12A488068B3
:102F700020F0F000284988602648006800F00F0023
:102F8000A84219D92348006820F00F00284321499E
:102F90000860FFF715FC074608E0FFF711FCC01BAF
:102FA00041F28831884201D9032035E71948006889
:102FB00000F00F00A842F0D1207800F004000428AF
:102FC00007D11548806820F4E060E16808431249A1
:102FD0008860207800F00800082808D10E48806832
:102FE00020F46050216940EAC1000B49886000F07C
:102FF00047F809498968C1F30311094A515C01F096
:103000001F01C8400749086007480068FFF7FAFB3E
:1030100002E70000002002400010024000B4C40497
:103020001269000810000020080000200148006814
:10303000704700001000002000B5FFF7F7FF0549BA
:103040008968C1F30221044A515C01F01F01C840A4
:1030500000BD0000001002402269000800B5FFF723
:10306000E5FF05498968C1F3C221044A515C01F0BA
:103070001F01C84000BD0000001002402269000886
:1030800070B5224DAD6805F00C05042D01D1204826
:103090003AE01E4DAD6805F00C05082D01D11D4824
:1030A00032E01A4DAD6805F00C050C2D2BD1174DF3
:1030B000ED6805F00304154DED68C5F303156A1CB2
:1030C000022C0CD0032C09D1124DB5FBF2F50F4E9A
:1030D000F668C6F3062605FB06F10AE000BF0C4DB4
:1030E000B5FBF2F5094EF668C6F3062605FB06F1B8
:1030F00000BF00BF054DED68C5F341656D1C6B0059
:10310000B1FBF3F000E0002070BD000000100240B1
:103110000024F40000366E012DE9F843044614B98A
:103120000120BDE8F883207800F00100002865D078
:10313000FC48806800F00C07FA48C06800F00306FD
:103140000C2F01D1032E01D0082F0AD1F5480068B9
:1031500000F40030002851D0606800284ED10120D2
:10316000DFE700BF6068B0F5803F06D1ED4800683A
:1031700040F48030EB4908601AE06068B0F5A02F99
:103180000BD1E848006840F48020E6490860084612
:10319000006840F4803008600AE0E248006820F4EB
:1031A0008030E04908600846006820F4802008600C
:1031B00000BF606888B1FFF703FB054606E0FFF734
:1031C000FFFA401B642801D90320AAE7D54800680C
:1031D00000F400300028F2D010E0FFF7F1FA0546C5
:1031E00006E0FFF7EDFA401B642801D9032098E7B9
:1031F000CC48006800F400300028F2D1207800F0BC
:103200000200022860D1C748806800F00C07C5485A
:10321000C06800F003060C2F01D1022E01D0042F4C
:1032200018D1C048006800F4806018B1E06808B99F
:10323000012076E7BB48406820F0FE40217C40EA50
:103240000160B8494860B8480068FFF7DBFA18B376
:10325000012066E7E06800B3B248006840F480707F
:10326000B0490860FFF7ACFA054606E0FFF7A8FA98
:10327000401B022801D9032053E7AA48006800F444
:1032800080600028F2D0A748406820F0FE40217CF2
:1032900040EA0160A349486016E0A248006820F4B3
:1032A0008070A0490860FFF78BFA054606E0FFF73B
:1032B00087FA401B022801D9032032E799480068A9
:1032C00000F480600028F2D1207800F0080008287F
:1032D00036D16069D0B193489430006840F0010065
:1032E0009049C1F89400FFF76BFA054606E0FFF736
:1032F00067FA401B022801D9032012E7894894305D
:10330000006800F002000028F1D019E085489430F0
:10331000006820F001008349C1F89400FFF750FADB
:10332000054606E0FFF74CFA401B022801D90320AE
:10333000F7E67C489430006800F002000028F1D1E4
:10334000207800F00400042872D14FF0000875487E
:10335000806D012121EA107078B100BF7148806D45
:1033600040F080506F4988650846806D00F08050BD
:10337000009000BF00BF4FF001086C48006800F4E7
:103380008070B0B96948006840F48070674908608F
:10339000FFF716FA054606E0FFF712FA401B02286F
:1033A00001D90320BDE66148006800F48070002860
:1033B000F2D000BFA068012808D15A4890300068B8
:1033C00040F001005749C1F8900021E0A0680528AD
:1033D0000FD154489030006840F004005149C1F8C2
:1033E00090000846D0F8900040F00100C1F890002D
:1033F0000EE04C489030006820F001004949C1F8C7
:1034000090000846D0F8900020F00400C1F8900029
:1034100000BFA068A8B1FFF7D3F9054609E0FFF7A0
:10342000CFF9401B41F28831884202D9032078E667
:1034300025E03C489030006800F002000028EED003
:1034400013E0FFF7BDF9054608E0FFF7B9F9401BA7
:1034500041F28831884201D9032062E63148903038
:10346000006800F002000028EFD1B8F1010F05D18B
:103470002C48806D20F080502A49886500BF207854
:1034800000F02000202836D1A069D0B1254898301E
:10349000006840F001002349C1F89800FFF790F957
:1034A000054606E0FFF78CF9401B022801D90320EE
:1034B00037E61C489830006800F002000028F1D080
:1034C00019E018489830006820F001001549C1F84B
:1034D0009800FFF775F9054606E0FFF771F9401B04
:1034E000022801D903201CE60E489830006800F03D
:1034F00002000028F1D1E069002860D00948806806
:1035000000F00C000C287FD0E069022858D1054853
:10351000006820F0807003490860FFF751F9054604
:103520000DE0000000100240080000200070004084
:10353000FFF746F9401B022801D90320F1E54D4869
:10354000006800F000700028F2D1D4E90810401E95
:1035500041EA0011A06A41EA0021208E0122C2EB5B
:10356000500041EA40513420005DC2EB500041EA76
:1035700040612C20005D41EAC0603E49C9683E4A76
:10358000114008433B49C8600846006840F080701D
:1035900008600846C06840F08070C860FFF710F906
:1035A000054606E0FFF70CF9401B022801D903206D
:1035B000B7E53048006800F000700028F2D056E00F
:1035C0002C48006820F080702A4908600846C068CE
:1035D00020F00300C8600846C06828490840254913
:1035E000C860FFF7EDF8054607E00DE0FFF7E8F8E3
:1035F000401B022801D9032093E51E48006800F013
:1036000000700028F2D132E0E069012800D188E59D
:103610001848C66806F00301206A814225D106F0E9
:10362000F001606A401EB1EB001F1ED106F4FE419E
:10363000A06AB1EB002F18D106F078412C20005D74
:10364000B1EBC06F11D106F4C001208E0122C2EB94
:103650005000B1EB405F08D106F0C0613420005D3E
:10366000C2EB5000B1EB406F01D0012059E50020C2
:1036700057E50000001002400C809F01FFFFEEFEA6
:1036800070B504462546681EB0F1807F01D3012045
:103690000FE0681E4FF0E02148610F214FF0FF302E
:1036A00002F082FB00204FF0E021886107200861D2
:1036B000002070BD70477047704770477047704773
:1036C00030B502460B4600BF92F83C00012801D1FC
:1036D000022030BD012082F83C0000BF022082F8A9
:1036E0003D0010684168106884681D4D1068A8424C
:1036F00003D01C4D1068A84203D121F47001586812
:103700000143194801401868014310684160144D95
:103710001068A84213D01068B0F1804F0FD0134D3D
:103720001068A8420BD0124D1068A84207D00D4D6A
:103730001068A84203D00F4D1068A84205D124F0AC
:1037400080049868044310688460012082F83D007A
:1037500000BF002082F83C0000BF00BFB9E70000B6
:10376000002C0140003401408FFFFFFD00040040A9
:103770000008004000400140704710B504460CB9F5
:10378000012010BD94F83D0028B9002084F83C00C9
:10379000204600F029F8022084F83D00211D206811
:1037A00001F0FCFD012084F8480000BF84F83E00D1
:1037B00001213F2001554020015541200155422063
:1037C00001554320015500BF00BF012084F844008B
:1037D00045200155462001554720015500BF0120D5
:1037E00084F83D000020CCE738B504460D49206838
:1037F000884215D100BF0C48806D40F002000A4994
:1038000088650846806D00F00200009000BF00BF90
:10381000002211461D20FFF757F81D20FFF740F842
:1038200038BD000000040040001002402DE9F041C6
:1038300004460D4600BF94F83C00012802D1022046
:10384000BDE8F081012084F83C0000BF022084F82C
:103850003D00206886683F48064026F47F46206881
:1038600086602868702824D00CDC00F00F01002945
:1038700064D10011072861D2DFE800F05354555697
:1038800049353F00344A811A90424FD009DCB0F5E7
:10389000805F0DD0B0F5005F18D0B0F1101F4DD192
:1038A00043E0102943D0202942D0502946D140E09E
:1038B00045E0D5E902136A68206801F0CDFD206873
:1038C000866846F077062068866038E0D5E90213FE
:1038D0006A68206801F0C0FD2068806840F480407C
:1038E000216888602BE0EA686968206801F0CCFDF7
:1038F0005021206801F0BCFD21E0EA686968206879
:1039000001F0D5FD6021206801F0B2FD17E0EA6802
:103910006968206801F0B8FD4021206801F0A8FD29
:103920000DE000BF00BF00BF00BF00BF00BF00BF71
:1039300000BF2968206801F09BFD00E000BF00BFC8
:10394000012084F83D0000BF002084F83C0000BF47
:1039500000BF75E788FFCEFF20001000704710B54C
:10396000044620680069C0F34000D8B12068C068F0
:10397000C0F34000B0B16FF002002168086101207F
:1039800020772068806900F0030018B12046FFF717
:10399000E5FF05E0204600F002F9204600F000F9BE
:1039A0000020207720680069C0F38000D8B120682B
:1039B000C068C0F38000B0B16FF0040021680861F6
:1039C000022020772068806900F4407018B12046FA
:1039D000FFF7C4FF05E0204600F0E1F8204600F0C4
:1039E000DFF80020207720680069C0F3C000D8B15C
:1039F0002068C068C0F3C000B0B16FF00800216853
:103A00000861042020772068C06900F0030018B125
:103A10002046FFF7A3FF05E0204600F0C0F820464F
:103A200000F0BEF80020207720680069C0F3001085
:103A3000D8B12068C068C0F30010B0B16FF01000BA
:103A400021680861082020772068C06900F4407070
:103A500018B12046FFF782FF05E0204600F09FF8EE
:103A6000204600F09DF8002020772068006900F0D3
:103A7000010058B12068C06800F0010030B16FF05B
:103A8000010021680861204600F08BF82068006979
:103A9000C0F3C01058B12068C068C0F3C01030B186
:103AA0006FF08000216808612046FFF704FE20685F
:103AB0000069C0F3002058B12068C068C0F3C0108E
:103AC00030B16FF48070216808612046FFF7F2FD85
:103AD00020680069C0F3801058B12068C068C0F346
:103AE000801030B16FF0400021680861204600F07E
:103AF00059F820680069C0F3401058B12068C068C8
:103B0000C0F3401030B16FF02000216808612046FA
:103B1000FFF7D2FD20680069C0F3005058B120685B
:103B2000C068C0F3005030B16FF4801021680861A4
:103B30002046FFF7C3FD20680069C0F3405058B12C
:103B40002068C068C0F3405030B16FF400102168A5
:103B500008612046FFF7B1FD20680069C0F380507E
:103B600058B12068C068C0F3805030B16FF4800055
:103B7000216808612046FFF7A2FD20680069C0F3B4
:103B8000C05058B12068C068C0F3C05030B16FF465
:103B90000000216808612046FFF7EEFD10BD704768
:103BA000704770477047014600BF91F880000128B8
:103BB00001D102207047012081F8800000BF24203D
:103BC000C1F88400086802680868006820F00100F5
:103BD0000B68186022F000520020486608680260F6
:103BE0002020C1F8840000BF002081F8800000BFC1
:103BF00000BFDFE72DE9F04104460E461746D4F832
:103C00008800202827D106B117B90120BDE8F0812E
:103C100000BF94F88000012801D10220F6E70120BE
:103C200084F8800000BFE0663A463146204601F045
:103C3000E1FF05466DB9E06E012809D11020216829
:103C400008622068006840F010002168086000E009
:103C500001252846DAE70220D8E7000070B586B0D3
:103C600006460C4622461F491F4800F027FB00204D
:103C70000AE0A04204DA1B49095C01AA115402E0DF
:103C8000202101AA1154401C1428F2DBE0B201F0FB
:103C9000B6FA002506E001AA515D6A1CD0B202F016
:103CA000E7F86D1CA542F6DB002506E0691CC8B2EA
:103CB00002F0B8F801A948556D1CA542F6DB01A930
:103CC000002000F0EBFCE1B2142002F0D1F8E0B2E9
:103CD00002F086F8642203490348FFF78BFF06B021
:103CE00070BD00003000002064280020704770B5CF
:103CF00004460D4600BF94F88000012801D102203F
:103D000070BD012084F8800000BF2420C4F8840026
:103D1000206806682068006820F0010021680860BB
:103D20002068806820F06060284321688860204611
:103D300001F0D2FB206806602020C4F8840000BF98
:103D4000002084F8800000BF00BFD9E770B50446AA
:103D50000D4600BF94F88000012801D1022070BDFB
:103D6000012084F8800000BF2420C4F8840020686B
:103D700006682068006820F001002168086020685B
:103D8000806820F06040284321688860204601F068
:103D9000A3FB206806602020C4F8840000BF002038
:103DA00084F8800000BF00BFD9E7704770477047B4
:103DB0002DE9F04704462068C56920680668206838
:103DC000876840F60F0005EA0009B9F1000F0FD12E
:103DD00005F0200060B106F0200010B907F0805017
:103DE00030B1206F10B12046216F8847BDE8F087C1
:103DF000B9F1000F7ED0AD48384018B9AC4830401A
:103E00000028F7D005F0010058B106F4807040B1E9
:103E1000012021680862D4F88C0040F00100C4F849
:103E20008C0005F0020058B107F0010040B10220FB
:103E300021680862D4F88C0040F00400C4F88C00BB
:103E400005F0040058B107F0010040B104202168DA
:103E50000862D4F88C0040F00200C4F88C0005F031
:103E6000080070B106F0200010B99048384040B109
:103E7000082021680862D4F88C0040F00800C4F8DB
:103E80008C0005F4006060B106F0806048B14FF42A
:103E9000006021680862D4F88C0040F02000C4F86B
:103EA0008C00D4F88C00002844D005F0200050B1DC
:103EB00006F0200010B907F0805020B1206F10B13B
:103EC0002046216F8847D4F88CA02068806800F0D5
:103ED0004000402802D00AF0280028B3204601F014
:103EE00083FC2068806800F04000402818D12068DA
:103EF000806800E01FE020F0400021688860E06FEB
:103F000050B16C48E16F8863E06FFEF7A8F988B1A3
:103F1000E06F816B88470DE02046FFF748FF09E01E
:103F20002046FFF744FF05E02046FFF740FF002052
:103F3000C4F88C005AE7E06E012879D105F0100032
:103F4000002875D006F01000002871D010202168DC
:103F500008622068806800F0400040283DD1E06F92
:103F6000006840681FFA80F8B8F1000F34D0B4F848
:103F70005C00404530DDA4F85E80E06F00680068BA
:103F800000F02000F8B92068006820F480702168F3
:103F900008602068806820F001002168886020683F
:103FA000806820F04000216888602020C4F88800E4
:103FB0000020E0662068006820F01000216808609A
:103FC000E06FFEF711F9B4F85C00B4F85E20801AD7
:103FD00081B22046FFF742FE08E734F85C0F6188A3
:103FE000401A1FFA80F860885C3CF8B1B8F1000F05
:103FF0001CD02068006820F4907021680860206858
:1040000080682A49C9430840216888602020C4F894
:1040100088000020E06620672068006820F010001B
:104020002168086041462046FFF718FEDEE6FFE7FC
:1040300005F4801050B107F4800038B14FF48010BF
:10404000216808622046FFF7B1FECFE605F0800048
:1040500058B106F0800010B907F4000028B1606F75
:1040600010B12046616F8847C0E605F0400030B1CE
:1040700006F0400018B1204601F0D4FBB6E605F486
:10408000000030B106F0804018B12046FFF78DFEE9
:10409000ACE605F0807030B106F0004018B1204663
:1040A000FFF724FEA2E600BFA0E60000010000101A
:1040B000200100049F56000810B504460CB90120E9
:1040C00010BDA06900B100E000BFD4F8840028B999
:1040D000002084F88000204600F02AF82420C4F84C
:1040E00084002068006820F00100216808602046F4
:1040F00001F0BAFB012800D1E2E7A06A10B1204626
:1041000001F016FA2068406820F490402168486069
:104110002068806820F02A00216888602068006894
:1041200040F0010021680860204601F07DFAC7E7F1
:1041300010B586B00446142101A8FCF703FA3749EC
:104140002068884267D100BF3548006E40F4804047
:10415000334908660846006E00F48040009000BFB6
:1041600000BF00BF0846C06C40F00100C8640846AC
:10417000C06C00F00100009000BF00BF4FF4C060B1
:1041800001900220029000200390049007200590E7
:1041900001A94FF09040FEF719FA22482249086021
:1041A000192048601021204881600021C1608021D1
:1041B0000161002141618161C1610162FEF718F96D
:1041C00008B1FDF7C3FA00BF1748A067846200BFBB
:1041D000144814301549086018204860002113481D
:1041E0008160C16080210161002141618161C16103
:1041F0000162FEF7FDF808B1FDF7A8FA00BF0B4811
:10420000E067846200BF00220F212520FEF75CFBDF
:104210002520FEF745FB06B010BD00000038014028
:104220000010024008000240F42800205429002019
:1042300070B504460D461646D4F88800202825D1CE
:1042400005B10EB9012070BD00BF94F880000128AF
:1042500001D10220F7E7012084F8800000BF002090
:10426000E0660B49206888420AD02068406800F464
:10427000000028B12068006840F080602168086074
:1042800032462946204601F0B5FCDCE70220DAE799
:104290000080004010B5044602220549054800F0A0
:1042A0000DF8022202490348FFF7C2FF10BD0000CB
:1042B00030000020642800207047000070B50446DC
:1042C0000E461546D4F8840020284BD106B10DB90E
:1042D000012070BD00BF94F88000012801D10220A8
:1042E000F7E7012084F8800000BF44F8506FA580F4
:1042F000E5800020E06321206063A06A503C08B3A1
:104300001948A16FC8621948A16F08631848A16FC6
:1043100048630020A16F8863236803F128022B46BD
:10432000216DA06FFEF7CCF860B11020C4F88C00AE
:1043300000BF002084F8800000BF2020C4F8840063
:104340000120C6E740202168086200BF002084F8F1
:10435000800000BF2068806840F08000216888608D
:104360000020B6E70220B4E7A3570008DB57000897
:10437000B75600087047704700BFFEE700B585B02C
:1043800014216846FCF7DEF8C0200090012001905F
:1043900002900220039069460248FEF717F905B023
:1043A00000BD00000004004870B50825002400F09E
:1043B00057FF13E06006040E002000F031FF0A20D2
:1043C00001F02AFD0A2001F027FD012000F028FF5E
:1043D0000A2001F021FD00F037FF0443281EA5F15B
:1043E0000101CDB2E6D100F01BFF0A2001F014FD5F
:1043F00000F060FF204670BD70B50446082517E048
:10440000002000F00DFF0A2001F006FD04F08000FE
:1044100000F03CFF0A2001F0FFFC6006040E0A20B9
:1044200001F0FAFC012000F0FBFE0A2001F0F4FC90
:10443000281EA5F10101CDB2E2D100F0F1FE0A2063
:1044400001F0EAFC70BD10B5012000F01FFF0A204A
:1044500001F0E2FC0A2001F0DFFC012000F0E0FEA8
:104460000A2001F0D9FC002000F0DAFE0A2001F059
:10447000D3FC10BD10B5012000F008FF0A2001F0A8
:10448000CBFC012000F0CCFE0A2001F0C5FC00208E
:1044900000F0FCFE0A2001F0BFFC002000F0C0FE8E
:1044A0000A2001F0B9FC10BD10B5002000F0B8FEE4
:1044B0000A2001F0B1FC002000F0E8FE0A2001F023
:1044C000ABFC012000F0ACFE0A2001F0A5FC0120AD
:1044D00000F0DCFE0A2001F09FFC10BD10B50524A1
:1044E00000F0BEFE0A2001F097FC012000F098FECB
:1044F0000A2001F091FC0BE0601E84B20A2001F05A
:104500008BFC2CB900F0D6FEFFF7CEFF012010BDCA
:1045100000F09AFE0028EFD100F0CCFE002000F061
:104520007FFE0A2001F078FC0020F0E700B585B09E
:1045300014216846FCF706F84FF6FF700090002043
:104540000190032003900020029069460248FEF784
:104550003DF805B000BD00000008004800B585B07A
:1045600014216846FBF7EEFF4FF6FF700090012024
:104570000190032003900020029069460248FEF754
:1045800025F805B000BD00000008004830B505461C
:1045900000240021084600F03FF900F085F900BF33
:1045A00003E0284600F044F9641CB4F5963FF8D3C4
:1045B00030BD000000B587B0142102A8FBF7C2FF90
:1045C00000BF2A48C06C40F004002849C86408466F
:1045D000C06C00F00400019000BF00BF00BF08469F
:1045E000C06C40F00100C8640846C06C00F00100D7
:1045F000019000BF00BF00BF0846C06C40F0020041
:10460000C8640846C06C00F00200019000BF00BF03
:104610004FF4487002900120039000200590049010
:1046200002A91348FDF7D2FF4FF4807002900120D9
:10463000039000200590049002A94FF09040FDF7F0
:10464000C5FFFFF78BFF4FF09040806940F480700A
:104650004FF09041886106481830006840F40870B7
:1046600003491831086007B000BD00000010024087
:104670000004004870B505460E461446A4F120001B
:10468000C4B204EB4400044901EB00123146284651
:1046900000F01AF870BD00002A690008F0B507465E
:1046A0000C46002540F23F1609E022783146384694
:1046B000FFF7E0FFA6F1100086B2641C6D1C2078A5
:1046C00008B1142DF1D3F0BD2DE9F043064689461B
:1046D000174600240025A046B0464946404600F053
:1046E0009BF800BF1EE000F0DFF800250FE037F870
:1046F00014000121A940084020B90C48008800F0AE
:1047000097F803E00A48008800F092F86D1C102D1D
:10471000EDD308F1010000F0FF084946404600F0E3
:104720007BF8641C182CDED3BDE8F0831600002053
:104730001400002010B5FFF73DFF002000F016F830
:10474000094908800846008848F23021884202D191
:1047500000F0B4FB01E000F041FC002000F006F89E
:104760000149088010BD00001800002070B5044603
:104770002748006840F40070254908600846006832
:1047800040F48070086022481038006840F0200033
:104790001F49103908601F4804601D48006840F038
:1047A00020001B49086000BF00BF00BF1848103838
:1047B000006840F02000164910390860084600687B
:1047C00040F480700860FFF7B1FE4FF09040806ABF
:1047D00040F480704FF09041886200BF00BF00BF7E
:1047E0000C48001F006885B24FF09040806940F48B
:1047F00080704FF090418861FFF7B0FE0448103898
:10480000006840F40070024910390860284670BD05
:10481000280400481408004830B504460D462146D7
:10482000202000F07DF82946212000F079F830BDE5
:104830001B49096841F40071194A1160184910397F
:10484000096841F48071164A103A116011460968EE
:1048500041F020011160134908601149096841F0D5
:1048600020010F4A116000BF00BF00BF0C49103982
:10487000096841F020010A4A103A1160114609689E
:1048800041F48071116000BF00BF00BF04491039BE
:10489000096841F40071024A103A11607047000043
:1048A00028040048140800481B48006840F40070C1
:1048B000194908600846006840F48070086016488E
:1048C0001038006840F02000134910390860222099
:1048D000124908601048006840F020000E49086046
:1048E00000BF00BF00BF0C481038006840F0200037
:1048F0000949103908600846006840F48070086073
:1049000000BF00BF00BF04481038006840F40070CA
:10491000014910390860704728040048140800480D
:10492000214A126842F400721F4B1A601A4612683C
:1049300042F480721A601C4A103A126842F0200257
:10494000194B103B1A60194A1060174A126842F05E
:104950002002154B1A6000BF00BF00BF124A103A78
:10496000126842F02002104B103B1A601A4612687F
:1049700042F480721A600D4A11600B4A126842F0CC
:104980002002094B1A6000BF00BF00BF064A103A60
:10499000126842F02002044B103B1A601A4612685B
:1049A00042F480721A6070472804004814080048D6
:1049B0008168024A1140491C81607047C0FFFF7F37
:1049C0000146886800F01F007047024602F160004F
:1049D00000EB8103186800F0F840704701468868D2
:1049E000C0F3C00070470146886800F001007047BE
:1049F0000146886800F00100704701468868C0F3EE
:104A00000070704701468868C0F380007047014617
:104A10008868C0F3800070478168024A1140091D10
:104A200081607047C0FFFF7F70B500F11404C1F3CF
:104A3000406504EB85031C68C1F304560725B540A7
:104A4000AC43C1F3045502FA05F52C431C6070BD5C
:104A5000826822F0E0720A438260704710B500F16C
:104A6000600404EB81031C6824F0004414431C60C0
:104A700010BD426922F000420A43426170470000C3
:104A800000B58BB00020089009900A90202168465C
:104A9000FBF758FD4FF0A0401F4908604FF400306D
:104AA000486000211C488160C160016141610421AE
:104AB000816100210177417701210162002180F8A5
:104AC0002410C162016380F83810C16380F840107F
:104AD000FDF74EF908B1FCF739FE0020089008A94F
:104AE0000D48FCF737FE08B1FCF730FE0B4800908C
:104AF00006200190002002907F2003900420049063
:104B00000020059069460448FCF7AAFE08B1FCF7AE
:104B10001DFE0BB000BD0000402700200008302E15
:104B200000B589B0202101A8FBF70CFD1A481B49EC
:104B3000086040024860002118488160C16001613E
:104B400041610421816100210177417701210162E6
:104B5000002180F82410C162016380F83810C1631D
:104B600080F84010FDF704F908B1FCF7EFFD0C48A0
:104B7000019006200290002003907F2004900420E2
:104B800005900020069001A90448FCF769FE08B1D1
:104B9000FCF7DCFD09B000BD00010050AC2700208F
:104BA0000080F03E08B500BF1548806C40F004005E
:104BB000134988640846806C00F00400009000BF30
:104BC00000BF00BF0846806C40F0010088640846C2
:104BD000806C00F00100009000BF00BF0022114671
:104BE0000B20FDF771FE0B20FDF75AFE0022114647
:104BF0000C20FDF769FE0C20FDF752FE08BD0000F9
:104C00000010024000B587B0142102A8FBF79AFCFF
:104C100000BF5148C06C40F004004F49C8640846CA
:104C2000C06C00F00400019000BF00BF00BF084648
:104C3000C06C40F02000C8640846C06C00F0200042
:104C4000019000BF00BF00BF0846C06C40F00100EB
:104C5000C8640846C06C00F00100019000BF00BFAE
:104C600000BF0846C06C40F00200C8640846C06C33
:104C700000F00200019000BF00BF00BF0846C06CFA
:104C800040F00800C8640846C06C00F008000190BD
:104C900000BF00BF01224FF47F413048FDF78AFD7D
:104CA000002204212E48FDF785FD0022C0212D4859
:104CB000FDF780FD4FF47F4002900120039000201B
:104CC0000490059002A92548FDF780FC0120029080
:104CD00000200390049002A94FF09040FDF776FC6D
:104CE00003200290204803900020049002A91D4850
:104CF000FDF76CFC0420029000200390049002A9B0
:104D00001848FDF763FC0420029001200390002066
:104D10000490059002A91248FDF758FCC0200290AB
:104D20000120039000200490059002A90D48FDF792
:104D30004DFC00220E210620FDF7C6FD0620FDF7E2
:104D4000AFFD00220F210720FDF7BEFD0720FDF774
:104D5000A7FD07B000BD0000001002400008004899
:104D6000000C0048000400480000211000B587B086
:104D7000002003900490059006900090019002900E
:104D80001448154908604F2048600021124881608E
:104D900042F21071C160002101618161FEF7EDFCFA
:104DA00008B1FCF7D3FC4FF48050039003A90A48E4
:104DB000FEF73CFD08B1FCF7C9FC00200090029012
:104DC00069460548FEF77CFC08B1FCF7BFFC07B05C
:104DD00000BD0000000400401828002010B518484D
:104DE000184908604FF4165048600021154881604A
:104DF000C16001610C21416100218161C1610162D9
:104E0000416200200F4988620846FFF755F908B152
:104E1000FCF79CFC00210B48FEF798FF08B1FCF75B
:104E200095FC00210748FEF762FF08B1FCF78EFCF5
:104E30000448FEF7B8FE08B1FCF788FC10BD00007E
:104E4000003801406428002000BFFEE700BFFEE7F5
:104E50007047000070B5164DED6805F00304144D61
:104E6000ED68C5F303156B1C022C0CD0032C09D183
:104E7000104DB5FBF3F50E4EF668C6F3062605FB9E
:104E800006F10AE000BF0C4DB5FBF3F5084EF668DD
:104E9000C6F3062605FB06F100BF00BF044DED6812
:104EA000C5F341656D1C6A00B1FBF2F070BD0000F6
:104EB0000010024000366E010024F40000B501210C
:104EC0000020FFF72DFD4FF47A70FCF77AFB0021EC
:104ED0000120FFF725FD41F290711020FFF720FD22
:104EE0004FF41C516020FFF71BFD01216120FFF7EB
:104EF00017FD02214620FFF713FD48F21001132091
:104F0000FFF70EFD48F2FE011220FFF709FD4FF4F6
:104F1000A0610220FFF704FD41F230010320FFF7FA
:104F2000FFFC40F203313020FFF7FAFC40F203317E
:104F30003120FFF7F5FC40F203313220FFF7F0FC9F
:104F40004FF440713320FFF7EBFC03213420FFF7CF
:104F5000E7FC40F203313520FFF7E2FC1421362054
:104F6000FFF7DEFC40F203313720FFF7D9FC40F2B7
:104F700003313820FFF7D4FC40F203313920FFF72A
:104F8000CFFC4FF440713A20FFF7CAFC03213B20CD
:104F9000FFF7C6FC40F203313C20FFF7C1FC4FF4A1
:104FA000A0513D20FFF7BCFC4FF400719220FFF7A9
:104FB000B7FC40F203319320FFF7B2FC40F60D013D
:104FC0009020FFF7ADFC41F218010320FFF7A8FC89
:104FD00040F273110720FFF7A3FC00BD10B543F2A8
:104FE0000801E320FFF79CFC1221E720FFF798FC63
:104FF00041F23121EF20FFF793FC00210120FFF760
:105000008FFC4FF4E0610220FFF78AFC41F230018F
:105010000320FFF785FC00210420FFF781FC40F20C
:1050200007210820FFF77CFC00210920FFF778FC0E
:1050300000210A20FFF774FC00210C20FFF770FC10
:1050400000210D20FFF76CFC00210F20FFF768FC0A
:1050500000211020FFF764FC07211120FFF760FCFE
:1050600000211220FFF75CFC00211320FFF758FC01
:10507000C820FDF787FA41F290611020FFF750FC3D
:1050800040F227211120FFF74BFC3220FDF77AFA7E
:105090001D211220FFF744FC3220FDF773FA4FF474
:1050A00000611320FFF73CFC14212920FFF738FC96
:1050B0000B212B20FFF734FC3220FDF763FA00218F
:1050C0002020FFF72DFC00212120FFF729FC0721DC
:1050D0003020FFF725FC40F207713120FFF720FC5C
:1050E00006213220FFF71CFC40F204713520FFF747
:1050F00017FC41F604713620FFF712FC042137201B
:10510000FFF70EFC00213820FFF70AFC40F2067181
:105110003920FFF705FC40F201713C20FFF700FC4D
:105120000F213D20FFF7FCFB00215020FFF7F8FB8B
:10513000EF215120FFF7F4FB00215220FFF7F0FB95
:1051400040F23F115320FFF7EBFB4FF41C5160205E
:10515000FFF7E6FB01216120FFF7E2FB00216A2057
:10516000FFF7DEFB00218020FFF7DAFB0021812022
:10517000FFF7D6FB00218220FFF7D2FB002183201E
:10518000FFF7CEFB00218420FFF7CAFB002185201A
:10519000FFF7C6FB10219020FFF7C2FB00219220F1
:1051A000FFF7BEFB03219320FFF7BAFB4FF4887192
:1051B0009520FFF7B5FB00219720FFF7B1FB0021F9
:1051C0009820FFF7ADFB41F218010320FFF7A8FB81
:1051D00040F273110720FFF7A3FB10BD10B5FFF7D6
:1051E00049F95F20FFF708F9FFF778F9FFF7DCF8D6
:1051F0000446FFF728F9FFF757F9204610BD10B510
:105200000446FFF737F95E20FFF7F6F8FFF766F977
:105210002046FFF7F1F8FFF761F9FFF745F910BDF8
:1052200030B10849096841F04001064A116007E0C1
:1052300004491031096841F04001024A10321160FE
:10524000704700001804004810B580210348FDF79E
:10525000A9FA012800D110BD0020FCE70004004895
:1052600000B585B014216846FBF76CF980200090EA
:10527000002001900120029002200390694602481C
:10528000FDF7A4F905B000BD0004004830B108499D
:10529000096841F08001064A116007E004491031B5
:1052A000096841F08001024A103211607047000025
:1052B0001804004800B585B014216846FBF742F990
:1052C0008020009011200190002002900220039085
:1052D00069460248FDF77AF905B000BD00040048B0
:1052E000704710B5FDF772FA10BD00B5A5B03821B2
:1052F00017A8FBF727F9142112A8FBF723F944217B
:1053000001A8FBF71FF94FF40070FDF72FFB0120F8
:1053100017900004189002201E9003211F9117A8D7
:105320004162142181620221C16201634163FDF780
:10533000F3FE08B1FCF70AFA0F2012900320139035
:105340000020149015901690022112A8FDF75CFD24
:1053500008B1FCF7FBF948F201000190002002902F
:105360004FF00050109001A8FDF796FB08B1FCF734
:10537000EDF925B000BD00000348006840F470005E
:10538000014908607047000088ED00E010B5024850
:10539000FEF7E5FA10BD00001828002010B50268DD
:1053A000264B98420BD0B0F1804F08D0244B984246
:1053B00005D0244B984202D0234B984203D122F0CF
:1053C00070024B681A431D4B984214D0B0F1804FC5
:1053D00011D01B4B98420ED01A4B98420BD01A4B4F
:1053E000984208D0194B984205D0194B984202D0E8
:1053F000184B984203D122F44072CB681A4322F032
:1054000080034C6943EA040202608B68C3620B6844
:1054100083620A4B98420BD00B4B984208D00B4B3F
:10542000984205D00A4B984202D00A4B984201D1CB
:105430000B6903630123436110BD0000002C014090
:1054400000040040000800400034014000400140DA
:10545000004401400048014030B50C46816821F409
:105460007F4142EA032525432943816030BD000086
:105470000A468168034B194042F0070319438160D3
:10548000704700008FFFCFFF30B50B461446026A0D
:10549000056A25F001050562816921F0F00141EA04
:1054A000041122F00A021A438161026230BD30B554
:1054B0000B461446056A25F0100505628169026AEB
:1054C00021F4704141EA043122F0A00242EA0312C1
:1054D0008161026230BD000070B5456E2DB90125B5
:1054E000A0F86A50A0F868501CE00823082405685A
:1054F000AD68C5F342610568AD686A0F0A4DAD5CE1
:1055000015FB04F5094EB65C95FBF6F5A0F86A505C
:10551000054D6D5C15FB03F5044E765C95FBF6F5C9
:10552000A0F8685070BD0000026900080A69000810
:1055300090F8281001F0010139B10168496821F49F
:105540000031C26A11430268516090F8281001F0DE
:105550000201022907D10168496821F48031026BF8
:1055600011430268516090F8281001F004010429E9
:1055700007D10168496821F48021426B1143026818
:10558000516090F8281001F00801082907D101683E
:10559000496821F40041826B11430268516090F820
:1055A000281001F01001102907D10168896821F441
:1055B0008051C26B11430268916090F8281001F08D
:1055C0002001202907D10168896821F40051026C6B
:1055D00011430268916090F8281001F040014029C1
:1055E00013D10168496821F48011426C11430268AB
:1055F0005160416CB1F5801F07D10168496821F401
:10560000C001826C11430268516090F8281001F0CB
:105610008001802907D10168496821F40021C26C0A
:10562000114302685160704738B504460020C4F841
:105630008C00FDF7C5F805462068006800F00800FA
:1056400008280CD16FF07E402B4600224FF4001149
:105650000090204600F01EFB08B1032038BD2068F2
:10566000006800F0040004280CD16FF07E402B4647
:1056700000224FF480010090204600F00BFB08B19F
:105680000320EBE72020C4F88400C4F88800002041
:10569000E06600BF84F8800000BF00BFDEE770B5A1
:1056A0000546AC6A0020A4F85E00A4F85600204627
:1056B000FEF77DFB70BD2DE9F0410546AC6AD4F8DC
:1056C0008460D4F888702068806800F080008028AA
:1056D00007D1212E05D10020A4F85600204600F065
:1056E000B2F82068806800F04000402807D1222FDF
:1056F00005D10020A4F85E00204600F075F8D4F82B
:105700008C0040F01000C4F88C002046FEF74FFBE0
:10571000BDE8F08170B50546AC6A2868006800F005
:10572000200000BB0020A4F85E002068006820F480
:105730008070216808602068806820F0010021687E
:1057400088602068806820F0400021688860202000
:10575000C4F88800E06E012805D12068006820F0B8
:10576000100021680860E06E012805D1B4F85C10D3
:105770002046FEF773FA02E02046FEF78BFD70BD6F
:1057800070B50546AC6AE06E012806D1B4F85C003D
:1057900041082046FEF762FA02E02046FEF78CFD43
:1057A00070BD70B50546AC6A2868006800F020003E
:1057B00078B90020A4F856002068806820F08000A6
:1057C000216888602068006840F040002168086017
:1057D00002E02046FEF7CEFD70BD70B50446A56A16
:1057E0002846FEF7C8FD70BD0168096821F4907174
:1057F0000268116001688968094A11400268916075
:10580000C16E012905D10168096821F01001026803
:1058100011602021C0F888100021C166016770471F
:10582000FEFFFFEF10B504462068006820F040003E
:10583000216808602020C4F88400002060672046AA
:10584000FEF798FD10BD0168096821F0C0010268EB
:1058500011600168896821F40001026891602021CB
:10586000C0F88410704700002DE9FE4F0446002068
:105870000290D6492068884200D100E000BF21692B
:10588000A068084361690843E16940EA01082068AB
:105890000068CF49084040EA080021680860206895
:1058A000406820F44050E168084321684860D4F81B
:1058B0001880C6492068884202D0206A40EA080859
:1058C00020688068C349084040EA08002168886071
:1058D0002068C06A20F00F00616A08432168C8622E
:1058E00000BFBD492068884216D1BC48006800F05E
:1058F000030030B1012808D0022804D0032808D1C1
:1059000005E0012507E0022505E0042503E0082560
:1059100001E0102500BF6FE0B1492068884216D130
:10592000AE48006800F00C0030B1042808D0082808
:1059300004D00C2808D105E0002507E0022505E089
:10594000042503E0082501E0102500BF54E0A54927
:105950002068884216D1A148006800F0300030B1BC
:10596000102808D0202804D0302808D105E00025D0
:1059700007E0022505E0042503E0082501E01025E5
:1059800000BF39E098492068884216D193480068E2
:1059900000F0C00030B1402808D0802804D0C028D2
:1059A00008D105E0002507E0022505E0042503E015
:1059B000082501E0102500BF1EE0844920688842C8
:1059C00019D18648006800F4406048B1B0F5806F96
:1059D0000AD0B0F5006F05D0B0F5406F08D105E0F2
:1059E000002507E0022505E0042503E0082501E085
:1059F000102500BF00E0102500BF744920688842D0
:105A00005DD135B1022D08D0042D08D0082D0DD15F
:105A100009E0FDF711FB06460CE0744E0AE0FDF7C5
:105A20002FFB064606E04FF4004603E00026012067
:105A3000029000BF00BF002E10D06D49606A31F89F
:105A40001000B6FBF0F9606800EB4000484503D851
:105A500060680003484502D201200290AAE0644930
:105A6000606A31F810C06246002330461946FAF7E2
:105A70002FFC4FF4807C00220B46A0FB0C1B03FB89
:105A80000CB300FB0233606840088C461CEB00003E
:105A900043EB0201CDE90001D4F804C062460023C3
:105AA000FAF716FC0746B7F5407F05D3B7F5801F18
:105AB00002D22068C7607DE0012002907AE0E069B0
:105AC000B0F5004F40D1092D17D2DFE805F00509E8
:105AD0000D160F1616161300FDF7AEFA064610E067
