:020000040800F2
:10000000F806002079020008EF180008EF13000836
:10001000ED1800087F0300083D1D000800000000E7
:10002000000000000000000000000000791B000834
:100030008103000800000000F11800087B1B000885
:10004000930200089302000893020008930200083C
:10005000930200089302000885030008F5030008D6
:10006000930200089302000893020008930200081C
:10007000930200089302000893020008930200080C
:100080009302000800000000930200089302000899
:1000900093020008930200089302000893020008EC
:1000A00093020008930200089302000893020008DC
:1000B00093020008011C0008930200089302000844
:1000C00093020008930200089302000893020008BC
:1000D00093020008930200089302000893020008AC
:1000E000930200089302000893020008930200089C
:1000F0009302000893020008930200080000000029
:1001000000000000930200080000000093020008B5
:100110009302000800000000930200089302000808
:10012000930200089302000893020008930200085B
:100130009302000800000000000000009302000885
:100140009302000893020008000000000000000075
:10015000000000000000000000000000000000009F
:1001600000000000000000000000000093020008F2
:1001700093020008000000000000000000000000E2
:1001800000000000930200080000000000000000D2
:10019000000000000000000000000000000000005F
:1001A0000000000000000000930200089302000815
:1001B0009302000893020008930200080000000068
:1001C0000000000093020008000000000000000092
:1001D000930200089302000800F002F800F03CF8D7
:1001E0000AA090E8000C82448344AAF10107DA4592
:1001F00001D100F031F8AFF2090EBAE80F0013F0A8
:10020000010F18BFFB1A43F0010318471C2F000011
:100210003C2F0000103A24BF78C878C1FAD85207A2
:1002200024BF30C830C144BF04680C607047000070
:100230000023002400250026103A28BF78C1FBD8EF
:10024000520728BF30C148BF0B6070471FB501F08F
:100250000DFE1FBD10B510BD00F058F81146FFF798
:10026000F5FF01F0E1FD00F076F803B4FFF7F2FFCF
:1002700003BC00F07DF800000948804709480047AA
:10028000FEE7FEE7FEE7FEE7FEE7FEE7FEE7FEE746
:10029000FEE7FEE704480549054A064B70470000A3
:1002A000F11B0008D9010008F8000020F806002022
:1002B000F8020020F80200204FF0000200B51346BB
:1002C00094469646203922BFA0E80C50A0E80C5076
:1002D000B1F12001BFF4F7AF090728BFA0E80C5027
:1002E00048BF0CC05DF804EB890028BF40F8042B20
:1002F00008BF704748BF20F8022B11F0804F18BF8D
:1003000000F8012B7047704770477047754600F042
:100310002BF8AE4605006946534620F00700854697
:1003200018B020B5FFF7B6FFBDE820404FF000063B
:100330004FF000074FF000084FF0000BAC46ACE860
:10034000C009ACE8C009ACE8C009ACE8C00921F0BC
:1003500007018D46704710B50446AFF30080204674
:10036000BDE81040FFF781BF004870471000002033
:1003700001491820ABBEFEE7260002007047FEE7E9
:1003800070470000B0B54FF6FF7001F055F80FA1AF
:10039000002001F0BBF801246FF027050BE0002CD2
:1003A0000CBF0020FF2001F021FD642000F05EF86A
:1003B000013584F00104002DF1D1012000F068F82E
:1003C0004FF6FF70BDE8B04001F036B8202020495C
:1003D00020616D206120686967686572206C6576B0
:1003E000656C20696E746572727570742E202020A1
:1003F00020000000B0B54FF6FF7001F01DF810A10D
:10040000002001F083F801256FF03B040DE0E8B215
:1004100001F0ECFC642000F029F8280604F1010446
:100420004FF0010058BF68000546002CEFD10220B4
:1004300000F02EF84FF6FF70BDE8B04000F0FCBFB2
:100440002020204920616D2061206C6F772D6C6524
:1004500076656C20696E746572727570742E2020DA
:1004600020200000EFF3108072B6FEE7B0B504461E
:1004700000F0E6F805469048611C406818BF044447
:1004800000F0DEF8401BA042FAD3B0BD7047000078
:1004900003490A68024214BF08607047FFF7F6BFBD
:1004A000140401402DE9F84F5A4A4FF006094FF065
:1004B000000B4FF0010A4FF0000C904200F138425F
:1004C00008BF4FF005094FEAB223052B38BF4FEAAA
:1004D000B22900220D6835FA02F408BFBDE8F88F92
:1004E0000AFA02F415EA040800F086804D68122D1D
:1004F00000F288800AFA05F717F0061F00F08280E4
:100500000323D0F808E0CE6803FA0CF72EEA0703BD
:1005100006FA0CF66FEA070E570033438360C5F303
:10052000001346689340A64333434360C3688E6814
:1005300003EA0E03BE403343C36045F01003122BA1
:1005400011D10BF01C030F2404FA03F66FF003041F
:1005500004EA520505442C6AB4430E6906FA03F313
:1005600023432B624D68046805F00303BB4004EA93
:100570000E073B430360EB003ED5294B264C294D2B
:100580000BF00C061F461B68AE4643F001033B60B0
:100590003B6803F00103009322F00303009F234410
:1005A0005F590F25B54009FA06F6AF43374343F8C4
:1005B0000E7023684E6843EA0807F50358BF23EA24
:1005C00008072760B503636843EA080758BF23EAB2
:1005D00008076760F502A36843EA080758BF23EAE3
:1005E00008070E4BA760B6021D461B6843EA0807C2
:1005F00058BF23EA08072F600BF1040B0CF1020C23
:10060000013267E70323674603FA0CF46FEA040E2E
:100610008CE700BF00140048000401400C040140B6
:100620006010024008FCFFFF0069084018BF01206D
:1006300070471823002A08BF2823C15070470000C4
:1006400005480068704700BF1B48034940680A68B6
:1006500010440860704700BFF400002010B503206C
:1006600000F072F80120012400F006F810B900F043
:1006700025F80024204610BD70B50F4E0446706862
:10068000B0B14FF47A71B1FBF0F0DE490968B1FB0B
:10069000F0F000F00FFC01250F2C0AD848B94FF0FC
:1006A000FF3021460022002500F030F8346000E0E1
:1006B0000125284670BD00BF0000002082B00B4815
:1006C000816841F001018160816801F001010191BF
:1006D0000199016841F080510160006800F080508C
:1006E0000090009802B000F095B800BF581002408A
:1006F000002808DB00F01F010122400902FA01F185
:10070000014A42F82010704700E100E080B5144B28
:100710001B68C3F3022CBCF1030E8CF007034FF0EF
:10072000FF3C38BF4FF0000E042B28BF04230CFA07
:1007300003F399430CFA0EF301FA0EF19A431143B5
:10074000BDE8804001F0FCBA05494FF6FF030A6896
:100750001A4060F30A22034810430860704700BF44
:100760000CED00E00000FA0520B32849B0F5007F49
:100770000A6845D1D1F8800040F48070C1F880004B
:1007800002F4C060B0F5806F3ED10868012262F3C8
:100790004A20322208609B48006850431C4AB0FB44
:1007A000F2F0C0434A6918B1013012F48062F9D105
:1007B000486920E015480168D0F8802001F4C06144
:1007C00022F48072B1F5806FC0F880201CD10168DE
:1007D000012262F34A21322201608A4909685143A9
:1007E0000B4AB1FBF2F1C943426919B1013112F46C
:1007F0008062F9D14069400544BF0320704703E09F
:10080000022060F34A220A60002070470070004016
:1008100040420F000248016841F480410160704786
:10082000087000402DE9F047002854D0724B044670
:100830000D46186800F00F00884209D2186820F0B1
:100840000F0028431860186800F00F00A84242D13A
:100850002068864E9A46C107B14602D14FF0000883
:100860006BE06168032930D156F8081C890132D544
:100870007168726873687768B4460226C7F3416787
:1008800001F0030106EB4707794E032904BF43F249
:100890000066C0F26E16C2F30311C3F306220131E3
:1008A000B6FBF1F15143554AB1FBF7F1914224D91E
:1008B000DCF80010664611F0F00F16D0800701D565
:1008C000A06890B14FF000081AE056F8080C022911
:1008D00004D1800304D40120BDE8F0874005FAD597
:1008E00000F094F845498842ECD9306808214FF06F
:1008F000800861F30710306002E04FF000086646A0
:100900003068616820F0030008433060FFF798FE0C
:10091000064641F288374846D9F80000616800F081
:100920000C00B0EB810F05D0FFF78AFE801BB842A8
:10093000F1D939E020684E465346810706D4B8F114
:10094000800F16D1316821F0F00111E0410742BF5C
:10095000316841F4E0613160010704D53168072254
:1009600062F30D2131603168A26821F0F00111437A
:100970003160196801F00F01A9421AD9186820F0F6
:100980000F0028431860FFF75BFE064641F28837E8
:100990005046DAF8000000F00F00A84207D0FFF739
:1009A0004FFE801BB842F3D90320BDE8F0872068D2
:1009B0004E46410705D53168E26821F4E0611143F4
:1009C0003160000706D53068216920F4605040EAA4
:1009D000C100306000F01AF83168094AC1F3031110
:1009E000515C01F01F01C8400649086006480068D4
:1009F000BDE8F047FFF740BE0020024000B4C40449
:100A0000861E00080C000020000000201749184A2C
:100A1000086800F00C000428104608BF70470868FA
:100A200000F00C031348082B1ED00B6803F00C03D6
:100A30000C2B1CBF002070474B6803F00303032BF3
:100A400008BF02464868C0F303100130B2FBF0F063
:100A50004A68C2F30622496850430222C1F3416149
:100A600002EB4101B0FBF1F0704700BF08100240FB
:100A70000024F40000366E012DE9FC41002800F04E
:100A8000AA8104460078DF4EC0071ED12078800777
:100A900047D42078000740F19A806169D6F8940025
:100AA000002900F0838040F00100C6F89400FFF7B1
:100AB000C7FD0546D6F89400800700F18880FFF74F
:100AC000BFFD401B0228F5D9C9E0B168F06801F00C
:100AD0000C0108294BD0032281F00C0122EA00000E
:100AE0000844B0FA80F0400941D16768B7F5803F0B
:100AF00007D03068B7F5A02F40F0CC8040F48020BC
:100B00003060306840F480303060FFF799FD054672
:100B100030688003BAD4FFF793FD401B6428F7D9EF
:100B20009DE0B068F16800F00C00042828D001F0C6
:100B3000030180F00C0081F002010844B0FA80F05B
:100B400040091DD1E1683068002900F08A8040F436
:100B500080703060FFF774FD05463068400500F195
:100B60009180FFF76DFD401B0228F6D977E03068D1
:100B700080037FF58BAF606800287FF487AF2AE1A0
:100B80003068400503D5E068002800F024817068D3
:100B9000216920F0FE4040EA01607060C0480068B2
:100BA000FFF76AFD002840F0168172E720F001008F
:100BB000C6F89400FFF744FD0546D6F89400800778
:100BC00005D5FFF73DFD401B0228F6D947E0207808
:100BD000400740F19A80B06DC0000BD4B06D4FF06B
:100BE000010840F08050B065B06D00F08050019079
:100BF000019801E04FF00008AA4F3868C0050FD4F3
:100C0000386840F480703860FFF71AFD0546386890
:100C1000C00505D4FFF714FD401B0228F7D91EE0DC
:100C2000A768012F07D0D6F89000052F4AD140F0D1
:100C30000400C6F89000D6F8900040F00100C6F815
:100C40009000FFF7FDFC054641F28837D6F890008A
:100C5000800753D4FFF7F4FC401BB842F6D90320B9
:100C6000BAE020F480703060FFF7EAFC0546306897
:100C700040057FF50EAFFFF7E3FC411B032002297F
:100C8000F5D9A9E07068216920F0FE4040EA0160D2
:100C90007060FEE620F480303060306820F4802000
:100CA0003060FFF7CDFC0546002F7FF431AF306890
:100CB00080037FF5EBAEFFF7C3FC411B03206429E3
:100CC000F5D989E020F00100C6F89000D6F8900030
:100CD00020F00400C6F89000FFF7B2FC0546002F94
:100CE000B2D141F28837D6F89000800706D5FFF7D9
:100CF000A7FC411B0320B942F5D96DE0B8F1000F04
:100D00001EBFB06D20F08050B0652078800627D5DA
:100D1000A169D6F8980089B140F00100C6F89800A2
:100D2000FFF78EFC0546D6F89800800718D4FFF729
:100D300087FC411B03200229F5D94DE020F001007A
:100D4000C6F89800FFF77CFC0546D6F898008007A7
:100D500006D5FFF775FC411B03200229F5D93BE0BE
:100D6000E069002800F09A80B16801F00C010C29BC
:100D700035D101282FD0F068216A00F003028A42A1
:100D800029D1616A6FF00F0202EB011100F0F0024D
:100D90008A4220D1A16A00F4FE42B2EB012F1AD19F
:100DA000E16A00F07842B2EBC16F14D1216B404A86
:100DB00002EA015100F4C002A1F500118A420AD1F1
:100DC000616B4FF07E4200F0C06002EA016101F108
:100DD0007E41884262D0012002B0BDE8F0813168D6
:100DE000022821F0807131600ED1FFF729FC054601
:100DF000306880011DD5FFF723FC411B0320022929
:100E0000F6D9E9E700100240F068274920F0030016
:100E1000F060F0680840F060FFF712FC04463068AC
:100E200080013BD5FFF70CFC011B03200229F6D9FA
:100E3000D2E704F12007F0686FF00F058ECF05EBC5
:100E400002121A4D28400843216B1043184A40EA09
:100E5000032002EA01514FF07E42A1F50011084340
:100E6000616B40EAC76002EA016101F17E4108431B
:100E7000F060306840F080703060F06840F0807062
:100E8000F060FFF7DDFB04463068800106D4FFF711
:100E9000D7FB011B03200229F6D99DE700209BE721
:100EA0000000002000700040FFFFEEFE0C809F015C
:100EB0000000E0FF411E0020B0EB116F1CBF0120BD
:100EC0007047044AF023516003490B70072190607A
:100ED0001160704710E000E023ED00E070477047BC
:100EE000704770477047704790F83C300222012BE2
:100EF00037D070B580F83D2001221B4D80F83C2092
:100F0000026854689368AA4202D0184EB24203D1D4
:100F10004E6824F470043443154EB2F1804F06EA53
:100F200004060C6846EA040656600DD0394CA2420D
:100F30000AD0104CA24207D00C4CA24204D00E4C56
:100F4000A24201D0AA4204D1896823F08003194348
:100F500091600022012180F83C2080F83D10BDE81E
:100F600070401046704700BF00340140002C014023
:100F70008FFFFFFD0008004000400140704760B354
:100F800010B5044690F83D0028B9002084F83C00D4
:100F9000204600F025F80220211D84F83D0020683D
:100FA00000F034FE012084F8480084F83E0084F804
:100FB0003F0084F8400084F8410084F8420084F83F
:100FC000430084F8440084F8450084F8460084F81F
:100FD000470084F83D00002010BD0120704700004C
:100FE00000680C49884218BF7047E0B50A480022E3
:100FF000016841F0020101600021006800F0020078
:10100000019001981D20FFF781FB1D20BDE88C4059
:10101000FFF76EBB0004004058100240B0B590F8D6
:101020003C2004460220012A08BFB0BD84F83D00E0
:1010300001203D4D84F83C002068024652F8083FEC
:101040002B4013600B6873B3102B2CD0202B2AD0AD
:10105000302B28D0402B34D0502B3ED0602B48D0A2
:10106000324883421FD0B3F5005F4ED0B3F1101F5A
:1010700019D02F48834216D02E48834213D02E48D1
:10108000834210D0702B15D1D1E90103C9681843F0
:1010900040EA0120116821F47F4108431060106884
:1010A00040F0770005E0106824490840184340F0FC
:1010B000070010600020012184F83C0084F83D10F6
:1010C000B0BD4B68CA68194600F016FE22681B497D
:1010D00052F8080F08404730EBE74B68CA681946DA
:1010E00000F00AFE2268154952F8080F08405730F0
:1010F000DFE74B68CA68194600F00FFE22680F4907
:1011000052F8080F08406730D3E7D1E90103C968F6
:10111000184340EA0120116821F47F410843106020
:10112000106840F48040C4E78800CEFF70001000D3
:1011300020001000300010004000100088FFCFFF9A
:10114000704710B5044600680169890744BFC1684B
:101150005FEA81715BD40169490744BFC1685FEAF6
:10116000417160D40169090744BFC1685FEA017138
:1011700066D40169C90644BFC1685FEAC1616BD426
:101180000169C9071CBFC1685FEAC17171D10169FA
:10119000090644BFC1685FEA016172D40169C905EB
:1011A00044BFC1685FEA016173D40169490644BF65
:1011B000C1685FEA416174D40169890644BFC168AE
:1011C0005FEA816175D40169C90244BFC1685FEA01
:1011D000C12176D40169890244BFC1685FEA8121D7
:1011E00077D40169490244BFC1685FEA412178D4DC
:1011F0000169090246BFC1685FEA012110BD6FF4B1
:10120000000101612046BDE81040FFF7B7BE6FF056
:1012100002010161012121778069800769D02046A0
:10122000FFF78EFF6BE06FF004010161022121776F
:10123000806910F4407F66D02046FFF781FF68E0A8
:101240006FF00801016104212177C069800764D033
:101250002046FFF775FF66E06FF01001016108217D
:101260002177C06910F4407F61D02046FFF768FF06
:1012700063E06FF001010161204600F065F820682D
:1012800085E76FF0800101612046FFF728FE2068A6
:1012900084E76FF4807101612046FFF71FFE20682C
:1012A00083E76FF040010161204600F09FF820685D
:1012B00082E76FF0200101612046FFF711FE2068F0
:1012C00081E76FF4801101612046FFF70BFE206873
:1012D00080E76FF4001101612046FFF702FE2068ED
:1012E0007FE76FF4800101612046FFF7FCFD206875
:1012F0007EE7204600F025F8204600F023F8002085
:101300002077206827E7204600F01BF8204600F0F1
:1013100019F800202077206824E7204600F011F813
:10132000204600F00FF800202077206821E72046B3
:1013300000F007F8204600F005F80020207720682C
:101340001EE77047704700002DE9F041674C0068C8
:1013500004F17841884201D0BDE8F081214F204658
:1013600001210125B847204E02214FF0020870707C
:101370002046B847707320460421B84770764FF076
:1013800090400121B84786F825000020002130292F
:1013900008BFBDE8F081725C022A08D0012A10D093
:1013A000F2B972185378DBB97554506018E07218AE
:1013B0005378012B0DD170545368452B98BF95700D
:1013C0000EE072185278002A14BF705406F801809B
:1013D00006E0536801335360462B24BF7054956078
:1013E0000C31D4E729060008C40000207047FEE74E
:1013F000FEB503204FF6FF7104900020029001918A
:10140000059003900B4801A9FFF74CF806B080BD8A
:10141000FEB5032001A90490012002904FF6FF7051
:1014200001900020059003900248FFF73BF806B0BA
:1014300080BD00BF00080048B0B504460020002170
:1014400000F00CF900F03CF94FF4963503E020462B
:1014500000F010F9013D002DF9D1B0BDF0B587B015
:1014600000262148214C012702AD0696016841F073
:1014700004010160016801F0040101910199016812
:1014800041F001010160016801F001010191019940
:10149000016841F0020101602946006800F0020085
:1014A00001900198059603974FF4487002902046EA
:1014B0000496FEF7F7FF4FF48070059603972946D0
:1014C00002904FF090400496FEF7ECFFFFF7A0FF6C
:1014D0000748215841F480712150A06940F40870F8
:1014E000A06107B0F0BD00BF4C10024000040048EE
:1014F00018FCFFFF203AD3B25B0053FA82F2024B92
:1015000003EB021200F016B8961E0008F8B50C4660
:10151000054640F23F16002709E0E25D002A08BFB9
:10152000F8BDB1B22846FFF7E5FF0137103E132F93
:10153000F3D9F8BD2DE9F84F14468846814600F0EE
:101540008DF8DFF850A0DFF848B000270125182FEC
:1015500008BFBDE8F88F00F0B3F800260CE034F8BF
:10156000170005FA06F1014214BFBBF80000BAF8F3
:10157000000000F07FF80136102EF0D109F10109CA
:1015800041465FFA89F000F069F80137DFE700BFF4
:10159000700000200800002010B5FFF75FFF00205A
:1015A00000F014F8084C48F230212080208888424E
:1015B00002D100F09FF901E000F012FA002000F0E3
:1015C00005F8208010BD00BF74000020B0B5214C8C
:1015D000D4F8101441F40071C4F81014D4F81014A5
:1015E00041F48071C4F81014D4F8001441F02001C3
:1015F000C4F8001418490860D4F8100440F0200022
:10160000C4F8100400BF00BF00BFD4F8000440F0CD
:101610002000C4F80004D4F8000440F48070C4F83A
:101620000004FFF7E5FE206940F48070206100BFF0
:1016300000BF00BFD4F8F857206840F480702060E5
:10164000FFF7E6FED4F8000440F40070C4F800048C
:10165000A8B2B0BD180000481408004810B50C46E8
:101660000146202000F054F821202146BDE810401A
:1016700000F04EB83E490A6942F400720A610A68F5
:1016800042F480720A600A6842F020020A60C1F8DF
:10169000FC03086940F02000086100BF00BF00BFE4
:1016A000086840F020000860086840F48070086016
:1016B00000BF00BF00BF086840F4007008607047BA
:1016C0002B48016941F400710161016941F48071A5
:1016D0000161016841F0200101602221C0F8FC1382
:1016E000016941F02001016100BF00BF00BF016836
:1016F00041F020010160016841F48071016000BF88
:1017000000BF00BF016841F400710160704700BF75
:10171000174A136943F400731361136943F4807328
:101720001361136843F020031360C2F8FC031069CF
:1017300040F02000106100BF00BF00BF106840F003
:1017400020001060106840F480701060C2F8FC1334
:10175000106940F02000106100BF00BF00BF10689A
:1017600040F020001060106840F4807010607047F6
:10177000180400482DE9F04F87B000243E483F4E42
:1017800001224FF47F454FF001080694016806F5E9
:10179000806741F004010160016801F004010191DA
:1017A0000199016841F020010160016801F0200108
:1017B00001910199016841F001010160016801F0A6
:1017C000010101910199016841F002010160016884
:1017D00001F0020101910199016841F008010160E5
:1017E0004FF47F41006800F00800019001983846EE
:1017F000FEF71FFF06F5006A04210022B3464FF0F2
:1018000004095046FEF715FFCDE90444CDE902581E
:1018100002AE1B4D38463146A8474FF09040314646
:101820000494CDE90284A8471648049431460390F5
:10183000032002905846A847584631460494CDE903
:101840000294A84750463146CDE90444CDE90298B8
:10185000A84706200E210022FEF758FF0620FEF7BB
:1018600047FF07200F210022FEF750FF0720FEF759
:101870003FFF07B0BDE8F08F4C1002400004004865
:10188000A50400080000211010B588B0DE48164CF1
:10189000002142F210724F23CDE90611CDE9041167
:1018A0008161C0E90043C0E9021201610391CDE901
:1018B0000111FFF764FB08B1FEF7D4FD4FF480502F
:1018C00004A90490D048FFF7A9FB08B1FEF7CAFDB0
:1018D000002001A903900190CB48FFF705FB08B158
:1018E000FEF7C0FD08B010BD00040040FEE7FEE7B3
:1018F0007047000010B59E4C00200121A047012038
:101900000021A047102041F29071A04760204FF4C1
:101910001C51A04761200121A04746200221A04779
:10192000132048F21001A0472C48EE3081B212205B
:10193000A04702204FF4A061A047032041F23001EC
:10194000A047302040F20331A047312040F203315C
:10195000A047322040F20331A04733204FF44071BA
:10196000A04734200321A047352040F20331A0478F
:1019700036201421A047372040F20331A0473820F9
:1019800040F20331A047392040F20331A0473A200A
:101990004FF44071A0473B200321A0473C2040F278
:1019A0000331A0473D204FF4A051A04792204FF4AF
:1019B0000071A047932040F20331A047902040F6E9
:1019C0000D01A047032041F21801A047072040F273
:1019D00073112246BDE81040104700BF1080FFFF82
:1019E000B0B5634DE32043F20801A847E720122178
:1019F000A847EF2041F23121A84701200021A84744
:101A000002204FF4E061A847032041F23001A847CB
:101A100004200021A847082040F20721A8470920F8
:101A20000021A8470A200021A8470C200021A84730
:101A30000D200021A8470F200021A84710200021D9
:101A4000A84711200721A84712200021A8471320EA
:101A50000021A847474CC820A047102041F29061C0
:101A6000A847112040F22721A8473220A047122082
:101A70001D21A8473220A04713204FF40061A8473A
:101A800029201421A8472B200B21A8473220A0474A
:101A900020200021A84721200021A847302007212D
:101AA000A847312040F20771A84732200621A847F5
:101AB000352040F20471A847362041F60471A8474A
:101AC00037200421A84738200021A847392040F2B8
:101AD0000671A8473C2040F20171A8473D200F2124
:101AE000A84750200021A8475120EF21A8475220A5
:101AF0000021A847532040F23F11A84760204FF42F
:101B00001C51A84761200121A8476A200021A8474D
:101B100080200021A84781200021A84782200021A1
:101B2000A84783200021A84784200021A8478520BA
:101B30000021A84790201021A84792200021A84703
:101B400093200321A84795204FF48871A847972038
:101B50000021A84798200021A847032041F218013E
:101B6000A847072040F273112A46BDE8B04010474D
:101B7000111700086D0400087047FEF765BDB0B589
:101B800094B006AC1421142504F10800FEF794FB70
:101B900001A81421FEF790FB4FF40070FEF7E4FD5E
:101BA0000220CDE91200CDE9105003250F95CDE9B3
:101BB0000D054FF480300790012006902046FEF777
:101BC0005BFF18B1EFF3108072B6FEE70020022130
:101BD000CDE90400CDE902500F20019001A8FEF7E5
:101BE00021FE18B1EFF3108072B6FEE714B0B0BD5D
:101BF0000248016841F470010160704788ED00E01F
:101C00000148FFF79EBA00BF78000020B0B5036816
:101C1000324DB0F1804F0AD0314A904207D0314A5C
:101C2000904204D0304A904201D0A84238D105F504
:101C3000C0544A6823F07003041BB4FA84F41343BD
:101C400005F5E0524FEA541E05F5A054821A041B14
:101C5000B2FA82F2B4FA84F452094FEA541CCC6806
:101C600023F4407323434C6923F08003002A43EAA2
:101C7000040303608B68C3620B6883620BD1BEF1FF
:101C8000000F08D1A84206D005F50062904202D0AC
:101C9000BCF1000F01D00969016301214161B0BDB0
:101CA00005F5C05405F5E052041B821AB4FA84F419
:101CB000B2FA82F24FEA541E05F5A0545209041BF1
:101CC000B4FA84F44FEA541C084CA042C7D0084C24
:101CD000A042C4D0074CA042C1D0C4E7002C0140B0
:101CE0000004004000080040003401400040014072
:101CF0000048014000440140D0F820C0036A23F0AE
:101D000001030362836923F0F00343EA0212826154
:101D10002CF00A02114301627047036A23F010039A
:101D20000362836923F4704343EA0232036A8261E7
:101D300023F0A00242EA011101627047FEE70000B1
:101D400010B5074C00F00F03044AB0F1FF3F2344E5
:101D5000C8BF83180801187010BD00BF00E400E080
:101D600014ED00E02DE9F84F89468246C0B289B2F1
:101D7000FFF774FC1C4C1B4D00260127602E08BF8A
:101D8000BDE8F88F164830F81680FFF799FC4FF041
:101D9000070B0AE007FA0BF010EA080F14BF2888B7
:101DA0002088FFF767FCABF1010BBBF1000FF1DA04
:101DB00006206FF00701B6FBF0F000EB4000A6EB49
:101DC0004000052808BF0AF1010A08BF28218944FC
:101DD0005FFA8AF01FFA89F1FFF740FC0136CDE780
:101DE00066300008720000200A00002070B50C4C1C
:101DF0000C4E05464FF6FF7101222046B0472902DE
:101E000020460022B04704F58064042101222046C8
:101E1000B0472046042100223346BDE870401847F1
:101E20000008004833060008FEF718FCFFF7A7FE7D
:101E3000FFF7A0FCFFF728FDFFF7AEFB4FF6FF70A2
:101E4000FFF7FAFA01250024182040F23F11FFF7AE
:101E500089FF6420FEF70AFB6E10B4EB650F08BF24
:101E60008026F0B2FFF7C2FF3546EDE7F1EE100A2B
:101E70004FF6FF71C0F2C03120EA010040F040701F
:101E8000E1EE100A704700000000000000000102AF
:101E9000030406070809000000000000000000001D
:101EA0000000000000000000000000000000000032
:101EB0000000000000000000000000000000000022
:101EC000000000000000000080018001800180010E
:101ED00080018001800180018001800180018001FA
:101EE000800100000000800180010000000000006F
:101EF00000000000000000000000CC00CC00CC007E
:101F0000CC00CC00CC00000000000000000000006D
:101F100000000000000000000000000000000000C1
:101F200000000000000000000000000000000000B1
:101F30000000600C600C600C30063006FE1FFE1FB7
:101F4000300638071803FE1FFE1F180318038C0104
:101F50008C018C01000000008000E003F80F9C0E53
:101F60008C1C8C188C009800F801E007800E801CF7
:101F70008C188C189C18B80CF00FE00380008000BF
:101F80000000000000000000000000000E181B0C04
:101F9000110C11061106110311039B018E01C038AB
:101FA000C06C60446044304430441844186C0C38B1
:101FB0000000000000000000E001F00338071806F0
:101FC00018063003F001F000F8009C310E33061EB5
:101FD000061C061C063FFC73F021000000000000F8
:101FE000000000000000000000000C000C000C00CD
:101FF0000C000C000C0000000000000000000000BD
:1020000000000000000000000000000000000000D0
:102010000000000000000000000200038001C0007A
:10202000C000600060003000300030003000300040
:1020300030003000300060006000C000C00080014F
:10204000000300020000000020006000C0008001CA
:1020500080010003000300060006000600060006DB
:102060000006000600060003000380018001C00096
:1020700060002000000000000000000000000000E0
:102080000000C000C000D806F807E00130033807A0
:102090000000000000000000000000000000000040
:1020A0000000000000000000000000000000000030
:1020B000000080018001800180018001FC3FFC3F25
:1020C000800180018001800180010000000000008B
:1020D0000000000000000000000000000000000000
:1020E00000000000000000000000000000000000F0
:1020F00000000000000000008001800100010001DC
:10210000800000000000000000000000000000004F
:102110000000000000000000000000000000E007D8
:10212000E0070000000000000000000000000000C8
:10213000000000000000000000000000000000009F
:10214000000000000000000000000000000000008F
:102150000000000000000000C000C00000000000FF
:102160000000000000000000000C000C000600064B
:10217000000600030003000380038001800180014A
:10218000C000C000C000600060000000000000004F
:102190000000000000000000E003F007380E180CFB
:1021A0000C180C180C180C180C180C180C180C180F
:1021B0000C18180C380EF007E003000000000000B7
:1021C000000000000000000000018001C001F001DB
:1021D00098018801800180018001800180018001D7
:1021E000800180018001800180010000000000006A
:1021F0000000000000000000E003F80F180C0C18AD
:102200000C1800180018000C000600038001C00024
:10221000600030001800FC1FFC1F000000000000E0
:102220000000000000000000E001F807180E0C0C90
:102230000C0C000C0006C003C007000C00180018AE
:102240000C180C18180CF807E00300000000000040
:102250000000000000000000000C000E000F000F46
:10226000800DC00C600C600C300C180C0C0CFC3F8A
:10227000FC3F000C000C000C000C000000000000F3
:102280000000000000000000F80FF80F1800180010
:102290000C00EC03FC071C0E001C001800180018B2
:1022A0000C181C0C180EF807E003000000000000DA
:1022B0000000000000000000C007F00F381C1818D4
:1022C00018000C00CC03EC0F3C0E1C1C0C180C1856
:1022D0000C18181C380EF007E00300000000000086
:1022E0000000000000000000FC1FFC1F000C0006A6
:1022F0000006000380038001C001C000E000600010
:10230000600070003000300030000000000000006D
:102310000000000000000000E003F007380E180C79
:10232000180C180C3806F007F007180C0C180C18CD
:102330000C180C18380CF80FE00300000000000027
:102340000000000000000000E003F007380E1C0C45
:102350000C180C180C181C1C381EF81BE01900185F
:10236000000C000C1C0EF807F0010000000000003B
:10237000000000000000000000000000000000005D
:10238000000080018001000000000000000000004B
:10239000000000000000800180010000000000003B
:1023A000000000000000000000000000000000002D
:1023B000000080018001000000000000000000001B
:1023C0000000000000008001800100010001800089
:1023D00000000000000000000000000000000000FD
:1023E0000000000000000010001C800FE003F80057
:1023F0001800F800E003800F001C0010000000002F
:1024000000000000000000000000000000000000CC
:10241000000000000000F81F000000000000F81F8E
:1024200000000000000000000000000000000000AC
:10243000000000000000000000000000000000009C
:1024400000000000000008003800F001C007001F75
:102450000018001FC007F00138000800000000004D
:102460000000000000000000E003F80F180C0C183A
:102470000C180018000C000600038001C000C0000A
:10248000C00000000000C000C0000000000000000C
:1024900000000000000000000000E0071818042001
:1024A000C229224A1144094409440944092211134A
:1024B000E20C024004201818E007000000000000B1
:1024C000000000000000000080038003C006C0067A
:1024D000C006600C600C301830183018F83FF83F18
:1024E0001C700C600C6006C006C0000000000000FC
:1024F0000000000000000000FC03FC0F0C0C0C1896
:102500000C180C180C0CFC07FC0F0C180C300C30C1
:102510000C300C300C18FC1FFC0700000000000001
:102520000000000000000000C007F01F38381C3019
:102530000C70066006000600060006000600060095
:1025400006600C701C30F01FE00700000000000067
:102550000000000000000000FE03FE0F060E06183B
:1025600006180630063006300630063006300630D3
:1025700006180618060EFE0FFE03000000000000FD
:102580000000000000000000FC3FFC3F0C000C00BD
:102590000C000C000C00FC1FFC1F0C000C000C00BD
:1025A0000C000C000C00FC3FFC3F00000000000091
:1025B0000000000000000000F83FF83F180018007D
:1025C000180018001800F81FF81F1800180018004D
:1025D0001800180018001800180000000000000083
:1025E0000000000000000000E00FF83F3C780E60A3
:1025F00006E007C00300030003FE03FE03C007C09C
:1026000006C00EC03CF0F83FE00F000000000000E4
:1026100000000000000000000C300C300C300C30CA
:102620000C300C300C30FC3FFC3F0C300C300C30CC
:102630000C300C300C300C300C300000000000006E
:102640000000000000000000800180018001800186
:102650008001800180018001800180018001800172
:1026600080018001800180018001000000000000E5
:102670000000000000000000000600060006000642
:10268000000600060006000600060006000600061A
:10269000180618063807F003E001000000000000EB
:1026A000000000000000000006300618060C0606B8
:1026B00006038601C60066007600DE008E01060372
:1026C0000606060C06180630066000000000000032
:1026D000000000000000000018001800180018009A
:1026E000180018001800180018001800180018002A
:1026F000180018001800F81FF81F00000000000064
:1027000000000000000000000EE01EF01EF01EF0B1
:1027100036D836D836D836D866CC66CC66CCC6C65F
:10272000C6C6C6C6C6C686C386C300000000000073
:1027300000000000000000000C301C303C303C3039
:102740006C306C30CC30CC308C310C330C330C36DC
:102750000C360C3C0C3C0C380C3000000000000027
:102760000000000000000000E007F81F1C380E7099
:10277000066003C003C003C003C003C003C003C09E
:1027800006600E701C38F81FE00700000000000013
:102790000000000000000000FC0FFC1F0C380C3093
:1027A0000C300C300C300C18FC1FFC070C000C001B
:1027B0000C000C000C000C000C00000000000000DD
:1027C0000000000000000000E007F81F1C380E7039
:1027D000066003E003C003C003C003C003C007E0FA
:1027E00006630E3F1C3CF83FE0F700C0000000000D
:1027F0000000000000000000FE0FFE1F063806303B
:10280000063006300638FE1FFE0706030606060CD5
:1028100006180618063006300660000000000000AA
:102820000000000000000000E003F80F1C0C0C1872
:102830000C180C001C00F803E00F001E00380630D6
:1028400006300E301C1CF80FE007000000000000EE
:102850000000000000000000FE7FFE7F800180017C
:102860008001800180018001800180018001800160
:1028700080018001800180018001000000000000D3
:1028800000000000000000000C300C300C300C3058
:102890000C300C300C300C300C300C300C300C3058
:1028A0000C300C301818F81FE00700000000000082
:1028B0000000000000000000036006300630063013
:1028C0000C180C180C18180C180C380E30063006A2
:1028D000700760036003C001C00100000000000039
:1028E00000000000000000000360C361C361C36119
:1028F0006633663366336633663366336C1B6C1B34
:102900006C1B2C1A3C1E380E380E00000000000014
:1029100000000000000000000FE00C7018303018BC
:10292000700C600EC00780038003C003E006700CCB
:10293000301C18180C300E6007E00000000000008A
:10294000000000000000000003C006600C301C38CE
:102950003818300C6006E007C00380018001800158
:1029600080018001800180018001000000000000E2
:102970000000000000000000FC7FFC7F00600030D1
:102980000018000C000600038001C0006000300049
:1029900018000C000600FE7FFE7F00000000000013
:1029A0000000000000000000E003E00360006000A1
:1029B0006000600060006000600060006000600017
:1029C0006000600060006000600060006000600007
:1029D000E003E00300000000300030006000600011
:1029E0006000C000C000C000C00180018001800103
:1029F00000030003000300060006000000000000C2
:102A00000000000000000000E003E00300030003FA
:102A1000000300030003000300030003000300039E
:102A2000000300030003000300030003000300038E
:102A3000E003E003000000000000C001C0016003EB
:102A40006003600330063006180C180C000000000C
:102A50000000000000000000000000000000000076
:102A60000000000000000000000000000000000066
:102A70000000000000000000000000000000000056
:102A80000000000000000000FFFFFFFF000000004A
:102A900000000000000000000C000C000C000C0006
:102AA0000C000C000000000000000000000000000E
:102AB0000000000000000000000000000000000016
:102AC0000000000000000000000000000000000006
:102AD0000000F003F8071C0C0C0C000FF00FF80CB2
:102AE0000C0C0C0C1C0FF80FF0180000000000007C
:102AF0000000000000000000180018001800180076
:102B00001800D803F80F380C1818181818181818C7
:102B100018181818380CF80FD8030000000000002F
:102B200000000000000000000000000000000000A5
:102B30000000C003F007300E180C18001800180031
:102B40001800180C300EF007C00300000000000051
:102B50000000000000000000001800180018001815
:102B60000018C01BF01F301C181818181818181857
:102B700018181818301CF01FC01B000000000000BF
:102B80000000000000000000000000000000000045
:102B90000000C003F00F300C1818F81FF81F1800C1
:102BA00018003818301CF00FC007000000000000AB
:102BB0000000000000000000800FC00FC000C00037
:102BC000C000F007F007C000C000C000C000C00097
:102BD000C000C000C000C000C00000000000000035
:102BE00000000000000000000000000000000000E5
:102BF0000000E00DF80F180E0C0C0C0C0C0C0C0C5B
:102C00000C0C0C0C180EF80FE00D000C0C0C1C0634
:102C1000F807F00100000000180018001800180064
:102C20001800D807F80F381C181818181818181892
:102C300018181818181818181818000000000000A4
:102C40000000000000000000C000C0000000000004
:102C50000000C000C000C000C000C000C000C00034
:102C6000C000C000C000C000C000000000000000A4
:102C70000000000000000000C000C00000000000D4
:102C80000000C000C000C000C000C000C000C00004
:102C9000C000C000C000C000C000C000C000C00034
:102CA000F8007800000000000C000C000C000C0084
:102CB0000C000C0C0C060C038C01CC006C00FC000E
:102CC0009C018C030C030C060C0C0000000000009F
:102CD0000000000000000000C000C000C000C000F4
:102CE000C000C000C000C000C000C000C000C000E4
:102CF000C000C000C000C000C00000000000000014
:102D000000000000000000000000000000000000C3
:102D100000007C3CFF7EC7E383C183C183C183C1C4
:102D200083C183C183C183C183C10000000000004F
:102D30000000000000000000000000000000000093
:102D400000009807F80F381C1818181818181818C9
:102D50001818181818181818181800000000000083
:102D60000000000000000000000000000000000063
:102D70000000C003F00F300C181818181818181895
:102D800018181818300CF00FC003000000000000E5
:102D90000000000000000000000000000000000033
:102DA0000000D803F80F380C18181818181818183D
:102DB00018181818380CF80FD80318001800180045
:102DC00018001800000000000000000000000000D3
:102DD0000000C01BF01F301C1818181818181818FD
:102DE00018181818301CF01FC01B00180018001805
:102DF00000180018000000000000000000000000A3
:102E00000000B007F00370003000300030003000E8
:102E100030003000300030003000000000000000C2
:102E200000000000000000000000000000000000A2
:102E30000000E003F003380E180C3800F003C00760
:102E4000000C180C380EF007E00300000000000032
:102E5000000000000000000000008000C000C00072
:102E6000C000F007F007C000C000C000C000C000F4
:102E7000C000C000C000C0078007000000000000C4
:102E80000000000000000000000000000000000042
:102E900000001818181818181818181818181818E2
:102EA00018181818381CF01FE01900000000000066
:102EB0000000000000000000000000000000000012
:102EC00000000C18180C180C180C300630063006D0
:102ED000600360036003C001C00100000000000047
:102EE00000000000000000000000000000000000E2
:102EF0000000C141C141C3616363636363633636EC
:102F0000363636361C1C1C1C1C1C00000000000041
:102F100000000000000000000000000000000000B1
:102F200000001C38381C300C60066003600360032E
:102F300060036006300C381C1C38000000000000E4
:102F40000000000000000000000000000000000081
:102F500000001830301830187018600C600CE00C4D
:102F6000C006C00680038003800380018001C00189
:102F7000F0007000000000000000000000000000F1
:102F80000000FC1FFC1F000C000600038001C000B5
:102F9000600030001800FC1FFC1F00000000000053
:102FA000000000000000000000038001C000C0001D
:102FB000C000C000C000C0006000600030006000C1
:102FC0004000C000C000C000C000C000C0008001C0
:102FD00000030000000000008001800180018001EA
:102FE00080018001800180018001800180018001D9
:102FF00080018001800180018001800180018001C9
:1030000080018001000000006000C000C00180015C
:10301000800180018001800100030003000600039D
:103020000001800180018001800180018001C000D9
:103030006000000000000000000000000000000030
:10304000000000000000F010F81F080F0000000052
:103050000000000000000000000000000000000070
:10306000000000000000080020000000FC0000003C
:103070000000FF00FE007F0000000300FE000800CB
:10308000200022000800FC0020001F00F0001100BA
:10309000100010004000010000007F00FC00110043
:1030A000FC007F00FC0044004400210004000100FB
:1030B00000007F00FC003D0004001F00F000000045
:1030C000080065002400110010007E000800650063
:1030D00024001F00F0004200FE00A50024001100A3
:1030E00010007E000800250024001F00F0004200B0
:1030F000480025004400010000007E0028003C003C
:1031000050003F00F800480008002400880001003B
:1031100000007400280021000400FF00FE004200AF
:1031200010000200040000004831000800000020E8
:1031300010000000140200085831000810000020A0
:10314000E806000030020008100000000100000046
:08315000FFFFFFFF0024F40063
:04000005080001D915
:00000001FF
