:020000040800F2
:1000000018080020790200080F2400083B1E000891
:100010000D2400086F040008212D000800000000D6
:100020000000000000000000000000009926000809
:100030007104000800000000112400089B2600083D
:10004000930200089302000893020008930200083C
:10005000930200089302000875040008A904000830
:10006000930200089302000893020008930200081C
:10007000930200089302000893020008930200080C
:100080009302000800000000930200089302000899
:1000900093020008930200089302000893020008EC
:1000A00093020008930200089302000893020008DC
:1000B00093020008412700089302000893020008F9
:1000C00093020008930200089302000893020008BC
:1000D000930200080D2D0008152D0008930200085A
:1000E000930200089302000893020008930200089C
:1000F0009302000893020008930200080000000029
:1001000000000000930200080000000093020008B5
:100110009302000800000000930200089302000808
:10012000930200089302000893020008930200085B
:100130009302000800000000000000009302000885
:100140009302000893020008000000000000000075
:10015000000000000000000000000000000000009F
:1001600000000000000000000000000093020008F2
:1001700093020008000000000000000000000000E2
:1001800000000000930200080000000000000000D2
:10019000000000000000000000000000000000005F
:1001A0000000000000000000930200089302000815
:1001B0009302000893020008930200080000000068
:1001C0000000000093020008000000000000000092
:1001D000930200089302000800F002F800F03CF8D7
:1001E0000AA090E8000C82448344AAF10107DA4592
:1001F00001D100F031F8AFF2090EBAE80F0013F0A8
:10020000010F18BFFB1A43F00103184774400000A8
:1002100094400000103A24BF78C878C1FAD8520739
:1002200024BF30C830C144BF04680C607047000070
:100230000023002400250026103A28BF78C1FBD8EF
:10024000520728BF30C148BF0B6070471FB502F08E
:1002500041FE1FBD10B510BD00F0CFF81146FFF7ED
:10026000F5FF02F0D3FD00F0EDF803B4FFF7F2FF65
:1002700003BC00F0F5F80000094880470948004732
:10028000FEE7FEE7FEE7FEE7FEE7FEE7FEE7FEE746
:10029000FEE7FEE704480549054A064B70470000A3
:1002A00031270008D9010008180200201808002092
:1002B000180400201804002053EA020C00F06980A2
:1002C0002DE9F04B4FF00006002B1FBFB3FA83F56A
:1002D00003FA05F424FA05F65E4012BF1643B2FA9B
:1002E00082F502FA05F4C5F120051EBF22FA05FCCD
:1002F00044EA0C04203556EA044C4FEA144418BF73
:10030000641C4FF000084FF00009904271EB030CA1
:1003100039D3002919BFB1FA81F701FA07F6B0FA0B
:1003200080F700FA07F6C7F120071EBF20FA07FC86
:1003300046EA0C062037B6FBF4FCA7EB0507103F96
:1003400007F01F0BCBF120062CFA06F60CFA0BFB7C
:1003500044BFB3460026202FA4BF5E464FF0000BDB
:100360005BEA060C08BF4FF0010B19EB0B0948EBD9
:100370000608ABFB027C06FB02CC0BFB03CCC01BCC
:1003800071EB0C01C1E70B46024641464846BDE809
:10039000F08B13B54FF000004FF00001AFF3008079
:1003A000BDE81C4070474FF0000200B5134694466C
:1003B0009646203922BFA0E80C50A0E80C50B1F1BD
:1003C0002001BFF4F7AF090728BFA0E80C5048BFD1
:1003D0000CC05DF804EB890028BF40F8042B08BF6F
:1003E000704748BF20F8022B11F0804F18BF00F86B
:1003F000012B7047704770477047754600F02CF826
:10040000AE4605006946534620F00700854618B001
:1004100020B5FFF73FFFBDE820404FF000064FF04A
:1004200000074FF000084FF0000BAC46ACE8C009E5
:10043000ACE8C009ACE8C009ACE8C00921F007018C
:100440008D46704710B50446AFF300802046BDE8E6
:100450001040FFF70ABF000000487047100000205E
:1004600001491820ABBEFEE7260002007047FEE7F8
:100470007047000080B5054805A11522642301F0EE
:1004800077FC0120BDE8804000F0CCB8C40000201B
:10049000323032323330323232303233E891A3E705
:1004A00088B5E7A195000000B0B54FF6FF7001F0E8
:1004B000E9FC10A1002001F04FFD01256FF03B0485
:1004C0000DE0E8B202F084FC642000F099F8280600
:1004D00004F101044FF0010058BF68000546002CEC
:1004E000EFD1022000F09EF84FF6FF70BDE8B0405B
:1004F00001F0C8BC2020204920616D2061206C6F74
:10050000772D6C6576656C20696E74657272757096
:10051000742E202020200000EFF3108072B6FEE73A
:1005200090F82510022923D101680A6822F00E02F2
:100530000A60826C136823F48073136001230A68D5
:1005400022F001020A60D0E9101202F01F0203FA41
:1005500002F24A60D0E913124A60416D31B10A6873
:1005600022F480720A60D0E916124A60002102E08B
:100570000421C1630121002280F82420012280F897
:1005800025200846704790F8251002292ED10168D1
:100590000A6822F00E020A600A6822F001020A606C
:1005A000816C0A6822F480720A60D0E9101202F0AD
:1005B0001F03012202FA03F34B60D0E913134B60CF
:1005C000416D31B10B6823F480730B60D0E91613D1
:1005D0004B60002180F8241080F82520826B6AB1DE
:1005E00080B590470021BDE8804007E00421C16349
:1005F000002180F82410012180F82510084670475A
:10060000B0B5044600F0E6F805469048611C406825
:1006100018BF044400F0DEF8401BA042FAD3B0BD7E
:100620007047000003490A68024214BF086070471F
:10063000FFF7F6BF140401402DE9F84F5A4A4FF076
:1006400006094FF0000B4FF0010A4FF0000C9042EA
:1006500000F1384208BF4FF005094FEAB223052BDD
:1006600038BF4FEAB22900220D6835FA02F408BFFC
:10067000BDE8F88F0AFA02F415EA040800F0868053
:100680004D68122D00F288800AFA05F717F0061F50
:1006900000F082800323D0F808E0CE6803FA0CF75C
:1006A0002EEA070306FA0CF66FEA070E57003343EB
:1006B0008360C5F3001346689340A6433343436009
:1006C000C3688E6803EA0E03BE403343C36045F03F
:1006D0001003122B11D10BF01C030F2404FA03F6A4
:1006E0006FF0030404EA520505442C6AB4430E6912
:1006F00006FA03F323432B624D68046805F00303F5
:10070000BB4004EA0E073B430360EB003ED5294B98
:10071000264C294D0BF00C061F461B68AE4643F0D5
:1007200001033B603B6803F00103009322F00303E5
:10073000009F23445F590F25B54009FA06F6AF43E1
:10074000374343F80E7023684E6843EA0807F50301
:1007500058BF23EA08072760B503636843EA080720
:1007600058BF23EA08076760F502A36843EA080751
:1007700058BF23EA08070E4BA760B6021D461B6848
:1007800043EA080758BF23EA08072F600BF1040B60
:100790000CF1020C013267E70323674603FA0CF4FD
:1007A0006FEA040E8CE700BF00140048000401400B
:1007B0000C0401406010024008FCFFFF0069084083
:1007C00018BF012070471823002A08BF2823C150F2
:1007D0007047000005480068704700BF1B48034988
:1007E00040680A6810440860704700BF1402002087
:1007F00010B5032000F072F80120012400F006F883
:1008000010B900F025F80024204610BD70B50F4E39
:1008100004467068B0B14FF47A71B1FBF0F06049F2
:100820000968B1FBF0F000F041FD01250F2C0AD85A
:1008300048B94FF0FF3021460022002500F030F883
:10084000346000E00125284670BD00BF0000002094
:1008500082B00B48816841F001018160816801F03C
:10086000010101910199016841F080510160006826
:1008700000F080500090009802B000F095B800BFE2
:1008800058100240002808DB00F01F010122400937
:1008900002FA01F1014A42F82010704700E100E03D
:1008A00080B5144B1B68C3F3022CBCF1030E8CF013
:1008B00007034FF0FF3C38BF4FF0000E042B28BF5A
:1008C00004230CFA03F399430CFA0EF301FA0EF128
:1008D0009A431143BDE8804002F024BA05494FF61F
:1008E000FF030A681A4060F30A22034810430860B5
:1008F000704700BF0CED00E00000FA0520B3B949D5
:10090000B0F5007F0A6845D1D1F8800040F48070CE
:10091000C1F8800002F4C060B0F5806F3ED1086875
:10092000012262F34A20322208601D4800685043C9
:100930001C4AB0FBF2F0C0434A6918B1013012F40E
:100940008062F9D1486920E0A6480168D0F880208B
:1009500001F4C06122F48072B1F5806FC0F880208C
:100960001CD10168012262F34A21322201600C4944
:10097000096851430B4AB1FBF2F1C943426919B10D
:10098000013112F48062F9D14069400544BF03206F
:10099000704703E0022060F34A220A60002070479B
:1009A0000C00002040420F000248016841F48041E1
:1009B00001607047087000402DE9FC4104468078D2
:1009C000874E000701D400205DE0F06CC0000BD41E
:1009D000F06C4FF0010840F08050F064F06C00F0D3
:1009E00080500190019801E04FF000087D4F386879
:1009F00040F480703860FFF7EDFE05463868C005AA
:100A000006D4FFF7E7FE401B0228F7D9032033E0A6
:100A1000D6F8840010F4407025D0216C884211D0A3
:100A2000D6F88400D6F8841041F4803120F4407068
:100A3000C6F88410D6F8841021F48031C6F88410EA
:100A4000C6F88400C0070ED0FFF7C4FE054641F289
:100A50008837D6F88400800705D4FFF7BBFE401B1B
:100A6000B842F6D9D2E7D6F88400216C20F4407061
:100A70000843C6F884000020B8F1000F1EBFF16CD7
:100A800021F08051F1642168CA0705D0F26F6368D4
:100A900022F003021A43F2678A0705D5F26FA368B2
:100AA00022F00C021A43F2674A0705D5F26FE36899
:100AB00022F030021A43F2670A0705D5F26F236964
:100AC00022F0C0021A43F2678A0605D5F26F636905
:100AD00022F440621A43F2674A0605D5F26FA36911
:100AE00022F440521A43F2670A0605D5F26FE36911
:100AF00022F440421A43F267CA0505D5F26F236A11
:100B000022F440321A43F2678A0505D5F26F636A10
:100B100022F440221A43F2674A050DD5F26FA36A08
:100B200022F44012B3F5801F42EA0302F26702BFCB
:100B3000326842F4801232600A050DD5F26FE36A22
:100B400022F44002B3F5800F42EA0302F26702BFCB
:100B5000326842F480123260CA040DD5F26F236B02
:100B600022F04072B3F1807F42EA0302F26702BFD3
:100B7000326842F4801232608A040DD5F26F636BE2
:100B800022F04062B3F1006F42EA0302F26702BF53
:100B9000326842F4801232604A040DD5F26FA36BC2
:100BA00022F04062B3F1006F42EA0302F26702BF33
:100BB000326842F48012326009040DD5F16FE26BA5
:100BC00021F04051B2F1805F41EA0201F16702BFBA
:100BD000316841F48031316002B0BDE8F08100BF7E
:100BE0000C100240007000402DE9F047002854D05E
:100BF000724B04460D46186800F00F00884209D277
:100C0000186820F00F0028431860186800F00F00E3
:100C1000A84242D12068934E9A46C107B14602D1FC
:100C20004FF000086BE06168032930D156F8081CCA
:100C3000890132D57168726873687768B446022694
:100C4000C7F3416701F0030106EB4707864E03290E
:100C500004BF43F20066C0F26E16C2F30311C3F381
:100C600006220131B6FBF1F15143554AB1FBF7F1D0
:100C7000914224D9DCF80010664611F0F00F16D02E
:100C8000800701D5A06890B14FF000081AE056F82F
:100C9000080C022904D1800304D40120BDE8F087A8
:100CA0004005FAD500F0AEF845498842ECD93068E5
:100CB00008214FF0800861F30710306002E04FF028
:100CC000000866463068616820F003000843306021
:100CD000FFF780FD064641F288374846D9F8000004
:100CE000616800F00C00B0EB810F05D0FFF772FDDA
:100CF000801BB842F1D939E020684E46534681073F
:100D000006D4B8F1800F16D1316821F0F00111E05E
:100D1000410742BF316841F4E0613160010704D509
:100D20003168072262F30D2131603168A26821F039
:100D3000F00111433160196801F00F01A9421AD97D
:100D4000186820F00F0028431860FFF743FD06469F
:100D500041F288375046DAF8000000F00F00A84250
:100D600007D0FFF737FD801BB842F3D90320BDE859
:100D7000F08720684E46410705D53168E26821F4C6
:100D8000E06111433160000706D53068216920F425
:100D9000605040EAC100306000F034F83168094A20
:100DA000C1F30311515C01F01F01C84013490860F1
:100DB00005480068BDE8F047FFF728BD0020024065
:100DC00000B4C404EE2E0008000000200B482549A2
:100DD0000B4A00680968C1F30221515C01F01F0150
:100DE000C840704705481F49054A00680968C1F3B3
:100DF000C221515C01F01F01C84070470C00002067
:100E0000FE2E00081749184A086800F00C00042854
:100E1000104608BF7047086800F00C031348082B01
:100E20001ED00B6803F00C030C2B1CBF0020704776
:100E30004B6803F00303032B08BF02464868C0F366
:100E400003100130B2FBF0F04A68C2F30622496891
:100E500050430222C1F3416102EB4101B0FBF1F0CA
:100E6000704700BF081002400024F40000366E01F5
:100E70002DE9FC41002800F0AA8104460078DF4EED
:100E8000C0071ED12078800747D42078000740F1A2
:100E90009A806169D6F89400002900F0838040F0C0
:100EA0000100C6F89400FFF795FC0546D6F89400BB
:100EB000800700F18880FFF78DFC401B0228F5D9E0
:100EC000C9E0B168F06801F00C0108294BD0032299
:100ED00081F00C0122EA00000844B0FA80F04009D9
:100EE00041D16768B7F5803F07D03068B7F5A02FCC
:100EF00040F0CC8040F480203060306840F4803096
:100F00003060FFF767FC054630688003BAD4FFF70E
:100F100061FC401B6428F7D99DE0B068F16800F0DF
:100F20000C00042828D001F0030180F00C0081F0AF
:100F300002010844B0FA80F040091DD1E168306830
:100F4000002900F08A8040F480703060FFF742FC96
:100F500005463068400500F19180FFF73BFC401BDF
:100F60000228F6D977E0306880037FF58BAF6068A0
:100F700000287FF487AF2AE13068400503D5E06898
:100F8000002800F024817068216920F0FE4040EACA
:100F900001607060C0480068FFF738FC002840F02E
:100FA000168172E720F00100C6F89400FFF712FCEA
:100FB0000546D6F89400800705D5FFF70BFC401BCB
:100FC0000228F6D947E02078400740F19A80B06DBA
:100FD000C0000BD4B06D4FF0010840F08050B065F8
:100FE000B06D00F080500190019801E04FF00008D2
:100FF000AA4F3868C0050FD4386840F48070386054
:10100000FFF7E8FB05463868C00505D4FFF7E2FBAB
:10101000401B0228F7D91EE0A768012F07D0D6F899
:101020009000052F4AD140F00400C6F89000D6F891
:10103000900040F00100C6F89000FFF7CBFB05469A
:1010400041F28837D6F89000800753D4FFF7C2FBEF
:10105000401BB842F6D90320BAE020F4807030601B
:10106000FFF7B8FB0546306840057FF50EAFFFF788
:10107000B1FB411B03200229F5D9A9E07068216961
:1010800020F0FE4040EA01607060FEE620F480300F
:101090003060306820F480203060FFF79BFB05460D
:1010A000002F7FF431AF306880037FF5EBAEFFF7A0
:1010B00091FB411B03206429F5D989E020F0010050
:1010C000C6F89000D6F8900020F00400C6F8900012
:1010D000FFF780FB0546002FB2D141F28837D6F8E2
:1010E0009000800706D5FFF775FB411B0320B9422E
:1010F000F5D96DE0B8F1000F1EBFB06D20F0805043
:10110000B0652078800627D5A169D6F8980089B106
:1011100040F00100C6F89800FFF75CFB0546D6F8E2
:101120009800800718D4FFF755FB411B03200229C4
:10113000F5D94DE020F00100C6F89800FFF74AFB12
:101140000546D6F89800800706D5FFF743FB411BFC
:1011500003200229F5D93BE0E069002800F09A80DD
:10116000B16801F00C010C2935D101282FD0F068AD
:10117000216A00F003028A4229D1616A6FF00F02EE
:1011800002EB011100F0F0028A4220D1A16A00F4C2
:10119000FE42B2EB012F1AD1E16A00F07842B2EBC5
:1011A000C16F14D1216B404A02EA015100F4C00220
:1011B000A1F500118A420AD1616B4FF07E4200F026
:1011C000C06002EA016101F17E41884262D00120E3
:1011D00002B0BDE8F0813168022821F080713160F1
:1011E0000ED1FFF7F7FA0546306880011DD5FFF7ED
:1011F000F1FA411B03200229F6D9E9E70010024069
:10120000F068274920F00300F060F0680840F060C3
:10121000FFF7E0FA0446306880013BD5FFF7DAFAC1
:10122000011B03200229F6D9D2E704F12007F06858
:101230006FF00F058ECF05EB02121A4D28400843C0
:10124000216B1043184A40EA032002EA01514FF093
:101250007E42A1F500110843616B40EAC76002EAD3
:10126000016101F17E410843F060306840F0807018
:101270003060F06840F08070F060FFF7ABFA044631
:101280003068800106D4FFF7A5FA011B032002296C
:10129000F6D99DE700209BE7000000200070004089
:1012A000FFFFEEFE0C809F010000E0FF411E0020CA
:1012B000B0EB116F1CBF01207047044AF02351604E
:1012C00003490B70072190601160704710E000E047
:1012D00023ED00E0704770477047704770477047D4
:1012E00090F83C300222012B37D070B580F83D20B9
:1012F00001221B4D80F83C20026854689368AA4282
:1013000002D0184EB24203D14E6824F47004344324
:10131000154EB2F1804F06EA04060C6846EA040650
:1013200056600DD0394CA2420AD0104CA24207D0D0
:101330000C4CA24204D00E4CA24201D0AA4204D1CD
:10134000896823F08003194391600022012180F80D
:101350003C2080F83D10BDE870401046704700BF4B
:1013600000340140002C01408FFFFFFD00080040C9
:1013700000400140704760B310B5044690F83D004E
:1013800028B9002084F83C00204600F025F802200F
:10139000211D84F83D00206801F0D8F9012084F86F
:1013A000480084F83E0084F83F0084F8400084F848
:1013B000410084F8420084F8430084F8440084F833
:1013C000450084F8460084F8470084F83D0000207A
:1013D00010BD01207047000000680C49884218BF0A
:1013E0007047E0B50A480022016841F0020101603F
:1013F0000021006800F00200019001981D20FFF715
:101400004FFA1D20BDE88C40FFF73CBA00040040B5
:1014100058100240B0B590F83C2004460220012A42
:1014200008BFB0BD84F83D0001203D4D84F83C006C
:101430002068024652F8083F2B4013600B6873B3D4
:10144000102B2CD0202B2AD0302B28D0402B34D05E
:10145000502B3ED0602B48D0324883421FD0B3F58A
:10146000005F4ED0B3F1101F19D02F48834216D021
:101470002E48834213D02E48834210D0702B15D1B2
:10148000D1E90103C968184340EA0120116821F439
:101490007F4108431060106840F0770005E0106855
:1014A00024490840184340F0070010600020012143
:1014B00084F83C0084F83D10B0BD4B68CA681946FA
:1014C00001F0BAF922681B4952F8080F084047306A
:1014D000EBE74B68CA68194601F0AEF92268154976
:1014E00052F8080F08405730DFE74B68CA681946C2
:1014F00001F0B3F922680F4952F8080F084067302D
:10150000D3E7D1E90103C968184340EA0120116813
:1015100021F47F4108431060106840F48040C4E724
:101520008800CEFF70001000200010003000100076
:101530004000100088FFCFFF704710B504460068D8
:101540000169890744BFC1685FEA81715BD40169A1
:10155000490744BFC1685FEA417160D40169090766
:1015600044BFC1685FEA017166D40169C90644BF1E
:10157000C1685FEAC1616BD40169C9071CBFC1685A
:101580005FEAC17171D10169090644BFC1685FEAB0
:10159000016172D40169C90544BFC1685FEA016194
:1015A00073D40169490644BFC1685FEA416174D4DC
:1015B0000169890644BFC1685FEA816175D4016928
:1015C000C90244BFC1685FEAC12176D401698902BA
:1015D00044BFC1685FEA812177D40169490244BFF1
:1015E000C1685FEA412178D40169090246BFC16838
:1015F0005FEA012110BD6FF4000101612046BDE8E2
:101600001040FFF7B7BE6FF00201016101212177A1
:101610008069800769D02046FFF78EFF6BE06FF08E
:101620000401016102212177806910F4407F66D0B6
:101630002046FFF781FF68E06FF008010161042197
:101640002177C069800764D02046FFF775FF66E008
:101650006FF01001016108212177C06910F4407F0B
:1016600061D02046FFF768FF63E06FF00101016180
:10167000204600F065F8206885E76FF08001016181
:101680002046FFF728FE206884E76FF4807101612F
:101690002046FFF71FFE206883E76FF040010161DD
:1016A000204600F0A1F8206882E76FF02001016178
:1016B0002046FFF711FE206881E76FF48011016179
:1016C0002046FFF70BFE206880E76FF400110161F0
:1016D0002046FFF702FE20687FE76FF4800101617A
:1016E0002046FFF7FCFD20687EE7204600F025F845
:1016F000204600F023F800202077206827E72046C6
:1017000000F01BF8204600F019F800202077206830
:1017100024E7204600F011F8204600F00FF80020E2
:101720002077206821E7204600F007F8204600F0E7
:1017300005F80020207720681EE7704770470000FA
:101740002DE9F041254C006804F17841884201D030
:10175000BDE8F081224F204601210125B847214EE6
:1017600002214FF0020870702046B847707320467F
:101770000421B84770764FF090400121B84786F8B1
:10178000250000200021302908BFBDE8F081725CEF
:10179000022A08D0012A10D0F2B972185378DBB9A6
:1017A0007554506018E072185378012B0DD17054A5
:1017B0005368452B98BF95700EE072185278002A36
:1017C00014BF705406F8018006E05368013353607B
:1017D000462B24BF705495600C31D4E700040048B8
:1017E000BD070008E4010020704790F8801001292F
:1017F00001D1022112E02421C0F88410026813688C
:10180000116821F0010123F00053116000214166AD
:101810001360202280F88010C0F8842008467047AA
:1018200070477047B0B5044690F88000012804BFA7
:101830000220B0BD2420C4F88400012084F8800078
:1018400020680568026822F001020260826822F0C6
:10185000606211438160204601F010F82068202169
:101860000560002084F88000C4F88410B0BDB0B5D5
:10187000044690F88000012804BF0220B0BD242057
:10188000C4F88400012084F880002068056802689C
:1018900022F001020260826822F0604211438160FE
:1018A000204600F0EBFF206820210560002084F82E
:1018B0008000C4F88410B0BD7047704770470000C6
:1018C000B0B50168044640F60F00CA690D68D1F84A
:1018D00008C0024200F083809B489C4B28400CEAE1
:1018E000030E10EB0E0000F08480D00718BF15F433
:1018F000807007D001200862D4F88C0040F001000D
:10190000C4F88C000CF00103900708D53BB102200D
:101910000862D4F88C0040F00400C4F88C00500732
:1019200008D53BB104200862D4F88C0040F00200D6
:10193000C4F88C0010070CD505F0200050EA0E000A
:1019400007D008200862D4F88C0040F00800C4F8E2
:101950008C0010050BD515F0806008D04FF40060A6
:101960000862D4F88C0040F02000C4F88C00D4F851
:101970008C00002800F0C38090060AD505F02000F6
:101980000CF08052801804D0226F12B1204690478C
:101990002168D4F88C00896800F0280001F040012B
:1019A000401800F0A680204601F036F820688168D3
:1019B000490640F19980816821F040018160E06F23
:1019C000002800F0918062498163FEF7DCFD002869
:1019D00000F09580E06F816BBDE8B040084790064D
:1019E00007D505F020000CF08053C01801D0216FFE
:1019F00075E005EA0203D806E06E24D5012822D15D
:101A000010200862886840062AD4B4F85E00B4F852
:101A10005C20B4F85E30002B71D0101A02046ED036
:101A20000A684C4B22F490720A608A681A408A60F5
:101A30002022C4F8882000222267E2660A6822F089
:101A400010020A603BE0D0023FD51CF480003CD07D
:101A50004FF4801008622046BDE8B040FFF72DBF6C
:101A6000E06FD0F800E0DEF8042093B2002B46D0FF
:101A7000B4F85CC0634542D2A4F85E20DEF80020D2
:101A8000920618D40A6822F480720A608A6822F0EA
:101A900001028A608A6822F040028A602022C4F82B
:101AA00088200022E2660A6822F010020A60FEF72F
:101AB00037FDB4F85CC0B4F85E00ACEB000081B256
:101AC0002046BDE8B040FFF7ABBE100618D505F0C4
:101AD000800E0CF4000010EB0E0011D0616F71B19C
:101AE0002046BDE8B04008472046BDE8B040FFF7BB
:101AF000E5BE2046FFF7E2FE0020C4F88C00B0BD32
:101B0000580609D4100215D515F0804012D0204691
:101B1000BDE8B040FFF7D0BE086820F04000086084
:101B2000002060672020C4F884002046BDE8B04053
:101B300000F082B9D001E2D5B5F1FF3FDFDC2046ED
:101B4000BDE8B040FFF76DBE2001000401000010A9
:101B5000092A0008FEFFFFEF10B5B0B10446D0F827
:101B6000840028B9002084F88000204600F026F880
:101B70002420C4F884002068016821F0010101607C
:101B8000204600F063FF012801D1012010BDA06AAA
:101B900010B1204600F09CFE2068416821F490417D
:101BA0004160816821F02A018160016841F00101F2
:101BB00001602046BDE8104000F0F3BE10B586B0CD
:101BC000044601A81421FEF7EEFB20682C49884248
:101BD0002BD02C49884251D1D648416941F48041EB
:101BE0004161416901F4804100910099016841F02F
:101BF0000101016001A9006800F001000090009857
:101C0000072005900020CDE90300022002904FF448
:101C1000C06001904FF09040FEF70EFD252000219E
:101C20000022FEF73DFE252026E0C248C16841F4AF
:101C30000031C160C16801F4003100910099016870
:101C400041F00101016001A9006800F0010000906D
:101C50000098072005900020CDE9030002200290A3
:101C60000C2001904FF09040FEF7E6FC262000216A
:101C70000022FEF715FE2620FEF704FE06B010BD7A
:101C800000440040003801402DE9FC470546D0F8EB
:101C90008800202808D18A46012031B1164622B199
:101CA00095F88000012803D1022002B0BDE8F0873A
:101CB000002022211C46C5F88C00C5F8881001219F
:101CC00085F88010E866FEF785FDA5F85E60A5F84A
:101CD0005C608046A86898B1B0F1805F14D0B0F520
:101CE000805F15D12F69FF26D146002F08BF40F233
:101CF000FF16A5F860601CBF4FF0000957460FE0C3
:101D0000286938B9FF2606E0286918B13F2602E0A5
:101D1000002600E07F264FF000095746A5F86060D6
:101D2000002085F8800018E0284620210022434644
:101D3000009400F09BFFC8B92868002F406A03D0C8
:101D4000304007F8010B03E03040002729F8020B70
:101D5000B5F85E000138A5F85E00B5F85E00002811
:101D6000E2D12020C5F8880000209EE703209CE7F0
:101D70002DE9FC470446D0F88400202808D10D4600
:101D8000012031B1164622B194F88000012803D118
:101D9000022002B0BDE8F0874FF0000A012099460A
:101DA000C4F88CA084F880002120C4F88400FEF7D9
:101DB00011FDA4F85660A4F854608046A068B0F500
:101DC000805F06D127690026002F0CBF2E462F46C4
:101DD00001E02F46002684F880A019E020468021EB
:101DE00000224346CDF8009000F040FFE8B91FB153
:101DF00017F8011B206805E036F8021B2068002751
:101E00006FF35F218162B4F856000138A4F85600E0
:101E1000B4F856000028E1D1204640210022434674
:101E2000CDF8009000F022FF08B10320B1E7202098
:101E3000C4F884000020ACE77047FEE7FEB503203D
:101E40004FF6FF71049000200290019105900390DD
:101E50000B4801A9FEF7F0FB06B080BDFEB50320DC
:101E600001A90490012002904FF6FF70019000201C
:101E7000059003900248FEF7DFFB06B080BD00BF6F
:101E800000080048B0B504460020002100F00CF91D
:101E900000F03CF94FF4963503E0204600F010F9CD
:101EA000013D002DF9D1B0BDF0B587B00026214825
:101EB000214C012702AD0696016841F00401016042
:101EC000016801F0040101910199016841F00101EB
:101ED0000160016801F0010101910199016841F07F
:101EE000020101602946006800F00200019001989B
:101EF000059603974FF44870029020460496FEF72B
:101F00009BFB4FF4807005960397294602904FF093
:101F100090400496FEF790FBFFF7A0FF074821587A
:101F200041F480712150A06940F40870A06107B0AD
:101F3000F0BD00BF4C1002400004004818FCFFFF39
:101F4000203AD3B25B0053FA82F2024B03EB021247
:101F500000F016B8062F0008F8B50C46054640F20A
:101F60003F16002709E0E25D002A08BFF8BDB1B2C4
:101F70002846FFF7E5FF0137103E132FF3D9F8BDD0
:101F80002DE9F84F14468846814600F08DF8DFF8B9
:101F900050A0DFF848B000270125182F08BFBDE882
:101FA000F88F00F0B3F800260CE034F8170005FABB
:101FB00006F1014214BFBBF80000BAF8000000F0BF
:101FC0007FF80136102EF0D109F1010941465FFA80
:101FD00089F000F069F80137DFE700BF70000020EA
:101FE0000800002010B5FFF75FFF002000F014F894
:101FF000084C48F2302120802088884202D100F02D
:1020000009FA01E000F07CFA002000F005F82080D9
:1020100010BD00BF74000020B0B5214CD4F81014DE
:1020200041F40071C4F81014D4F8101441F4807114
:10203000C4F81014D4F8001441F02001C4F80014BE
:1020400018490860D4F8100440F02000C4F81004C7
:1020500000BF00BF00BFD4F8000440F02000C4F867
:102060000004D4F8000440F48070C4F80004FFF7C2
:10207000E5FE206940F48070206100BF00BF00BF12
:10208000D4F8F857206840F480702060FFF7E6FE2F
:10209000D4F8000440F40070C4F80004A8B2B0BD45
:1020A000180000481408004810B50C4601462020CE
:1020B00000F054F821202146BDE8104000F04EB851
:1020C0003E490A6942F400720A610A6842F4807269
:1020D0000A600A6842F020020A60C1F8FC0308693D
:1020E00040F02000086100BF00BF00BF086840F05A
:1020F00020000860086840F48070086000BF00BFDE
:1021000000BF086840F40070086070472B48016900
:1021100041F400710161016941F48071016101685C
:1021200041F0200101602221C0F8FC13016941F057
:102130002001016100BF00BF00BF016841F0200124
:102140000160016841F48071016000BF00BF00BF01
:10215000016841F400710160704700BF174A1369BC
:1021600043F400731361136943F4807313611368BC
:1021700043F020031360C2F8FC03106940F0200014
:10218000106100BF00BF00BF106840F02000106069
:10219000106840F480701060C2F8FC13106940F0C1
:1021A0002000106100BF00BF00BF106840F0200099
:1021B0001060106840F48070106070471804004888
:1021C0002DE9F04F87B000243E483F4E01224FF4E6
:1021D0007F454FF001080694016806F5806741F0DD
:1021E00004010160016801F0040101910199016895
:1021F00041F020010160016801F020010191019985
:10220000016841F001010160016801F001010191E3
:102210000199016841F002010160016801F00201C9
:1022200001910199016841F0080101604FF47F417B
:10223000006800F00800019001983846FEF7C3FAE4
:1022400006F5006A04210022B3464FF00409504607
:10225000FEF7B9FACDE90444CDE9025802AE1B4DB0
:1022600038463146A8474FF0904031460494CDE9B6
:102270000284A84716480494314603900320029034
:102280005846A847584631460494CDE90294A847D9
:1022900050463146CDE90444CDE90298A8470620CE
:1022A0000E210022FEF7FCFA0620FEF7EBFA0720CB
:1022B0000F210022FEF7F4FA0720FEF7E3FA07B039
:1022C000BDE8F08F4C1002400004004839060008B9
:1022D0000000211010B588B01648174C002142F2BA
:1022E00010724F23CDE90611CDE904118161C0E9D7
:1022F0000043C0E9021201610391CDE90111FFF72A
:102300003AF808B1FEF708F94FF4805004A9049098
:102310000848FFF77FF808B1FEF7FEF8002001A992
:10232000039001900348FEF7DBFF08B1FEF7F4F8D5
:1023300008B010BD780000200004004010B5174C14
:10234000174B4FF416520C200021C4E90032C4E9A7
:102350000211C4E9041004F118001421FEF723F857
:102360002046FFF7F9FB08B1FEF7D6F80B4800212D
:10237000FFF77DFA08B1FEF7CFF808480021FFF714
:1023800051FA08B1FEF7C8F80448FFF72EFA002802
:1023900014BFBDE8104010BDFEF7BEB8C400002059
:1023A0000038014010B5174C174B4FF416520C2053
:1023B0000021C4E90032C4E90211C4E9041004F1A7
:1023C00018001421FDF7EFFF2046FFF7C5FB08B109
:1023D000FEF7A2F80B480021FFF749FA08B1FEF713
:1023E0009BF808480021FFF71DFA08B1FEF794F8A2
:1023F0000448FFF7FAF9002814BFBDE8104010BDEB
:10240000FEF78AB85401002000440040FEE7FEE7D2
:102410007047000010B59E4C00200121A04701200C
:102420000021A047102041F29071A04760204FF496
:102430001C51A04761200121A04746200221A0474E
:10244000132048F21001A0472C48EE3081B2122030
:10245000A04702204FF4A061A047032041F23001C1
:10246000A047302040F20331A047312040F2033131
:10247000A047322040F20331A04733204FF440718F
:10248000A04734200321A047352040F20331A04764
:1024900036201421A047372040F20331A0473820CE
:1024A00040F20331A047392040F20331A0473A20DF
:1024B0004FF44071A0473B200321A0473C2040F24D
:1024C0000331A0473D204FF4A051A04792204FF484
:1024D0000071A047932040F20331A047902040F6BE
:1024E0000D01A047032041F21801A047072040F248
:1024F00073112246BDE81040104700BF1080FFFF57
:10250000B0B5634DE32043F20801A847E72012214C
:10251000A847EF2041F23121A84701200021A84718
:1025200002204FF4E061A847032041F23001A847A0
:1025300004200021A847082040F20721A8470920CD
:102540000021A8470A200021A8470C200021A84705
:102550000D200021A8470F200021A84710200021AE
:10256000A84711200721A84712200021A8471320BF
:102570000021A847474CC820A047102041F2906195
:10258000A847112040F22721A8473220A047122057
:102590001D21A8473220A04713204FF40061A8470F
:1025A00029201421A8472B200B21A8473220A0471F
:1025B00020200021A84721200021A8473020072102
:1025C000A847312040F20771A84732200621A847CA
:1025D000352040F20471A847362041F60471A8471F
:1025E00037200421A84738200021A847392040F28D
:1025F0000671A8473C2040F20171A8473D200F21F9
:10260000A84750200021A8475120EF21A847522079
:102610000021A847532040F23F11A84760204FF403
:102620001C51A84761200121A8476A200021A84722
:1026300080200021A84781200021A8478220002176
:10264000A84783200021A84784200021A84785208F
:102650000021A84790201021A84792200021A847D8
:1026600093200321A84795204FF48871A84797200D
:102670000021A84798200021A847032041F2180113
:10268000A847072040F273112A46BDE8B040104722
:102690005D210008010600087047FEF79FB8B0B53D
:1026A000A4B016AC1421142504F10800FDF77BFE3C
:1026B00011A81421FDF777FE68464421FDF773FE4B
:1026C0004FF40070FEF71AF90220CDE92200CDE99F
:1026D000205003251F95CDE91D054FF4803017903C
:1026E000012016902046FEF7C3FB18B1EFF31080CF
:1026F00072B6FEE700240F200221CDE91444CDE993
:102700001254119011A8FEF76FFA18B1EFF3108070
:1027100072B6FEE70320CDE9014400906846FEF75B
:102720004BF918B1EFF3108072B6FEE724B0B0BDDC
:102730000248016841F470010160704788ED00E0D3
:102740000148FEF7FABE00BF78000020B0B503686C
:10275000324DB0F1804F0AD0314A904207D0314A11
:10276000904204D0304A904201D0A84238D105F5B9
:10277000C0544A6823F07003041BB4FA84F4134372
:1027800005F5E0524FEA541E05F5A054821A041BC9
:10279000B2FA82F2B4FA84F452094FEA541CCC68BB
:1027A00023F4407323434C6923F08003002A43EA57
:1027B000040303608B68C3620B6883620BD1BEF1B4
:1027C000000F08D1A84206D005F50062904202D061
:1027D000BCF1000F01D00969016301214161B0BD65
:1027E00005F5C05405F5E052041B821AB4FA84F4CE
:1027F000B2FA82F24FEA541E05F5A0545209041BA6
:10280000B4FA84F44FEA541C084CA042C7D0084CD8
:10281000A042C4D0074CA042C1D0C4E7002C014064
:102820000004004000080040003401400040014026
:102830000048014000440140D0F820C0036A23F062
:1028400001030362836923F0F00343EA0212826109
:102850002CF00A02114301627047036A23F010034F
:102860000362836923F4704343EA0232036A82619C
:1028700023F0A00242EA011101627047416ED9B112
:1028800080B50268DFF840C0DFF840E09168C1F32E
:10289000426192681CF801301EF80110520FC90005
:1028A000B1FBF3F11CF802301EF80220D200B2FB9B
:1028B000F3F2BDE8804001E001220121A0F8681098
:1028C000A0F86A20704700BF764200086E420008F8
:1028D000816ACA0708D002685368D0F82CC023F474
:1028E000003343EA0C0353608A0708D50268536833
:1028F000D0F830C023F4803343EA0C0353604A0716
:1029000008D502685368D0F834C023F4802343EA22
:102910000C0353600A0708D502685368D0F838C022
:1029200023F4004343EA0C035360CA0608D5026847
:102930009368D0F83CC023F4805343EA0C039360BF
:102940008A0608D502689368D0F840C023F4005383
:1029500043EA0C03936080B54A0615D5D0F800E031
:10296000DEF804C0436C2CF48012B3F5801F42EAF9
:102970000302CEF8042007D1DEF80420836C22F491
:10298000C0021A43CEF804200906BDE8804058BFB3
:10299000704701684A68C06C22F400221043486006
:1029A0007047BCB504460020C4F88C00FDF712FF48
:1029B00005462068016809070BD56FF07E404FF48B
:1029C000001100222B460090204600F04FF970B90C
:1029D0002068006840070CD56FF07E404FF48001FE
:1029E00000222B460090204600F040F908B1032059
:1029F00008E02020C4F88400C4F88800002084F88F
:102A00008000E06602B0B0BD806A0021A0F85E10D0
:102A1000A0F85610FEF752BF01680B4B0A6822F46B
:102A200090720A608A681A408A60C26E012A02BFE8
:102A30000A6822F010020A602021C0F888100021E4
:102A40000167C166704700BFFEFFFFEFF8B504469F
:102A500003688068724D734ED4E90412B34240EAB1
:102A60000100E16940EA02001A6840EA010002EA56
:102A700005026D4D40EA020018605868E26820F4D3
:102A8000405040EA02005860A0691CBF226A10430F
:102A90009A682A40664D10439860AB42D86A626AD1
:102AA00020F00F0040EA0200D862604812D0614D69
:102AB000AB4211D0604DAB4210D0B34210D05F4D4D
:102AC000AB4217D15E4B63A61B6803F0030356F8B5
:102AD000235012E0022504E0042502E0062500E070
:102AE0000A25574F3F68EF4056A507F0030755F8F2
:102AF000275000E01025B3421ED0B1F5004F0DD194
:102B00000121082D00F28280DFE805F005232D80E9
:102B1000268080802B00FEF759F91FE00121082D47
:102B200000F27480DFE805F005323C723572727293
:102B30003A00FEF74BF92EE00121082D66D8DFE8B8
:102B400005F005654865406565654600FEF73EF998
:102B500039E0FEF747F901E0FEF754F978B3626A0D
:102B600001E04FF400403F4931F81210B0FBF1F0A2
:102B700061684A0802EB4000B0FBF1F04FF6F071DB
:102B8000014042D0C0F34200084316E0FEF72AF9A4
:102B900001E0FEF737F990B1626A01E04FF40040BE
:102BA000304931F81210B0FBF1F0616800EB5100D0
:102BB000B0FBF1F080B2102827D32168C860002153
:102BC00024E0FEF71FF90028F9D0626A01E04FF413
:102BD0000040244931F812106268B0FBF1F002EBBA
:102BE00042030121984211D3130398420ED8010EDB
:102BF0000002002310EB520041F10001FDF75CFBE5
:102C0000194AA0F540719142D7D901210020C4E9A9
:102C10001C004FF00110A066084601B0F0BD00BFD7
:102C2000F369FFCF00800040FFF4FF110024F4009F
:102C30000044004000480040004C00400038014083
:102C400088100240000000000400000002000000A4
:102C50000800000001000000040000000200000065
:102C600008000000D6400008FFFC0F002DE9F843E3
:102C7000DDF820900F46016898461646044609F193
:102C80000105C8693840C01BB0FA80F04009B04265
:102C900025D1002DF5D0FDF79DFD2168B9F1000F7C
:102CA0000A6820D0A0EB080048451CD8500744BF54
:102CB000C8695FEA0050E4D54FF400600862086814
:102CC00020F4D0700860886820F00100886020201F
:102CD000C4F88400C4F8880004F18C000FE00020E0
:102CE00001B0BDE8F08322F4D0700860886820F05D
:102CF000010088602020C4F8840004F188002021AD
:102D00000160002084F880000320E9E77048FEF7A6
:102D1000D7BD00BF0148FEF7D3BD00BF540100205E
:102D2000FEE7000010B5074C00F00F03044AB0F1B5
:102D3000FF3F2344C8BF83180801187010BD00BFAF
:102D400000E400E014ED00E02DE9F84F89468246EA
:102D5000C0B289B2FFF7A8F91C4C1B4D0026012711
:102D6000C02E08BFBDE8F88F164830F81680FFF770
:102D7000CDF94FF0070B0AE007FA0BF010EA080F45
:102D800014BF28882088FFF79BF9ABF1010BBBF13A
:102D9000000FF1DA0C206FF00701B6FBF0F000EB4A
:102DA0004000A6EB80000B2808BF0AF1010A08BF0B
:102DB000582189445FFA8AF01FFA89F1FFF774F904
:102DC0000136CDE7EE400008720000200A00002026
:102DD00070B50C4C0C4E05464FF6FF710122204693
:102DE000B047290220460022B04704F58064042140
:102DF00001222046B0472046042100223346BDE888
:102E00007040184700080048C70700088AB0FDF75F
:102E1000EFFCFFF744FCFFF7D3F9FFF75BFAFFF78E
:102E2000E1F84FF6FF70FFF72DF8FFF787FAFFF78D
:102E3000B9FA20A00DF1100C254D9F24071D4669FD
:102E40008ECF08966E46ACE88E001A4903AF039108
:102E5000817E008B8DF82610ADF8240018202146C5
:102E6000FFF772FF284631460D224FF0FF33FEF781
:102E70000BFF103C0B20394603E0325C013801F8AF
:102E8000012B421CF9D148203946FFF765F89DF81F
:102E90000C009DF80D10303840EA0110C0B2FFF769
:102EA00097FF4FF47A70FDF7ABFB002CB8BF40F2F0
:102EB0003F14D3E748656C6C6F20576F726C6420C9
:102EC0002020202020202020202020202020000042
:102ED000C4000020F1EE100A4FF6FF71C0F2C031BD
:102EE00020EA010040F04070E1EE100A7047000057
:102EF00000000000000001020304060708090000AA
:102F000000000102030400000000000000000000B7
:102F100000000000000000000000000000000000B1
:102F200000000000000000000000000000000000A1
:102F3000000000000000000080018001800180018D
:102F40008001800180018001800180018001800179
:102F500080010000000080018001000000000000EE
:102F600000000000000000000000CC00CC00CC00FD
:102F7000CC00CC00CC0000000000000000000000ED
:102F80000000000000000000000000000000000041
:102F90000000000000000000000000000000000031
:102FA0000000600C600C600C30063006FE1FFE1F37
:102FB000300638071803FE1FFE1F180318038C0184
:102FC0008C018C01000000008000E003F80F9C0ED3
:102FD0008C1C8C188C009800F801E007800E801C77
:102FE0008C188C189C18B80CF00FE003800080003F
:102FF0000000000000000000000000000E181B0C84
:10300000110C11061106110311039B018E01C0382A
:10301000C06C60446044304430441844186C0C3830
:103020000000000000000000E001F003380718066F
:1030300018063003F001F000F8009C310E33061E34
:10304000061C061C063FFC73F02100000000000077
:10305000000000000000000000000C000C000C004C
:103060000C000C000C00000000000000000000003C
:103070000000000000000000000000000000000050
:103080000000000000000000000200038001C000FA
:10309000C0006000600030003000300030003000C0
:1030A00030003000300060006000C000C0008001CF
:1030B000000300020000000020006000C00080014A
:1030C000800100030003000600060006000600065B
:1030D0000006000600060003000380018001C00016
:1030E0006000200000000000000000000000000060
:1030F0000000C000C000D806F807E0013003380720
:1031000000000000000000000000000000000000BF
:1031100000000000000000000000000000000000AF
:10312000000080018001800180018001FC3FFC3FA4
:10313000800180018001800180010000000000000A
:10314000000000000000000000000000000000007F
:10315000000000000000000000000000000000006F
:10316000000000000000000080018001000100015B
:1031700080000000000000000000000000000000CF
:103180000000000000000000000000000000E00758
:10319000E007000000000000000000000000000048
:1031A000000000000000000000000000000000001F
:1031B000000000000000000000000000000000000F
:1031C0000000000000000000C000C000000000007F
:1031D0000000000000000000000C000C00060006CB
:1031E00000060003000300038003800180018001CA
:1031F000C000C000C00060006000000000000000CF
:103200000000000000000000E003F007380E180C7A
:103210000C180C180C180C180C180C180C180C188E
:103220000C18180C380EF007E00300000000000036
:10323000000000000000000000018001C001F0015A
:103240009801880180018001800180018001800156
:1032500080018001800180018001000000000000E9
:103260000000000000000000E003F80F180C0C182C
:103270000C1800180018000C000600038001C000A4
:10328000600030001800FC1FFC1F00000000000060
:103290000000000000000000E001F807180E0C0C10
:1032A0000C0C000C0006C003C007000C001800182E
:1032B0000C180C18180CF807E003000000000000C0
:1032C0000000000000000000000C000E000F000FC6
:1032D000800DC00C600C600C300C180C0C0CFC3F0A
:1032E000FC3F000C000C000C000C00000000000073
:1032F0000000000000000000F80FF80F1800180090
:103300000C00EC03FC071C0E001C00180018001831
:103310000C181C0C180EF807E00300000000000059
:103320000000000000000000C007F00F381C181853
:1033300018000C00CC03EC0F3C0E1C1C0C180C18D5
:103340000C18181C380EF007E00300000000000005
:103350000000000000000000FC1FFC1F000C000625
:103360000006000380038001C001C000E00060008F
:1033700060007000300030003000000000000000ED
:103380000000000000000000E003F007380E180CF9
:10339000180C180C3806F007F007180C0C180C184D
:1033A0000C180C18380CF80FE003000000000000A7
:1033B0000000000000000000E003F007380E1C0CC5
:1033C0000C180C180C181C1C381EF81BE0190018DF
:1033D000000C000C1C0EF807F001000000000000BB
:1033E00000000000000000000000000000000000DD
:1033F00000008001800100000000000000000000CB
:1034000000000000000080018001000000000000BA
:1034100000000000000000000000000000000000AC
:10342000000080018001000000000000000000009A
:103430000000000000008001800100010001800008
:10344000000000000000000000000000000000007C
:103450000000000000000010001C800FE003F800D6
:103460001800F800E003800F001C001000000000AE
:10347000000000000000000000000000000000004C
:10348000000000000000F81F000000000000F81F0E
:10349000000000000000000000000000000000002C
:1034A000000000000000000000000000000000001C
:1034B00000000000000008003800F001C007001FF5
:1034C0000018001FC007F0013800080000000000CD
:1034D0000000000000000000E003F80F180C0C18BA
:1034E0000C180018000C000600038001C000C0008A
:1034F000C00000000000C000C0000000000000008C
:1035000000000000000000000000E0071818042080
:10351000C229224A114409440944094409221113C9
:10352000E20C024004201818E00700000000000030
:10353000000000000000000080038003C006C006F9
:10354000C006600C600C301830183018F83FF83F97
:103550001C700C600C6006C006C00000000000007B
:103560000000000000000000FC03FC0F0C0C0C1815
:103570000C180C180C0CFC07FC0F0C180C300C3041
:103580000C300C300C18FC1FFC0700000000000081
:103590000000000000000000C007F01F38381C3099
:1035A0000C70066006000600060006000600060015
:1035B00006600C701C30F01FE007000000000000E7
:1035C0000000000000000000FE03FE0F060E0618BB
:1035D0000618063006300630063006300630063053
:1035E00006180618060EFE0FFE030000000000007D
:1035F0000000000000000000FC3FFC3F0C000C003D
:103600000C000C000C00FC1FFC1F0C000C000C003C
:103610000C000C000C00FC3FFC3F00000000000010
:103620000000000000000000F83FF83F18001800FC
:10363000180018001800F81FF81F180018001800CC
:103640001800180018001800180000000000000002
:103650000000000000000000E00FF83F3C780E6022
:1036600006E007C00300030003FE03FE03C007C01B
:1036700006C00EC03CF0F83FE00F00000000000064
:1036800000000000000000000C300C300C300C304A
:103690000C300C300C30FC3FFC3F0C300C300C304C
:1036A0000C300C300C300C300C30000000000000EE
:1036B0000000000000000000800180018001800106
:1036C00080018001800180018001800180018001F2
:1036D0008001800180018001800100000000000065
:1036E00000000000000000000006000600060006C2
:1036F000000600060006000600060006000600069A
:10370000180618063807F003E0010000000000006A
:10371000000000000000000006300618060C060637
:1037200006038601C60066007600DE008E010603F1
:103730000606060C061806300660000000000000B1
:103740000000000000000000180018001800180019
:1037500018001800180018001800180018001800A9
:10376000180018001800F81FF81F000000000000E3
:1037700000000000000000000EE01EF01EF01EF031
:1037800036D836D836D836D866CC66CC66CCC6C6DF
:10379000C6C6C6C6C6C686C386C3000000000000F3
:1037A00000000000000000000C301C303C303C30B9
:1037B0006C306C30CC30CC308C310C330C330C365C
:1037C0000C360C3C0C3C0C380C30000000000000A7
:1037D0000000000000000000E007F81F1C380E7019
:1037E000066003C003C003C003C003C003C003C01E
:1037F00006600E701C38F81FE00700000000000093
:103800000000000000000000FC0FFC1F0C380C3012
:103810000C300C300C300C18FC1FFC070C000C009A
:103820000C000C000C000C000C000000000000005C
:103830000000000000000000E007F81F1C380E70B8
:10384000066003E003C003C003C003C003C007E079
:1038500006630E3F1C3CF83FE0F700C0000000008C
:103860000000000000000000FE0FFE1F06380630BA
:10387000063006300638FE1FFE0706030606060C55
:10388000061806180630063006600000000000002A
:103890000000000000000000E003F80F1C0C0C18F2
:1038A0000C180C001C00F803E00F001E0038063056
:1038B00006300E301C1CF80FE0070000000000006E
:1038C0000000000000000000FE7FFE7F80018001FC
:1038D00080018001800180018001800180018001E0
:1038E0008001800180018001800100000000000053
:1038F00000000000000000000C300C300C300C30D8
:103900000C300C300C300C300C300C300C300C30D7
:103910000C300C301818F81FE00700000000000001
:103920000000000000000000036006300630063092
:103930000C180C180C18180C180C380E3006300621
:10394000700760036003C001C001000000000000B8
:1039500000000000000000000360C361C361C36198
:103960006633663366336633663366336C1B6C1BB3
:103970006C1B2C1A3C1E380E380E00000000000094
:1039800000000000000000000FE00C70183030183C
:10399000700C600EC00780038003C003E006700C4B
:1039A000301C18180C300E6007E00000000000000A
:1039B000000000000000000003C006600C301C384E
:1039C0003818300C6006E007C003800180018001D8
:1039D0008001800180018001800100000000000062
:1039E0000000000000000000FC7FFC7F0060003051
:1039F0000018000C000600038001C00060003000C9
:103A000018000C000600FE7FFE7F00000000000092
:103A10000000000000000000E003E0036000600020
:103A20006000600060006000600060006000600096
:103A30006000600060006000600060006000600086
:103A4000E003E00300000000300030006000600090
:103A50006000C000C000C000C00180018001800182
:103A60000003000300030006000600000000000041
:103A70000000000000000000E003E003000300037A
:103A8000000300030003000300030003000300031E
:103A9000000300030003000300030003000300030E
:103AA000E003E003000000000000C001C00160036B
:103AB0006003600330063006180C180C000000008C
:103AC00000000000000000000000000000000000F6
:103AD00000000000000000000000000000000000E6
:103AE00000000000000000000000000000000000D6
:103AF0000000000000000000FFFFFFFF00000000CA
:103B000000000000000000000C000C000C000C0085
:103B10000C000C000000000000000000000000008D
:103B20000000000000000000000000000000000095
:103B30000000000000000000000000000000000085
:103B40000000F003F8071C0C0C0C000FF00FF80C31
:103B50000C0C0C0C1C0FF80FF018000000000000FB
:103B600000000000000000001800180018001800F5
:103B70001800D803F80F380C181818181818181847
:103B800018181818380CF80FD803000000000000AF
:103B90000000000000000000000000000000000025
:103BA0000000C003F007300E180C180018001800B1
:103BB0001800180C300EF007C003000000000000D1
:103BC0000000000000000000001800180018001895
:103BD0000018C01BF01F301C1818181818181818D7
:103BE00018181818301CF01FC01B0000000000003F
:103BF00000000000000000000000000000000000C5
:103C00000000C003F00F300C1818F81FF81F180040
:103C100018003818301CF00FC0070000000000002A
:103C20000000000000000000800FC00FC000C000B6
:103C3000C000F007F007C000C000C000C000C00016
:103C4000C000C000C000C000C000000000000000B4
:103C50000000000000000000000000000000000064
:103C60000000E00DF80F180E0C0C0C0C0C0C0C0CDA
:103C70000C0C0C0C180EF80FE00D000C0C0C1C06B4
:103C8000F807F001000000001800180018001800E4
:103C90001800D807F80F381C181818181818181812
:103CA0001818181818181818181800000000000024
:103CB0000000000000000000C000C0000000000084
:103CC0000000C000C000C000C000C000C000C000B4
:103CD000C000C000C000C000C00000000000000024
:103CE0000000000000000000C000C0000000000054
:103CF0000000C000C000C000C000C000C000C00084
:103D0000C000C000C000C000C000C000C000C000B3
:103D1000F8007800000000000C000C000C000C0003
:103D20000C000C0C0C060C038C01CC006C00FC008D
:103D30009C018C030C030C060C0C0000000000001E
:103D40000000000000000000C000C000C000C00073
:103D5000C000C000C000C000C000C000C000C00063
:103D6000C000C000C000C000C00000000000000093
:103D70000000000000000000000000000000000043
:103D800000007C3CFF7EC7E383C183C183C183C144
:103D900083C183C183C183C183C1000000000000CF
:103DA0000000000000000000000000000000000013
:103DB00000009807F80F381C181818181818181849
:103DC0001818181818181818181800000000000003
:103DD00000000000000000000000000000000000E3
:103DE0000000C003F00F300C181818181818181815
:103DF00018181818300CF00FC00300000000000065
:103E000000000000000000000000000000000000B2
:103E10000000D803F80F380C1818181818181818BC
:103E200018181818380CF80FD803180018001800C4
:103E30001800180000000000000000000000000052
:103E40000000C01BF01F301C18181818181818187C
:103E500018181818301CF01FC01B00180018001884
:103E60000018001800000000000000000000000022
:103E70000000B007F0037000300030003000300068
:103E80003000300030003000300000000000000042
:103E90000000000000000000000000000000000022
:103EA0000000E003F003380E180C3800F003C007E0
:103EB000000C180C380EF007E003000000000000B2
:103EC000000000000000000000008000C000C000F2
:103ED000C000F007F007C000C000C000C000C00074
:103EE000C000C000C000C007800700000000000044
:103EF00000000000000000000000000000000000C2
:103F00000000181818181818181818181818181861
:103F100018181818381CF01FE019000000000000E5
:103F20000000000000000000000000000000000091
:103F300000000C18180C180C180C3006300630064F
:103F4000600360036003C001C001000000000000C6
:103F50000000000000000000000000000000000061
:103F60000000C141C141C36163636363636336366B
:103F7000363636361C1C1C1C1C1C000000000000C1
:103F80000000000000000000000000000000000031
:103F900000001C38381C300C6006600360036003AE
:103FA00060036006300C381C1C3800000000000064
:103FB0000000000000000000000000000000000001
:103FC00000001830301830187018600C600CE00CCD
:103FD000C006C00680038003800380018001C00109
:103FE000F000700000000000000000000000000071
:103FF0000000FC1FFC1F000C000600038001C00035
:10400000600030001800FC1FFC1F000000000000D2
:10401000000000000000000000038001C000C0009C
:10402000C000C000C000C000600060003000600040
:104030004000C000C000C000C000C000C00080013F
:104040000003000000000000800180018001800169
:104050008001800180018001800180018001800158
:104060008001800180018001800180018001800148
:1040700080018001000000006000C000C0018001DC
:10408000800180018001800100030003000600031D
:104090000001800180018001800180018001C00059
:1040A00060000000000000000000000000000000B0
:1040B000000000000000F010F81F080F00000000D2
:1040C00000000000000000000000000000000000F0
:1040D00000000000000001000200040006000800CB
:1040E0000A000C00100020004000800000010000C9
:1040F00000000000080020000000FC00000000009C
:10410000000000000000000000000000FF00FE00B2
:104110007F0000000300FE0000000000000000001F
:10412000000000000800200022000800FC00200021
:104130000000000000000000000000001F00F00070
:1041400011001000100040000000000000000000FE
:1041500000000000010000007F00FC001100FC00D6
:104160000000000000000000000000007F00FC00D4
:104170004400440021000400000000000000000092
:1041800000000000010000007F00FC003D00040072
:104190000000000000000000000000001F00F00010
:1041A000000008006500240000000000000000007E
:1041B00000000000110010007E00080065002400CF
:1041C0000000000000000000000000001F00F000E0
:1041D0004200FE00A50024000000000000000000D6
:1041E00000000000110010007E00080025002400DF
:1041F0000000000000000000000000001F00F000B0
:1042000042004800250044000000000000000000BB
:1042100000000000010000007E0028003C0050006B
:104220000000000000000000000000003F00F80057
:104230004800080024008800000000000000000082
:1042400000000000010000007400280021000400AC
:10425000000000000000000000000000FF00FE0061
:1042600042001000020004000000000000000101F4
:104270000103070100000804020408010101000015
:10428000A0420008000000201000000014020008F6
:10429000B0420008100000200808000030020008AA
:1042A0001000000001000000FFFFFFFF0024F400E9
:04000005080001D915
:00000001FF
