:020000040800F2
:10000000D030002089020008614200081D37000836
:100010005D4200087D0700086951000800000000EB
:10002000000000000000000000000000D5460008AD
:10003000490800080000000065420008D746000893
:10004000A3020008A3020008A3020008A3020008FC
:10005000A3020008A3020008690800089508000828
:1000600051090008A3020008A30200088107000844
:1000700091070008A3020008A3020008A3020008D9
:10008000A302000800000000A3020008A302000869
:10009000A3020008A3020008A3020008A3020008AC
:1000A00081470008A3020008A3020008A302000879
:1000B000A302000891470008A3020008A302000859
:1000C000A3020008A3020008A3020008A30200087C
:1000D000A302000859510008A3020008A302000867
:1000E000A3020008A3020008A3020008A30200085C
:1000F000A3020008A3020008A302000800000000F9
:1001000000000000A302000800000000A302000895
:10011000A302000800000000A3020008A3020008D8
:10012000A3020008A3020008A3020008A30200081B
:10013000A30200080000000000000000A302000865
:10014000A3020008A3020008000000000000000055
:10015000000000000000000000000000000000009F
:10016000000000000000000000000000A3020008E2
:10017000A3020008000000000000000000000000D2
:1001800000000000A30200080000000000000000C2
:10019000000000000000000000000000000000005F
:1001A0000000000000000000A3020008A3020008F5
:1001B000A3020008A3020008A30200080000000038
:1001C00000000000A3020008000000000000000082
:1001D000A3020008A302000800F002F800F044F8AF
:1001E0000AA090E8000C82448344AAF10107DA4592
:1001F00001D100F039F8AFF2090EBAE80F0013F0A0
:10020000010F18BFFB1A43F001031847C86B000029
:10021000E86B0000103A24BF78C878C1FAD85207BA
:1002200024BF30C830C144BF04680C607047000070
:100230000023002400250026103A28BF78C1FBD8EF
:10024000520728BF30C148BF0B607047642900F0D7
:100250002581732900F01182002070471FB505F039
:1002600093FC1FBD10B510BD00F00BFA1146FFF74F
:10027000F5FF05F025F800F029FA03B4FFF7F2FFC7
:1002800003BC00F031FA00000948804709480047E4
:10029000FEE7FEE7FEE7FEE7FEE7FEE7FEE7FEE736
:1002A000FEE7FEE704480549054A064B7047000093
:1002B0006D470008D9010008D02A0020D030002066
:1002C000D02C0020D02C002053EA020C00F06980D2
:1002D0002DE9F04B4FF00006002B1FBFB3FA83F55A
:1002E00003FA05F424FA05F65E4012BF1643B2FA8B
:1002F00082F502FA05F4C5F120051EBF22FA05FCBD
:1003000044EA0C04203556EA044C4FEA144418BF62
:10031000641C4FF000084FF00009904271EB030C91
:1003200039D3002919BFB1FA81F701FA07F6B0FAFB
:1003300080F700FA07F6C7F120071EBF20FA07FC76
:1003400046EA0C062037B6FBF4FCA7EB0507103F86
:1003500007F01F0BCBF120060CFA0BFB2CFA06F66C
:1003600044BFB3460026202FA4BF5E464FF0000BCB
:100370005BEA060C08BF4FF0010B19EB0B09ABFB56
:10038000027C48EB0608C01B06FB02CC0BFB03CC2F
:1003900071EB0C01C1E70B46024641464846BDE8F9
:1003A000F08B13B54FF000004FF00001AFF3008069
:1003B000BDE81C40704700000FB41CB5074B06AAEF
:1003C0007B4469460090059800F02DF900206946AD
:1003D00000F03CF91CBC5DF814FB00008902000031
:1003E0002DE9F0410E460446002020622046E168D7
:1003F000884730B3252805D0D4E901219047206AE9
:10040000401CF2E7E168204600278847050018D025
:10041000A5F14100192802D820354FF40067324673
:10042000294620462760FFF711FF40B1012804D07C
:10043000F61D26F007060836D8E7361DD6E728460B
:10044000DAE7206ABDE8F08170B50C460546012A5E
:1004500005D02878800600D5EA69002302E0012350
:1004600005E05B1C934202D2E05C0028F9D1A86948
:10047000E618C01AA861286A184428622846AFF313
:10048000008004E0D5E9012114F8010B9047B44243
:10049000F8D32846AFF3008070BD00002DE9F0418D
:1004A0000646002410687529314616A510D0AFF312
:1004B0000080002802DA404213A507E031688A076D
:1004C00001D512A502E0490704D511A5012401E0D8
:1004D000AFF3008000210A2206F1240709E0B0FBF7
:1004E000F2FCB0FBF2F302FB1C00303078541846EB
:1004F000491C0028F3D123462A463046BDE8F04186
:1005000000F032B8000000002D0000002B000000B9
:10051000200000004FF0000200B5134694469646B6
:10052000203922BFA0E80C50A0E80C50B1F1200106
:10053000BFF4F7AF090728BFA0E80C5048BF0CC0B4
:100540005DF804EB890028BF40F8042B08BF704712
:1005500048BF20F8022B11F0804F18BF00F8012B84
:1005600070477047704770472DE9F0470D46994630
:100570009246044600F124080168880604D5E06923
:1005800021F01001216000E00120A84201DD471B9D
:1005900000E00027A1697A1902EB0900081AA0619E
:1005A0002078C00602D42046AFF30080002608E081
:1005B000D4E901211AF806009047206A401C761CF5
:1005C00020624E45F4DB2078C0060AD52046AFF302
:1005D000008006E0D4E9012130209047206A401CC9
:1005E0002062381EA7F10107F4DC07E0D4E90121FD
:1005F00018F805009047206A401C2062281EA5F1CB
:100600000105F3DC2046AFF300802078000602D518
:100610000220BDE8F0870120FBE7000001694A1CC9
:1006200002610878704700B58FB0CDE90131002133
:10063000059105497944CDE9031011466846FFF755
:10064000CFFE0FB000BD0000E5FFFFFF0A6802F813
:10065000010B0A60704710B5436913B1AFF3008016
:1006600001E0FFF7F1FE012010BD127800F1240136
:100670000A7000224A700122EDE711684FF0FF3244
:10068000E9E7754600F02CF8AE460500694653468A
:1006900020F00700854618B020B5FFF703FEBDE83F
:1006A00020404FF000064FF000074FF000084FF0D9
:1006B000000B21F00701AC46ACE8C009ACE8C0096A
:1006C000ACE8C009ACE8C0098D46704710B50446D7
:1006D000AFF300802046BDE81040FFF7CEBD00001C
:1006E00000487047702A002001491820ABBEFEE781
:1006F000260002007047000070B50446206803F031
:1007000044FB002836D1206880681B49084048B166
:10071000E06D40F01000E065206E40F001002066C2
:10072000012070BD206803F015FB01F0A9F9054612
:100730001AE0206803F029FB10B9206803F00AFBD7
:1007400001F09EF9401B02280ED92068006800F0D5
:10075000010048B9E06D40F01000E065206E40F007
:10076000010020660120DCE72068006800F001003D
:100770000028DED00020D4E73F00008000BFFEE765
:1007800010B5024800F015FF10BD0000B029002090
:1007900010B5024800F00DFF10BD0000102A002027
:1007A00030B50E4D0468AC4201D20D4901E00C4950
:1007B00020310B460478083C1425B4FBF5F2446C58
:1007C000A40803EB84048464054C8034C46402F000
:1007D0001F050124AC40046530BD00000804024040
:1007E0000008024001794A1E064B03EB8202426573
:1007F000044A403282654A1E02F01F0301229A40D9
:10080000C26570470009024030B5D0E913546C60EE
:10081000446D14B1D0E916546C6090F8444004F073
:100820001F050124AC40056C6C600468636084683B
:10083000102C04D10468A2600468E16003E004683D
:10084000A1600468E26030BD7047002109E0002229
:1008500001E0531C9AB240F6B8339A42F9DB4B1CC4
:1008600099B28142F3DB704710B50A2000F0EAFF2D
:100870000121064801F0F6F820B905480068401C3F
:1008800003490860012000F0F3FF10BD0004004898
:100890001C00002010B50A2000F0D4FF02212348DC
:1008A00001F0E0F800283DD12148006820B9214836
:1008B0000068401C1F4908601D480068012804D1D9
:1008C0001D480068401C1C4908601948006802283F
:1008D00004D11A480068401C184908601448006890
:1008E000032804D116480068401C154908601048C8
:1008F0000068042804D113480068401C11490860AE
:100900000B480068052804D10F480068401C0E49B8
:10091000086007480068062804D10C480068401C9D
:100920000A490860022000F0A3FF10BD000400483F
:100930001C000020180000201400002010000020DF
:100940000800002004000020000000200C0000200F
:1009500010B50A2000F076FF0421234801F082F848
:1009600000283DD12148006820B921480068401E78
:100970001F4908601D480068012804D11D4800680F
:10098000401E1C49086019480068022804D11A4812
:100990000068401E1849086014480068032804D104
:1009A00016480068401E1549086010480068042871
:1009B00004D113480068401E114908600B480068C4
:1009C000052804D10F480068401E0E4908600748FA
:1009D0000068062804D10C480068401E0A490860D7
:1009E000042000F045FF10BD000400481C0000205A
:1009F0001800002014000020100000200800002033
:100A000004000020000000200C00002072B600BF8F
:100A1000FEE700002DE9F0439BB004460E464FF080
:100A20000008306800B100BF00BF94F858000128EA
:100A300003D102201BB0BDE8F083012084F85800E8
:100A400000BF0020179018902068B0F1A04F02D18D
:100A50003148009001E000200090009850B9E06D0E
:100A600040F02000E06500BF002084F8580000BF7F
:100A70000120DFE7009803F09CF90746206803F0A7
:100A800098F9D8BBD7BB254D306800B394F838002F
:100A9000716841EA4030A96821F460410843A860C8
:100AA0004FF0A04003F076F981461B4803F072F93D
:100AB00049EA0009B9F1000F27D1B168306808434D
:100AC000A96840F61F7291430843A8601DE0A8681A
:100AD00020F46040A8604FF0A04003F05BF981462D
:100AE0000D4803F057F949EA0009B9F1000F0CD19C
:100AF000A86840F61F718843A86006E0FFE7E06D34
:100B000040F02000E0654FF0010800BF002084F8AD
:100B1000580000BF40468DE7000100500003005020
:100B20002DE9F84F05460C464FF0000A00200090D2
:100B3000FE49E068884200D000E000BF00BF95F8A1
:100B40005800012802D10220BDE8F88F012085F865
:100B5000580000BF286803F027F900287DD12968D4
:100B6000D4E9002001F1300CC0F3012B0CEB8B0316
:100B7000D3F800C000F01F0E4FF01F0B0BFA0EFB56
:100B80002CEA0B0C00F01F0BC2F3846E0EFA0BFE66
:100B90004CEA0E0CC3F800C000BF286803F004F94B
:100BA0008146286803F0ECF88046B9F1000F64D163
:100BB000B8F1000FFBD1A068B0F1004F0AD1216855
:100BC0000022286803F002F94FF00041286803F082
:100BD00022F908E0A2682168286803F0F7F80021EC
:100BE000286803F018F960692968C968C1F3C10170
:100BF000490000FA01F7206904283FD028682268DC
:100C0000216900F1600C0CEB8103D3F800C0DFF820
:100C100020B30CEA0B0C02F0F84B4BF0004B4BEA04
:100C2000070B4CEA0B0CC3F800C000BF2868A26990
:100C3000216900F1600C0CEB8103D3F800C02CF0AB
:100C4000807C4CEA020CC3F800C000BF2868227FF9
:100C50002169012A02D1520601E0C6E100221346B1
:100C600000F1600C0CEB8102D2F800C02CF0007C8B
:100C70004CEA030CC2F800C000BFA7E000212868BE
:100C800003F075F8C0F3120030B90021286803F0B2
:100C90006EF8C0F3846007E00021286803F067F86D
:100CA00090FAA0F0B0FA80F02168C1F3120119B9EE
:100CB0002168C1F3846104E0216891FAA1F1B1FADD
:100CC00081F1884204D100221146286803F098F887
:100CD0000121286803F04BF8C0F3120030B901215C
:100CE000286803F044F8C0F3846007E00121286815
:100CF00003F03DF890FAA0F0B0FA80F02168C1F35B
:100D0000120119B92168C1F3846104E0216891FAE4
:100D1000A1F1B1FA81F1884204D1002201212868B1
:100D200003F06EF80221286803F021F8C0F31200E6
:100D300030B90221286803F01AF8C0F3846007E094
:100D40000221286803F013F890FAA0F0B0FA80F0BE
:100D50002168C1F3120119B92168C1F3846104E06B
:100D6000216891FAA1F1B1FA81F1884204D10022FF
:100D70000221286803F044F80321286802F0F7FFF5
:100D8000C0F3120030B90321286802F0F0FFC0F36D
:100D9000846007E00321286802F0E9FF90FAA0F0E0
:100DA000B0FA80F02168C1F3120119B92168C1F3CA
:100DB000846104E0216891FAA1F1B1FA81F18842DD
:100DC00004D100220321286803F01AF8286802F0F1
:100DD000DCFF002872D12868E2682168D0F8B030C2
:100DE000C1F3120C23EA0C0302F0180BDFF844C124
:100DF0002CFA0BFC0CEA010C43EA0C03C0F8B030EF
:100E000000BF4A49E068884258D12368C3F31203FF
:100E10001BB92368C3F3846304E0236893FAA3F344
:100E2000B3FA83F35B1C03F01F03092B3ED823683E
:100E3000C3F312031BB92368C3F3846304E023687C
:100E400093FAA3F3B3FA83F35B1C03F01F034FF091
:100E5000010C0CFA03FC2368C3F312031BB92368CB
:100E6000C3F3846304E0236893FAA3F3B3FA83F330
:100E70005B1C03F01F034CEA836C2368C3F312036B
:100E80001BB92368C3F3846304E0236893FAA3F3D4
:100E9000B3FA83F35B1C03F01F0303EB43034FF030
:100EA000000B4BEA03534CEA030347E02368C3F308
:100EB000120323B92368C3F3846305E043E0236886
:100EC00093FAA3F3B3FA83F35B1C03F01F034FF011
:100ED000010C0CFA03FC2368C3F312031BB923684B
:100EE000C3F3846304E0236893FAA3F3B3FA83F3B0
:100EF0005B1C03F01F034CEA836C2368C3F31203EB
:100F00001BB92368C3F3846304E0236893FAA3F353
:100F1000B3FA83F35B1C03F01F030A3B03EB4303A9
:100F20004FF0007B4BEA035306E0000000007F40D7
:100F300000F0FF03FFFF07004CEA03031946A26815
:100F4000286802F043FF2F492068084050B300BFD3
:100F50002D48806800F0E07600BF2C492068884268
:100F600003D02B49206888421DD106F40000D0B977
:100F70002868B0F1A04F3ED146F40001224802F0AB
:100F800039FF244800682449B0FBF1F0401C00EB15
:100F900040008000009002E00098401E0090009801
:100FA0000028F9D127E01D49206888420CD106F0BD
:100FB000807048B91A49286888421CD046F0807170
:100FC000114802F017FF16E016492068884212D136
:100FD00006F4800078B91249286888420BD046F49C
:100FE0008001094802F006FF05E0E86D40F02000AE
:100FF000E8654FF0010A00BF002085F8580000BFE7
:101000005046A1E50000088000030050000021C305
:101010001000C09080000020400D0300000052C767
:1010200000010050000084CB01460868006C704746
:101030002DE9F84F04464FF000090020009014B944
:101040000120BDE8F88F606920B194F824000128E0
:1010500000D100BFE06D30B9204600F01DF900203E
:10106000206684F8580020688168C1F3407131B16E
:1010700020688168814A1140816000BF00BF2068FC
:1010800002F08DFEB0B9206881687D4A114041F0C0
:101090008051816000BF7B4800687B49B0FBF1F064
:1010A000401C4000009002E00098401E0090009814
:1010B0000028F9D1206802F072FE48B9E06D40F0D6
:1010C0001000E065206E40F0010020664FF001093D
:1010D000206802F069FE0646E06D00F0100000286E
:1010E0007CD1002EFCD1E06D20F4807040F0020035
:1010F000E065206802F049FEB0B94FF0A04002F070
:1011000044FE8246614802F040FE4AEA000ABAF113
:10111000000F09D160685E49896821F47C110143A0
:101120005B4A916000BF00BF607FE16B41EA4030E5
:10113000E1680843A168084394F8241040EA014597
:1011400094F82400012803D1208D401E45EA404533
:10115000E06A28B1A08D00F47870216B0843054344
:101160002068C0684B49084028432168C86020684F
:10117000006920F04060616B0843216808612068C5
:1011800002F012FE8046206802F0FAFD0746B8F130
:10119000000F50D1F7BB207F002141EA803194F845
:1011A000380041EA40052068C06844F202018843E3
:1011B00028432168C860206988B12068006940F42C
:1011C0008030216808612068D0F8C0006FF30D00FE
:1011D000216908432168C1F8C0000EE045E020689D
:1011E000006920F48030216808612068D0F8C000D0
:1011F0006FF30D002168C1F8C00094F84000012889
:1012000013D1606C40F00101A06C0843E16C08430D
:10121000216D00E00FE008432168096940F2FC728B
:10122000914308432168086105E02068006920F0C7
:101230000100216808616069012809D12068006BFC
:1012400020F00F00216A491E08432168086305E069
:101250002068006B20F00F0021680863E06D20F02B
:10126000020040F00100E06505E0E06D40F0100094
:10127000E0654FF001094846E3E60000C0FFFF5F6C
:10128000C0FFFF7F80000020400D030000010050E0
:10129000000300500740F0FF10B586B0044614214B
:1012A00001A8FFF737F92068B0F1A04F2FD13348DC
:1012B0000068401C314908600846006801280DD1CB
:1012C00000BF2F48C06C40F400502D49C864084648
:1012D000C06C00F40050009000BF00BF00BF284861
:1012E000C06C40F002002649C8640846C06C00F09B
:1012F0000200009000BF00BF8814019003200290FC
:101300000020039001A91F4800F0C0FA33E01E49F5
:10131000206888422FD119480068401C174908608E
:101320000846006801280DD100BF1548C06C40F484
:1013300000501349C8640846C06C00F40050009087
:1013400000BF00BF00BF0E48C06C40F002000C4957
:10135000C8640846C06C00F00200009000BF00BFE7
:101360004FF400400190032002900020039001A957
:10137000044800F08BFA06B010BD00007000002099
:101380000010024000040048000100502DE9F04127
:101390000446434802F0E6FC0646206802F004FDDD
:1013A00000287AD100BF94F85800012802D1022009
:1013B000BDE8F081012084F8580000BF2046FFF707
:1013C0009BF90546002D63D1E06D40F6016188432D
:1013D00040F48070E06533492068884202D14FF0C4
:1013E000A04000E020682168884200D01EB9E06D6E
:1013F00020F48010E065E06D00F48050B0F5805F6F
:1014000004D1206E20F00600206601E00020206656
:101410001C202168086000BF002084F8580000BF2D
:1014200020492068884202D14FF0A04000E02068A7
:101430002168884204D01EB1052E01D0092E0ED19C
:101440002068C06800F0007028B1E06D20F4005002
:1014500040F48050E065206802F0B0FC1EE0E06DD2
:1014600040F48010E0650F492068884202D14FF0B7
:10147000A04000E020680746F86800F0007068B1FE
:10148000E06D20F4005040F48050E06506E004E098
:1014900000BF002084F8580000E00225284687E7B6
:1014A00000030050000100500146002091F8252063
:1014B000022A03D00422CA63012027E00A681268C6
:1014C00022F00E020B681A608A6C126822F4807295
:1014D0008B6C1A600A68126822F001020B681A60AD
:1014E00091F8442002F01F0301229A400B6C5A60CD
:1014F000D1E913325A604A6D42B14A6D126822F442
:1015000080724B6D1A60D1E916325A60012281F85F
:10151000252000BF002281F8242000BF704770B54D
:101520000446002594F8250002280BD00420E0632F
:10153000012084F8250000BF002084F8240000BFAB
:10154000012534E02068006820F00E002168086062
:101550002068006820F0010021680860A06C006825
:1015600020F48070A16C086094F8440000F01F0122
:1015700001208840216C4860D4E913104860606DF8
:1015800040B1606D006820F48070616D0860D4E93E
:1015900016104860012084F8250000BF002084F860
:1015A000240000BFA06B10B12046A16B88472846DD
:1015B00070BD70B50446206C05682068066894F814
:1015C000440000F01F01042088402840E0B106F0EC
:1015D0000400C8B12068006800F0200028B9206825
:1015E000006820F004002168086094F8440000F0CE
:1015F0001F0104208840216C4860206B002856D0D1
:101600002046216B884752E094F8440000F01F0107
:1016100002208840284018B306F0020000B320687A
:10162000006800F0200040B92068006820F00A003F
:1016300021680860012084F8250094F8440000F037
:101640001F0102208840216C486000BF002084F800
:10165000240000BFE06A50B32046E16A884726E0D4
:1016600094F8440000F01F01082088402840F0B1A1
:1016700006F00800D8B12068006820F00E0021684C
:10168000086094F8440000F01F0101208840216C9C
:1016900048600120E06384F8250000BF002084F842
:1016A000240000BF606B10B12046616B884770BD9D
:1016B00070B504460CB9012070BD2F4920688842DE
:1016C0000BD22E492068401A1421B0FBF1F08000A3
:1016D00060642A48083820640AE027492068401AD4
:1016E0001421B0FBF1F080006064234808382064C6
:1016F000022084F825002068056847F6F0708543CD
:10170000D4E9020108432169084361690843A169DA
:101710000843E1690843216A0843054320680560DE
:101720002046FFF73DF8A068B0F5804F01D10020BA
:1017300060602079A16C0860D4E91310486060688B
:1017400060B16068042809D82046FFF74BF80020F4
:10175000616D0860D4E91610486003E00020606500
:10176000A065E0650020E063012084F825000020EA
:1017700084F8240000BF9FE70804024008000240EC
:101780002DE9F04104460D4616461F464FF000086D
:1017900000BF94F82400012802D10220BDE8F081A6
:1017A000012084F8240000BF94F8250001283FD1CF
:1017B000022084F825000020E0632068006820F003
:1017C0000100216808603B46324629462046FFF763
:1017D0001BF8206B30B12068006840F00E002168D3
:1017E00008600BE02068006820F0040021680860B1
:1017F0002068006840F00A0021680860A06C00685A
:1018000000F4803028B1A06C006840F48070A16CB6
:101810000860606D28B1606D006840F48070616D93
:1018200008602068006840F001002168086006E058
:1018300000BF002084F8240000BF4FF0020840469B
:10184000ACE7000070B5044600F01AF906462546DC
:10185000681C10B104480068054400BF00F010F98E
:10186000801BA842FAD370BD7C00002070470000A6
:1018700010B5044604480068204020B102480460C6
:101880002046FFF7F3FF10BD1404014078B503466E
:101890000022D0E0012696400D6805EA0604002CDF
:1018A00072D04D68012D08D04D68022D05D04D68CD
:1018B000112D02D04D68122D13D1986856000325C2
:1018C000B540A8435600CD68B54028439860586895
:1018D00001259540A8430D79C5F30015954028438F
:1018E0005860D86856000325B540A84356008D6857
:1018F000B5402843D8604D68022D02D04D68122DA6
:1019000013D1D60803F1200555F826005507EE0E31
:101910000F25B540A8435607F60E0D69B54028437C
:10192000D60803F1200545F826001868560003255F
:10193000B540A8430D7905F003055600B54028438E
:1019400018604D6805F08055B5F1805F72D100BF19
:101950003C4D2D6E45F001053A4E356635462D6EEF
:1019600005F00105009500BF00BF4FEAB6359608A7
:1019700055F8260095072E0F0F25B540A843B3F163
:10198000904F02D100251AE054E02F4DAB4201D117
:10199000012514E02D4DAB4201D102250FE02C4D65
:1019A000AB4201D103250AE02A4DAB4201D1042507
:1019B00005E0294DAB4201D1052500E0062596073B
:1019C000360FB5402843254D960845F82600244D8E
:1019D0002868A0434D6805F48035B5F5803F00D1F7
:1019E00020431F4D28602D1D2868A0434D6805F435
:1019F0000035B5F5003F00D12043194D2D1D28605D
:101A00002D1D2868A0434D6805F48015B5F5801F8D
:101A100000D12043124D083528602D1D2868A043B1
:101A20004D6805F40015B5F5001F00D120430C4D9D
:101A30000C352860521C0D68D540002D7FF42AAF6C
:101A400078BD000000100240000400480008004873
:101A5000000C004800100048001400480800014035
:101A600000040140024613690B400BB1012000E065
:101A7000002070470AB1816100E081627047000078
:101A800001480068704700007400002003480068A7
:101A90000349096808440149086070477400002040
:101AA0007C00002010B50024032000F0ABF80320D8
:101AB00000F008F808B1012401E000F02FF82046FA
:101AC00010BD000070B50446002511480068D8B16B
:101AD0000F4800684FF47A71B1FBF0F00D490968C6
:101AE000B1FBF0F6304600F02BFF58B9102C07D2AE
:101AF00000222146501E00F047F80748046004E029
:101B0000012502E0012500E00125284670BD000006
:101B10007C000020800000207800002008B500BF75
:101B20000E48006E40F001000C4908660846006E41
:101B300000F00100009000BF00BF00BF0846806DAC
:101B400040F0805088650846806D00F0805000901D
:101B500000BF00BF00F0F6F808BD00000010024012
:101B60000146084600280DDB00BF00BF00F01F0340
:101B700001229A4043099B0003F1E023C3F80021AE
:101B800000BF00BF00BF70472DE9F05F80460D46E3
:101B9000164603F0EBFA074639462A46334601F06B
:101BA0000700C0F1070ABAF1040F02D94FF0040A86
:101BB00001E0C0F1070AD14600F1040ABAF1070FAB
:101BC00002D24FF0000A01E0A0F1030AD4464FF020
:101BD000010A0AFA09FAAAF1010A0AEA020A0AFA49
:101BE0000CFA4FF0010B0BFA0CFBABF1010B0BEAFB
:101BF000030B4AEA0B042146404603F0BFFABDE856
:101C0000F09F000000BF00F00702064B19684FF676
:101C1000FF031940044B0B4343EA0221014B1960B7
:101C200000BF70470CED00E00000FA0502468ABBD9
:101C30004148006800F4C060B0F5806F2BD13E4889
:101C40008030006820F480703B4BC3F88000184659
:101C5000006820F4C06040F40070186037480068E5
:101C600032235843364BB0FBF3F0411C00E0491ED1
:101C70003148406900F48060B0F5806F01D10029DF
:101C8000F5D12D48406900F48060B0F5806F51D1E6
:101C90000320704708E028488030006820F48070F6
:101CA000254BC3F8800045E0B2F5007F3AD12248C9
:101CB000006800F4C060B0F5806F2AD11E48803003
:101CC000006840F480701C4BC3F880001846006820
:101CD00020F4C06040F40070186018480068322397
:101CE0005843174BB0FBF3F0411C00E0491E12486B
:101CF000406900F48060B0F5806F01D10029F5D112
:101D00000D48406900F48060B0F5806F12D1032067
:101D1000BFE709488030006840F48070064BC3F884
:101D2000800007E00448006820F4C06040F4806050
:101D3000014B18600020ACE70070004080000020DC
:101D400040420F000348806840F4804001498860A9
:101D500070470000007000402DE9F843044600275A
:101D6000B846206800F40020B0F5002F73D1B946C2
:101D7000D348806D00F0805078B900BFD048806DA6
:101D800040F08050CE4988650846806D00F0805054
:101D9000009000BF00BF4FF00109CA48006840F43E
:101DA0008070C8490860FFF76BFE064606E0FFF743
:101DB00067FE801B022801D9032705E0C14800689F
:101DC00000F480700028F2D000BF002F46D1BC483C
:101DD0009030006800F44075CDB1206CA84216D058
:101DE000B7489030006820F44075B548D0F89000AE
:101DF00040F48030B249C1F890000846D0F8900015
:101E000020F48030C1F890000846C0F8905005F0EA
:101E10000100A0B1FFF734FE064608E0FFF730FEF0
:101E2000801B41F28831884201D9032706E0A4488B
:101E30009030006800F002000028EFD000BF5FB9CA
:101E40009F489030006820F44070216C08439C4902
:101E5000C1F8900003E00CE0B84600E0B846B9F1E4
:101E6000010F05D19648806D20F080509449886517
:101E700000BF207800F0010048B191488830006828
:101E800020F00300616808438D49C1F8880020787C
:101E900000F00200022809D189488830006820F04B
:101EA0000C00A16808438649C1F88800207800F03A
:101EB0000400042809D182488830006820F03000EE
:101EC000E16808437E49C1F88800207800F00800E6
:101ED000082809D17A488830006820F0C0002169BC
:101EE00008437749C1F88800207800F020002028B6
:101EF00009D173488830006820F440606169084364
:101F00006F49C1F88800207800F04000402809D1CE
:101F10006B488830006820F44050A1690843684944
:101F2000C1F88800207800F08000802809D164483A
:101F30008830006820F44040E16908436049C1F8F6
:101F40008800208800F48070B0F5807F09D15C485B
:101F50008830006820F44030216A08435849C1F8AD
:101F60008800208800F40070B0F5007F09D1544843
:101F70008830006820F44020616A08435049C1F865
:101F80008800208800F48060B0F5806F13D14C4841
:101F90008830006820F44010A16A0843484988311D
:101FA0000860A06AB0F5801F05D14548C06840F4BC
:101FB00080104349C860208800F40060B0F5006FCD
:101FC00013D13F488830006820F44000E16A08439C
:101FD0003B4988310860E06AB0F5800F05D1384888
:101FE000C06840F480103649C860208800F48050F2
:101FF000B0F5805F13D132488830006820F040701F
:10200000216B08432E4988310860206BB0F1807F36
:1020100005D12B48C06840F480102949C860208849
:1020200000F40050B0F5005F13D1254888300068F7
:1020300020F04060616B0843214988310860606B83
:10204000B0F1006F05D11E48C06840F480101C49F3
:10205000C860208800F48040B0F5804F13D1184844
:102060008830006820F04060A16B08431449883133
:102070000860A06BB0F1006F05D11148C06840F452
:1020800080100F49C860208800F40040B0F5004F70
:1020900013D10B488830006820F04050E16B0843B2
:1020A000074988310860E06BB0F1805F05D10448D2
:1020B000C06840F480300249C8604046BDE8F883FB
:1020C00000100240007000402DE9F04104460D462A
:1020D0004FF0000814B90120BDE8F0817D48006888
:1020E00000F00F00A8420ED27A48006820F00F00DE
:1020F0002843784908600846006800F00F00A842AD
:1021000001D00120E8E7207800F00100002864D029
:102110006068032823D17048006800F0007008B997
:102120000120D9E702F0A0F806466C48864237D96C
:102130006948806800F0F00030B1207800F00200BB
:1021400002282DD1A06858BB6348806820F0F000B9
:1021500040F08000604988604FF0800820E06068AF
:10216000022806D15C48006800F4003040B9012024
:10217000B2E75948006800F4806008B90120ABE775
:1021800000F0DEF806465548864209D95248806874
:1021900020F0F00040F080004F4988604FF0800848
:1021A0004D48806820F00300616808434A49886010
:1021B000FFF766FC074608E0FFF762FCC01B41F230
:1021C0008831884201D9032086E74348806800F0BF
:1021D0000C006168B0EB810FEED1207800F00200B6
:1021E000022820D1207800F00400042805D13A48C4
:1021F000806840F4E06038498860207800F008008A
:10220000082807D13448806820F4605040F4E0602A
:10221000314988603048806820F0F000A1680843A8
:102220002D49886008E0B8F1800F05D12A48806800
:1022300020F0F000284988602648006800F00F0070
:10224000A84219D92348006820F00F0028432149EB
:102250000860FFF715FC074608E0FFF711FCC01BFC
:1022600041F28831884201D9032035E719480068D6
:1022700000F00F00A842F0D1207800F004000428FC
:1022800007D11548806820F4E060E16808431249EE
:102290008860207800F00800082808D10E4880687F
:1022A00020F46050216940EAC1000B49886000F0C9
:1022B00047F809498968C1F30311094A515C01F0E3
:1022C0001F01C8400749086007480068FFF7FAFB8C
:1022D00002E70000002002400010024000B4C404E5
:1022E000BA5B0008800000207800002001480068E8
:1022F000704700008000002000B5FFF7F7FF054998
:102300008968C1F30221044A515C01F01F01C840F1
:1023100000BD000000100240CA5B000800B5FFF7D6
:10232000E5FF05498968C1F3C221044A515C01F007
:102330001F01C84000BD000000100240CA5B000839
:1023400070B5224DAD6805F00C05042D01D1204873
:102350003AE01E4DAD6805F00C05082D01D11D4871
:1023600032E01A4DAD6805F00C050C2D2BD1174D40
:10237000ED6805F00304154DED68C5F303156A1CFF
:10238000022C0CD0032C09D1124DB5FBF2F50F4EE7
:10239000F668C6F3062605FB06F10AE000BF0C4D01
:1023A000B5FBF2F5094EF668C6F3062605FB06F105
:1023B00000BF00BF054DED68C5F341656D1C6B00A6
:1023C000B1FBF3F000E0002070BD000000100240FF
:1023D0000024F40000366E012DE9F843044614B9D8
:1023E0000120BDE8F883207800F00100002865D0C6
:1023F000FC48806800F00C07FA48C06800F003064B
:102400000C2F01D1032E01D0082F0AD1F548006806
:1024100000F40030002851D0606800284ED101201F
:10242000DFE700BF6068B0F5803F06D1ED48006887
:1024300040F48030EB4908601AE06068B0F5A02FE6
:102440000BD1E848006840F48020E649086008465F
:10245000006840F4803008600AE0E248006820F438
:102460008030E04908600846006820F48020086059
:1024700000BF606888B1FFF703FB054606E0FFF781
:10248000FFFA401B642801D90320AAE7D548006859
:1024900000F400300028F2D010E0FFF7F1FA054612
:1024A00006E0FFF7EDFA401B642801D9032098E706
:1024B000CC48006800F400300028F2D1207800F009
:1024C0000200022860D1C748806800F00C07C548A8
:1024D000C06800F003060C2F01D1022E01D0042F9A
:1024E00018D1C048006800F4806018B1E06808B9ED
:1024F000012076E7BB48406820F0FE40217C40EA9E
:102500000160B8494860B8480068FFF7DBFA18B3C3
:10251000012066E7E06800B3B248006840F48070CC
:10252000B0490860FFF7ACFA054606E0FFF7A8FAE5
:10253000401B022801D9032053E7AA48006800F491
:1025400080600028F2D0A748406820F0FE40217C3F
:1025500040EA0160A349486016E0A248006820F400
:102560008070A0490860FFF78BFA054606E0FFF788
:1025700087FA401B022801D9032032E799480068F6
:1025800000F480600028F2D1207800F008000828CC
:1025900036D16069D0B193489430006840F00100B2
:1025A0009049C1F89400FFF76BFA054606E0FFF783
:1025B00067FA401B022801D9032012E789489430AA
:1025C000006800F002000028F1D019E0854894303E
:1025D000006820F001008349C1F89400FFF750FA29
:1025E000054606E0FFF74CFA401B022801D90320FC
:1025F000F7E67C489430006800F002000028F1D132
:10260000207800F00400042872D14FF000087548CB
:10261000806D012121EA107078B100BF7148806D92
:1026200040F080506F4988650846806D00F080500A
:10263000009000BF00BF4FF001086C48006800F434
:102640008070B0B96948006840F4807067490860DC
:10265000FFF716FA054606E0FFF712FA401B0228BC
:1026600001D90320BDE66148006800F480700028AD
:10267000F2D000BFA068012808D15A489030006805
:1026800040F001005749C1F8900021E0A0680528FA
:102690000FD154489030006840F004005149C1F80F
:1026A00090000846D0F8900040F00100C1F890007A
:1026B0000EE04C489030006820F001004949C1F814
:1026C00090000846D0F8900020F00400C1F8900077
:1026D00000BFA068A8B1FFF7D3F9054609E0FFF7EE
:1026E000CFF9401B41F28831884202D9032078E6B5
:1026F00025E03C489030006800F002000028EED051
:1027000013E0FFF7BDF9054608E0FFF7B9F9401BF4
:1027100041F28831884201D9032062E63148903085
:10272000006800F002000028EFD1B8F1010F05D1D8
:102730002C48806D20F080502A49886500BF2078A1
:1027400000F02000202836D1A069D0B1254898306B
:10275000006840F001002349C1F89800FFF790F9A4
:10276000054606E0FFF78CF9401B022801D903203B
:1027700037E61C489830006800F002000028F1D0CD
:1027800019E018489830006820F001001549C1F898
:102790009800FFF775F9054606E0FFF771F9401B51
:1027A000022801D903201CE60E489830006800F08A
:1027B00002000028F1D1E069002860D00948806853
:1027C00000F00C000C287FD0E069022858D10548A1
:1027D000006820F0807003490860FFF751F9054652
:1027E0000DE0000000100240780000200070004062
:1027F000FFF746F9401B022801D90320F1E54D48B7
:10280000006800F000700028F2D1D4E90810401EE2
:1028100041EA0011A06A41EA0021208E0122C2EBA8
:10282000500041EA40513420005DC2EB500041EAC3
:1028300040612C20005D41EAC0603E49C9683E4AC3
:10284000114008433B49C8600846006840F080706A
:1028500008600846C06840F08070C860FFF710F953
:10286000054606E0FFF70CF9401B022801D90320BA
:10287000B7E53048006800F000700028F2D056E05C
:102880002C48006820F080702A4908600846C0681B
:1028900020F00300C8600846C06828490840254960
:1028A000C860FFF7EDF8054607E00DE0FFF7E8F830
:1028B000401B022801D9032093E51E48006800F060
:1028C00000700028F2D132E0E069012800D188E5EB
:1028D0001848C66806F00301206A814225D106F037
:1028E000F001606A401EB1EB001F1ED106F4FE41EC
:1028F000A06AB1EB002F18D106F078412C20005DC2
:10290000B1EBC06F11D106F4C001208E0122C2EBE1
:102910005000B1EB405F08D106F0C0613420005D8B
:10292000C2EB5000B1EB406F01D0012059E500200F
:1029300057E50000001002400C809F01FFFFEEFEF3
:1029400070B504462546681EB0F1807F01D3012092
:102950000FE0681E4FF0E02148610F214FF0FF307B
:1029600002F00CFC00204FF0E02188610720086194
:10297000002070BD704770477047704770477047C0
:1029800030B502460B4600BF92F83C00012801D149
:10299000022030BD012082F83C0000BF022082F8F6
:1029A0003D0010684168106884681D4D1068A84299
:1029B00003D01C4D1068A84203D121F4700158685F
:1029C0000143194801401868014310684160144DE3
:1029D0001068A84213D01068B0F1804F0FD0134D8B
:1029E0001068A8420BD0124D1068A84207D00D4DB8
:1029F0001068A84203D00F4D1068A84205D124F0FA
:102A000080049868044310688460012082F83D00C7
:102A100000BF002082F83C0000BF00BFB9E7000003
:102A2000002C0140003401408FFFFFFD00040040F6
:102A30000008004000400140704710B504460CB942
:102A4000012010BD94F83D0028B9002084F83C0016
:102A5000204600F029F8022084F83D00211D20685E
:102A600001F09EFE012084F8480000BF84F83E007B
:102A700001213F20015540200155412001554220B0
:102A800001554320015500BF00BF012084F84400D8
:102A900045200155462001554720015500BF012022
:102AA00084F83D000020CCE738B504461A49206878
:102AB000884216D100BF1948806D40F002001749C6
:102AC00088650846806D00F00200009000BF00BFDE
:102AD000002211461D20FFF757F81D20FFF740F890
:102AE00019E00F492068884215D100BF0B48006EDD
:102AF00040F48030094908660846006E00F48030D2
:102B0000009000BF00BF002211461820FFF73CF8DC
:102B10001820FFF725F838BD0004004000100240DF
:102B200000400140014691F83D00012801D00120FC
:102B30007047022081F83D000868C06840F001003D
:102B40000B68D860184B0868984213D00868B0F139
:102B5000804F0FD0154B086898420BD0144B086873
:102B6000984207D0134B0868984203D0124B08686C
:102B7000984210D108688068104B00EA0302062AC8
:102B80000FD0B2F5803F0CD00868006840F001001B
:102B90000B68186005E00868006840F001000B68E9
:102BA00018600020C4E70000002C01400004004031
:102BB00000080040003401400040014007000100CF
:102BC0002DE9F04104460D4600BF94F83C00012871
:102BD00002D10220BDE8F081012084F83C0000BF52
:102BE000022084F83D00206886683F48064026F4AD
:102BF0007F46206886602868702824D00CDC00F0AE
:102C00000F01002964D10011072861D2DFE800F02C
:102C10005354555649353F00344A811A90424FD09B
:102C200009DCB0F5805F0DD0B0F5005F18D0B0F1D1
:102C3000101F4DD143E0102943D0202942D0502904
:102C400046D140E045E0D5E902136A68206801F00A
:102C500005FE2068866846F077062068866038E0C2
:102C6000D5E902136A68206801F0F8FD20688068E1
:102C700040F48040216888602BE0EA686968206839
:102C800001F004FE5021206801F0F4FD21E0EA6823
:102C90006968206801F00DFE6021206801F0EAFDFE
:102CA00017E0EA686968206801F0F0FD40212068BB
:102CB00001F0E0FD0DE000BF00BF00BF00BF00BF9E
:102CC00000BF00BF00BF2968206801F0D3FD00E00D
:102CD00000BF00BF012084F83D0000BF002084F841
:102CE0003C0000BF00BF75E788FFCEFF200010004A
:102CF000704710B5044620680069C0F34000D8B1A1
:102D00002068C068C0F34000B0B16FF002002168D5
:102D10000861012020772068806900F0030018B165
:102D20002046FFF7E5FF05E0204600F002F92046C7
:102D300000F000F90020207720680069C0F38000CF
:102D4000D8B12068C068C0F38000B0B16FF0040053
:102D500021680861022020772068806900F44070B3
:102D600018B12046FFF7C4FF05E0204600F0E1F867
:102D7000204600F0DFF80020207720680069C0F3CB
:102D8000C000D8B12068C068C0F3C000B0B16FF017
:102D9000080021680861042020772068C06900F0DD
:102DA000030018B12046FFF7A3FF05E0204600F01E
:102DB000C0F8204600F0BEF80020207720680069A7
:102DC000C0F30010D8B12068C068C0F30010B0B1E3
:102DD0006FF0100021680861082020772068C06922
:102DE00000F4407018B12046FFF782FF05E020464E
:102DF00000F09FF8204600F09DF800202077206822
:102E0000006900F0010058B12068C06800F00100BE
:102E100030B16FF0010021680861204600F08CF8A5
:102E200020680069C0F3C01058B12068C068C0F3C2
:102E3000C01030B16FF08000216808612046FFF7B4
:102E40009AFD20680069C0F3002058B12068C0686E
:102E5000C0F3C01030B16FF4807021680861204663
:102E6000FFF788FD20680069C0F3801058B1206822
:102E7000C068C0F3801030B16FF040002168086175
:102E8000204600F061F820680069C0F3401058B196
:102E90002068C068C0F3401030B16FF02000216896
:102EA00008612046FFF768FD20680069C0F3005004
:102EB00058B12068C068C0F3005030B16FF4801082
:102EC000216808612046FFF759FD20680069C0F3BA
:102ED000405058B12068C068C0F3405030B16FF422
:102EE0000010216808612046FFF747FD206800694F
:102EF000C0F3805058B12068C068C0F3805030B132
:102F00006FF48000216808612046FFF738FD2068D3
:102F10000069C0F3C05058B12068C068C0F3C05009
:102F200030B16FF40000216808612046FFF784FD8E
:102F300010BD70477047000002490968491C014AEA
:102F400011607047180000207047014600BF91F8DB
:102F50008000012801D102207047012081F8800003
:102F600000BF2420C1F8840008680268086800686F
:102F700020F001000B68186022F000520020486623
:102F8000086802602020C1F8840000BF002081F89A
:102F9000800000BF00BFDFE72DE9F04104460E4688
:102FA0001746D4F88800202827D106B117B9012088
:102FB000BDE8F08100BF94F88000012801D1022013
:102FC000F6E7012084F8800000BFE0663A4631460B
:102FD000204602F011F805466DB9E06E012809D1CE
:102FE0001020216808622068006840F01000216805
:102FF000086000E001252846DAE70220D8E7000053
:1030000070B586B006460C4622461F491F4800F0A0
:1030100027FB00200AE0A04204DA1B49095C01AA50
:10302000115402E0202101AA1154401C1428F2DBA3
:10303000E0B201F0DDFA002506E001AA515D6A1C4C
:10304000D0B202F0F7F86D1CA542F6DB002506E0D1
:10305000691CC8B202F0C8F801A948556D1CA54208
:10306000F6DB01A9002000F0EBFCE1B2142002F035
:10307000E1F8E0B202F096F8642203490348FFF752
:103080008BFF06B070BD0000A000002020290020AA
:10309000704770B504460D4600BF94F880000128C3
:1030A00001D1022070BD012084F8800000BF2420DF
:1030B000C4F88400206806682068006820F00100D9
:1030C000216808602068806820F0606028432168DB
:1030D0008860204601F002FC206806602020C4F8C9
:1030E000840000BF002084F8800000BF00BFD9E743
:1030F00070B504460D4600BF94F88000012801D148
:10310000022070BD012084F8800000BF2420C4F894
:103110008400206806682068006820F001002168AB
:1031200008602068806820F060402843216888603B
:10313000204601F0D3FB206806602020C4F88400FC
:1031400000BF002084F8800000BF00BFD9E77047AF
:10315000704770472DE9F04704462068C56920682C
:1031600006682068876840F60F0005EA0009B9F193
:10317000000F0FD105F0200060B106F0200010B95B
:1031800007F0805030B1206F10B12046216F884782
:10319000BDE8F087B9F1000F7ED0AD48384018B9CE
:1031A000AC4830400028F7D005F0010058B106F4D3
:1031B000807040B1012021680862D4F88C0040F092
:1031C0000100C4F88C0005F0020058B107F00100BE
:1031D00040B1022021680862D4F88C0040F004005D
:1031E000C4F88C0005F0040058B107F0010040B1AC
:1031F000042021680862D4F88C0040F00200C4F872
:103200008C0005F0080070B106F0200010B990485D
:10321000384040B1082021680862D4F88C0040F0A2
:103220000800C4F88C0005F4006060B106F080600E
:1032300048B14FF4006021680862D4F88C0040F077
:103240002000C4F88C00D4F88C00002844D005F08D
:10325000200050B106F0200010B907F0805020B1D6
:10326000206F10B12046216F8847D4F88CA02068C9
:10327000806800F04000402802D00AF0280028B3FF
:10328000204601F0B3FC2068806800F04000402830
:1032900018D12068806800E01FE020F0400021681D
:1032A0008860E06F50B16C48E16F8863E06FFEF7B3
:1032B00036F988B1E06F816B88470DE02046FFF753
:1032C00048FF09E02046FFF744FF05E02046FFF7EE
:1032D00040FF0020C4F88C005AE7E06E012879D145
:1032E00005F01000002875D006F01000002871D0FD
:1032F0001020216808622068806800F040004028A3
:103300003DD1E06F006840681FFA80F8B8F1000F07
:1033100034D0B4F85C00404530DDA4F85E80E06F46
:103320000068006800F02000F8B92068006820F408
:103330008070216808602068806820F001002168A2
:1033400088602068806820F0400021688860202024
:10335000C4F888000020E0662068006820F01000B3
:1033600021680860E06FFEF79FF8B4F85C00B4F8DD
:103370005E20801A81B22046FFF742FE08E734F84B
:103380005C0F6188401A1FFA80F860885C3CF8B1D5
:10339000B8F1000F1CD02068006820F490702168FC
:1033A0000860206880682A49C9430840216888600D
:1033B0002020C4F888000020E066206720680068AC
:1033C00020F010002168086041462046FFF718FEF3
:1033D000DEE6FFE705F4801050B107F4800038B155
:1033E0004FF48010216808622046FFF7B1FECFE657
:1033F00005F0800058B106F0800010B907F4000015
:1034000028B1606F10B12046616F8847C0E605F0B3
:10341000400030B106F0400018B1204601F004FC35
:10342000B6E605F4000030B106F0804018B1204641
:10343000FFF78DFEACE605F0807030B106F000407D
:1034400018B12046FFF724FEA2E600BFA0E6000068
:103450000100001020010004A34A000810B5044632
:103460000CB9012010BDA06900B100E000BFD4F884
:10347000840028B9002084F88000204600F02AF853
:103480002420C4F884002068006820F0010021682E
:103490000860204601F0EAFB012800D1E2E7A06ABB
:1034A00010B1204601F046FA2068406820F49040B0
:1034B000216848602068806820F02A0021688860C0
:1034C0002068006840F0010021680860204601F093
:1034D000ADFAC7E710B586B00446142101A8FDF780
:1034E00019F837492068884267D100BF3548006E17
:1034F00040F48040334908660846006E00F480407E
:10350000009000BF00BF00BF0846C06C40F0010043
:10351000C8640846C06C00F00100009000BF00BF06
:103520004FF4C060019002200290002003900490AC
:103530000720059001A94FF09040FEF7A7F9224817
:10354000224908601920486010212048816000212C
:10355000C16080210161002141618161C16101621D
:10356000FEF7A6F808B1FDF751FA00BF1748A067AB
:10357000846200BF14481430154908601820486060
:10358000002113488160C1608021016100214161F7
:103590008161C1610162FEF78BF808B1FDF736FA6F
:1035A00000BF0B48E067846200BF00220F21252086
:1035B000FEF7EAFA2520FEF7D3FA06B010BD0000A8
:1035C000003801400010024008000240B0290020ED
:1035D000102A002070B504460D461646D4F888001F
:1035E000202825D105B10EB9012070BD00BF94F887
:1035F0008000012801D10220F7E7012084F8800033
:1036000000BF0020E0660B49206888420AD020688D
:10361000406800F4000028B12068006840F0806035
:103620002168086032462946204601F0E5FCDCE7C7
:103630000220DAE70080004010B504460222054966
:10364000054800F00DF8022202490348FFF7C2FFC7
:1036500010BD0000A00000202029002070470000BD
:1036600070B504460E461546D4F8840020284BD188
:1036700006B10DB9012070BD00BF94F8800001288B
:1036800001D10220F7E7012084F8800000BF44F850
:10369000506FA580E5800020E06321206063A06A70
:1036A000503C08B31948A16FC8621948A16F08635C
:1036B0001848A16F48630020A16F8863236803F155
:1036C00028022B46216DA06FFEF75AF860B110203A
:1036D000C4F88C0000BF002084F8800000BF2020C8
:1036E000C4F884000120C6E740202168086200BFBA
:1036F000002084F8800000BF2068806840F08000CF
:10370000216888600020B6E70220B4E7A74B0008D4
:10371000DF4B0008BB4A00087047704700BFFEE758
:1037200000B585B014216846FCF7F4FEC020009077
:103730000120019002900220039069460248FEF7A2
:10374000A5F805B000BD00000004004870B50825CC
:10375000002400F07FFF13E06006040E002000F05C
:1037600059FF0A2001F03AFD0A2001F037FD01203F
:1037700000F050FF0A2001F031FD00F05FFF04432C
:10378000281EA5F10101CDB2E6D100F043FF0A20C9
:1037900001F024FD00F088FF204670BD70B504469E
:1037A000082517E0002000F035FF0A2001F016FD83
:1037B00004F0800000F064FF0A2001F00FFD6006B5
:1037C000040E0A2001F00AFD012000F023FF0A2068
:1037D00001F004FD281EA5F10101CDB2E2D100F0F7
:1037E00019FF0A2001F0FAFC70BD10B5012000F0AD
:1037F00047FF0A2001F0F2FC0A2001F0EFFC012053
:1038000000F008FF0A2001F0E9FC002000F002FFB0
:103810000A2001F0E3FC10BD10B5012000F030FFDC
:103820000A2001F0DBFC012000F0F4FE0A2001F088
:10383000D5FC002000F024FF0A2001F0CFFC00207E
:1038400000F0E8FE0A2001F0C9FC10BD10B5002010
:1038500000F0E0FE0A2001F0C1FC002000F010FFA3
:103860000A2001F0BBFC012000F0D4FE0A2001F088
:10387000B5FC012000F004FF0A2001F0AFFC10BDF0
:1038800010B5052400F0E6FE0A2001F0A7FC012097
:1038900000F0C0FE0A2001F0A1FC0BE0601E84B223
:1038A0000A2001F09BFC2CB900F0FEFEFFF7CEFFD2
:1038B000012010BD00F0C2FE0028EFD100F0F4FEA0
:1038C000002000F0A7FE0A2001F088FC0020F0E7AD
:1038D00000B585B014216846FCF71CFE4FF6FF705A
:1038E0000090002001900320039000200290694680
:1038F0000248FDF7CBFF05B000BD000000080048FE
:1039000000B585B014216846FCF704FE4FF6FF7041
:10391000009001200190032003900020029069464E
:103920000248FDF7B3FF05B000BD000000080048E5
:1039300030B5054600240021084600F03FF900F0AC
:1039400085F900BF03E0284600F044F9641CB4F593
:10395000963FF8D330BD000000B587B0142102A80F
:10396000FCF7D8FD00BF2A48C06C40F0040028498D
:10397000C8640846C06C00F00400019000BF00BF9E
:1039800000BF0846C06C40F00100C8640846C06C27
:1039900000F00100019000BF00BF00BF0846C06CEE
:1039A00040F00200C8640846C06C00F002000190BC
:1039B00000BF00BF4FF44870029001200390002028
:1039C0000590049002A91348FDF760FF4FF4807042
:1039D00002900120039000200590049002A94FF06E
:1039E0009040FDF753FFFFF78BFF4FF09040806949
:1039F00040F480704FF090418861064818300068AC
:103A000040F4087003491831086007B000BD000099
:103A1000001002400004004870B505460E461446EA
:103A2000A4F12000C4B204EB4400044901EB0012ED
:103A30003146284600F01AF870BD0000D25B00083D
:103A4000F0B507460C46002540F23F1609E0227803
:103A500031463846FFF7E0FFA6F1100086B2641C3D
:103A60006D1C207808B1142DF1D3F0BD2DE9F04381
:103A700006468946174600240025A046B04649461A
:103A8000404600F09BF800BF1EE000F0DFF8002584
:103A90000FE037F814000121A940084020B90C4874
:103AA000008800F097F803E00A48008800F092F8D8
:103AB0006D1C102DEDD308F1010000F0FF08494600
:103AC000404600F07BF8641C182CDED3BDE8F08380
:103AD000860000208400002010B5FFF73DFF002085
:103AE00000F016F8094908800846008848F230219D
:103AF000884202D100F0ECFB01E000F079FC0020EC
:103B000000F006F80149088010BD00008800002080
:103B100070B504462748006840F4007025490860E5
:103B20000846006840F48070086022481038006839
:103B300040F020001F49103908601F4804601D48EC
:103B4000006840F020001B49086000BF00BF00BFB4
:103B500018481038006840F02000164910390860F5
:103B60000846006840F480700860FFF7B1FE4FF02F
:103B70009040806A40F480704FF09041886200BFAE
:103B800000BF00BF0C48001F006885B24FF0904096
:103B9000806940F480704FF090418861FFF7B0FE7B
:103BA00004481038006840F4007002491039086079
:103BB000284670BD280400481408004830B5044663
:103BC0000D462146202000F07DF82946212000F0F6
:103BD00079F830BD1B49096841F40071194A116038
:103BE00018491039096841F48071164A103A116079
:103BF0001146096841F0200111601349086011491C
:103C0000096841F020010F4A116000BF00BF00BFEA
:103C10000C491039096841F020010A4A103A116034
:103C20001146096841F48071116000BF00BF00BFF8
:103C300004491039096841F40071024A103A1160D0
:103C40007047000028040048140800481B4800681A
:103C500040F40070194908600846006840F480701C
:103C6000086016481038006840F0200013491039E9
:103C700008602220124908601048006840F02000C7
:103C80000E49086000BF00BF00BF0C481038006834
:103C900040F020000949103908600846006840F4E7
:103CA0008070086000BF00BF00BF04481038006883
:103CB00040F400700149103908607047280400483A
:103CC00014080048214A126842F400721F4B1A601F
:103CD0001A46126842F480721A601C4A103A12683E
:103CE00042F02002194B103B1A60194A1060174A23
:103CF000126842F02002154B1A6000BF00BF00BFDF
:103D0000124A103A126842F02002104B103B1A601F
:103D10001A46126842F480721A600D4A11600B4A0A
:103D2000126842F02002094B1A6000BF00BF00BFBA
:103D3000064A103A126842F02002044B103B1A6007
:103D40001A46126842F480721A60704728040048CC
:103D5000140800488168024A1140491C816070477C
:103D6000C0FFFF7F0146886800F01F0070470246D1
:103D700002F1600000EB8103186800F0F840704722
:103D800001468868C0F3C00070470146886800F0AB
:103D9000010070470146886800F001007047014645
:103DA0008868C0F30070704701468868C0F38000DF
:103DB000704701468868C0F3800070478168024AF6
:103DC0001140091D81607047C0FFFF7F70B500F191
:103DD0001404C1F3406504EB85031C68C1F3045669
:103DE0000725B540AC43C1F3045502FA05F52C4351
:103DF0001C6070BD826822F0E0720A4382607047E6
:103E000010B500F1600404EB81031C6824F0004449
:103E100014431C6010BD426922F000420A43426113
:103E20007047000000B58BB00020089009900A9000
:103E300020216846FCF76EFB4FF0A0401F49086048
:103E40004FF40030486000211C488160C16001616E
:103E500041610421816100210177417701210162E3
:103E6000002180F82410C162016380F83810C1631A
:103E700080F84010FDF7DCF808B1FCF7C7FD002022
:103E8000089008A90D48FCF7C5FD08B1FCF7BEFD78
:103E90000B48009006200190002002907F200390A4
:103EA000042004900020059069460448FCF738FE81
:103EB00008B1FCF7ABFD0BB000BD0000B02700203F
:103EC0000008302E00B589B0202101A8FCF722FBA4
:103ED0001A481B4908604002486000211848816068
:103EE000C160016141610421816100210177417755
:103EF00001210162002180F82410C162016380F871
:103F00003810C16380F84010FDF792F808B1FCF753
:103F10007DFD0C48019006200290002003907F2038
:103F20000490042005900020069001A90448FCF7A5
:103F3000F7FD08B1FCF76AFD09B000BD00010050B3
:103F40001C2800200080F03E08B500BF1548806C9A
:103F500040F00400134988640846806C00F00400B7
:103F6000009000BF00BF00BF0846806C40F0010019
:103F700088640846806C00F00100009000BF00BF1C
:103F8000002211460B20FDF7FFFD0B20FDF7E8FD99
:103F9000002211460C20FDF7F7FD0C20FDF7E0FD97
:103FA00008BD00000010024000B587B0142102A82F
:103FB000FCF7B0FA00BF5048C06C40F004004E4916
:103FC000C8640846C06C00F00400019000BF00BF48
:103FD00000BF0846C06C40F02000C8640846C06CB2
:103FE00000F02000019000BF00BF00BF0846C06C79
:103FF00040F00100C8640846C06C00F00100019068
:1040000000BF00BF00BF0846C06C40F00200C8649B
:104010000846C06C00F00200019000BF00BF00BF66
:104020000846C06C40F00800C8640846C06C00F048
:104030000800019000BF00BF01224FF47F412F48CC
:10404000FDF718FD002204212D48FDF713FD002285
:10405000C0212C48FDF70EFD4FF47F400290012057
:10406000039000200490059002A92448FDF70EFC5F
:104070000120029000200390049002A94FF090408C
:10408000FDF704FC072002901F48039000200490D5
:1040900002A91C48FDF7FAFB0420029001200390BE
:1040A00000200490059002A91548FDF7EFFBC02001
:1040B00002900120039000200490059002A911486D
:1040C000FDF7E4FB00220E210620FDF75DFD062032
:1040D000FDF746FD00220F210720FDF755FD0720C3
:1040E000FDF73EFD00220F210820FDF74DFD0820C1
:1040F000FDF736FD07B000BD001002400008004883
:10410000000C0048000400480000211000B587B0F2
:10411000002003900490059006900090019002907A
:1041200015481649086041F63F7048600021134861
:10413000816042F20F71C1600021016141618161C2
:10414000FEF77BFC08B1FCF761FC4FF48050039054
:1041500003A90A48FEF734FD08B1FCF757FC00201C
:104160000090029069460548FEF70AFC08B1FCF78A
:104170004DFC07B000BD000000400140D4280020E5
:1041800000B587B000200390049005900690009041
:10419000019002901448154908604F2048600021A2
:1041A0001248816042F21071C16000210161816199
:1041B000FEF743FC08B1FCF729FC4FF48050039054
:1041C00003A90A48FEF7FCFC08B1FCF71FFC00201D
:1041D0000090029069460548FEF7D2FB08B1FCF753
:1041E00015FC07B000BD0000000400408828002036
:1041F00010B51848184908604FF41650486000215F
:1042000015488160C16001610C214161002181611B
:10421000C1610162416200200F4988620846FFF7D0
:104220001DF908B1FCF7F2FB00210B48FEF760FF17
:1042300008B1FCF7EBFB00210748FEF72AFF08B1A5
:10424000FCF7E4FB0448FEF780FE08B1FCF7DEFB58
:1042500010BD0000003801402029002000BFFEE70B
:1042600000BFFEE77047000070B5164DED6805F021
:104270000304144DED68C5F303156B1C022C0CD020
:10428000032C09D1104DB5FBF3F50E4EF668C6F3BD
:10429000062605FB06F10AE000BF0C4DB5FBF3F561
:1042A000084EF668C6F3062605FB06F100BF00BF00
:1042B000044DED68C5F341656D1C6A00B1FBF2F079
:1042C00070BD00000010024000366E010024F400B2
:1042D00000B501210020FFF7F5FC4FF47A70FCF7E0
:1042E000B4FA00210120FFF7EDFC41F2907110209B
:1042F000FFF7E8FC4FF41C516020FFF7E3FC0121BD
:104300006120FFF7DFFC02214620FFF7DBFC48F2CB
:1043100010011320FFF7D6FC48F2FE011220FFF730
:10432000D1FC4FF4A0610220FFF7CCFC41F2300138
:104330000320FFF7C7FC40F203313020FFF7C2FC37
:1043400040F203313120FFF7BDFC40F2033132204F
:10435000FFF7B8FC4FF440713320FFF7B3FC0321A3
:104360003420FFF7AFFC40F203313520FFF7AAFC01
:1043700014213620FFF7A6FC40F203313720FFF767
:10438000A1FC40F203313820FFF79CFC40F20331DE
:104390003920FFF797FC4FF440713A20FFF792FC69
:1043A00003213B20FFF78EFC40F203313C20FFF756
:1043B00089FC4FF4A0513D20FFF784FC4FF40071BD
:1043C0009220FFF77FFC40F203319320FFF77AFC45
:1043D00040F60D019020FFF775FC41F21801032013
:1043E000FFF770FC40F273110720FFF76BFC00BD74
:1043F00010B543F20801E320FFF764FC1221E72027
:10440000FFF760FC41F23121EF20FFF75BFC002158
:104410000120FFF757FC4FF4E0610220FFF752FC48
:1044200041F230010320FFF74DFC00210420FFF78B
:1044300049FC40F207210820FFF744FC0021092035
:10444000FFF740FC00210A20FFF73CFC00210C2074
:10445000FFF738FC00210D20FFF734FC00210F206E
:10446000FFF730FC00211020FFF72CFC0721112062
:10447000FFF728FC00211220FFF724FC0021132065
:10448000FFF720FCC820FDF7DDF941F29061102014
:10449000FFF718FC40F227211120FFF713FC322010
:1044A000FDF7D0F91D211220FFF70CFC3220FDF79B
:1044B000C9F94FF400611320FFF704FC14212920EF
:1044C000FFF700FC0B212B20FFF7FCFB3220FDF750
:1044D000B9F900212020FFF7F5FB00212120FFF78B
:1044E000F1FB07213020FFF7EDFB40F2077131208F
:1044F000FFF7E8FB06213220FFF7E4FB40F20471EE
:104500003520FFF7DFFB41F604713620FFF7DAFBB9
:1045100004213720FFF7D6FB00213820FFF7D2FB1C
:1045200040F206713920FFF7CDFB40F201713C20CB
:10453000FFF7C8FB0F213D20FFF7C4FB00215020EF
:10454000FFF7C0FBEF215120FFF7BCFB00215220F9
:10455000FFF7B8FB40F23F115320FFF7B3FB4FF4D6
:104560001C516020FFF7AEFB01216120FFF7AAFB81
:1045700000216A20FFF7A6FB00218020FFF7A2FBA5
:1045800000218120FFF79EFB00218220FFF79AFB8C
:1045900000218320FFF796FB00218420FFF792FB88
:1045A00000218520FFF78EFB10219020FFF78AFB6A
:1045B00000219220FFF786FB03219320FFF782FB67
:1045C0004FF488719520FFF77DFB00219720FFF7BE
:1045D00079FB00219820FFF775FB41F218010320B9
:1045E000FFF770FB40F273110720FFF76BFB10BD64
:1045F00010B50446FFF710F95E20FFF7CFF8FFF77C
:104600003FF92046FFF7CAF8FFF73AF9FFF71EF91E
:1046100010BD000030B10849096841F04001064A68
:10462000116007E004491031096841F04001024A75
:1046300010321160704700001804004810B5802146
:104640000348FDF70FFA012800D110BD0020FCE758
:104650000004004800B585B014216846FBF75AFFF6
:104660008020009000200190012002900220039001
:1046700069460248FDF70AF905B000BD000400488C
:1046800030B10849096841F08001064A116007E02D
:1046900004491031096841F08001024A103211606A
:1046A000704700001804004800B585B01421684622
:1046B000FBF730FF80200090112001900020029035
:1046C0000220039069460248FDF7E0F805B000BDFE
:1046D00000040048704710B5FDF7D8F910BD00B5CB
:1046E000A5B0382117A8FBF715FF142112A8FBF776
:1046F00011FF442101A8FBF70DFF4FF40070FDF7F7
:1047000095FA012017900004189002201E900321B2
:104710001F9117A84162142181620221C1620163C5
:104720004163FDF759FE08B1FCF770F90F201290B4
:10473000032013900020149015901690022112A8C7
:10474000FDF7C2FC08B1FCF761F948F201000190E5
:10475000002002904FF00050109001A8FDF7FCFAE5
:1047600008B1FCF753F925B000BD0000034800680C
:1047700040F47000014908607047000088ED00E0D7
:1047800010B50248FEF7B5FA10BD0000D42800208D
:1047900010B50248FEF7ADFA10BD000088280020D1
:1047A00010B50268264B98420BD0B0F1804F08D06C
:1047B000244B984205D0244B984202D0234B984278
:1047C00003D122F070024B681A431D4B984214D05B
:1047D000B0F1804F11D01B4B98420ED01A4B98422B
:1047E0000BD01A4B984208D0194B984205D0194B60
:1047F000984202D0184B984203D122F44072CB6801
:104800001A4322F080034C6943EA040202608B6879
:10481000C3620B6883620A4B98420BD00B4B9842E1
:1048200008D00B4B984205D00A4B984202D00A4B55
:10483000984201D10B6903630123436110BD00005D
:10484000002C0140000400400008004000340140FA
:1048500000400140004401400048014030B50C4692
:10486000816821F47F4142EA032525432943816081
:1048700030BD00000A468168034B194042F007032F
:1048800019438160704700008FFFCFFF30B50B46A2
:104890001446026A056A25F001050562816921F066
:1048A000F00141EA041122F00A021A438161026216
:1048B00030BD30B50B461446056A25F0100505627B
:1048C0008169026A21F4704141EA043122F0A002B8
:1048D00042EA03128161026230BD000070B5456E8C
:1048E0002DB90125A0F86A50A0F868501CE00823F3
:1048F00008240568AD68C5F342610568AD686A0FB4
:104900000A4DAD5C15FB04F5094EB65C95FBF6F55A
:10491000A0F86A50054D6D5C15FB03F5044E765CFE
:1049200095FBF6F5A0F8685070BD0000AA5B000882
:10493000B25B000890F8281001F0010139B101685C
:10494000496821F40031C26A11430268516090F84D
:10495000281001F00201022907D10168496821F4F9
:104960008031026B11430268516090F8281001F009
:104970000401042907D10168496821F48021426BB0
:1049800011430268516090F8281001F008010829CD
:1049900007D10168496821F40041826B1143026824
:1049A000516090F8281001F01001102907D101681A
:1049B000896821F48051C26B11430268916090F8BC
:1049C000281001F02001202907D10168896821F40D
:1049D0000051026C11430268916090F8281001F0B8
:1049E0004001402913D10168496821F48011426CCB
:1049F000114302685160416CB1F5801F07D1016815
:104A0000496821F4C001826C11430268516090F83A
:104A1000281001F08001802907D10168496821F43C
:104A20000021C26C114302685160704738B50446DA
:104A30000020C4F88C00FDF723F8054620680068C4
:104A400000F0080008280CD16FF07E402B460022B1
:104A50004FF400110090204600F01EFB08B1032027
:104A600038BD2068006800F0040004280CD16FF005
:104A70007E402B4600224FF480010090204600F03B
:104A80000BFB08B10320EBE72020C4F88400C4F836
:104A900088000020E06600BF84F8800000BF00BFEF
:104AA000DEE770B50546AC6A0020A4F85E00A4F805
:104AB00056002046FEF74DFB70BD2DE9F04105463E
:104AC000AC6AD4F88460D4F888702068806800F0FC
:104AD0008000802807D1212E05D10020A4F856009F
:104AE000204600F0B2F82068806800F040004028BE
:104AF00007D1222F05D10020A4F85E00204600F047
:104B000075F8D4F88C0040F01000C4F88C002046F2
:104B1000FEF71FFBBDE8F08170B50546AC6A28685A
:104B2000006800F0200000BB0020A4F85E002068B0
:104B3000006820F48070216808602068806820F098
:104B40000100216888602068806820F040002168AA
:104B500088602020C4F88800E06E012805D1206814
:104B6000006820F0100021680860E06E012805D17F
:104B7000B4F85C102046FEF743FA02E02046FEF748
:104B80005BFD70BD70B50546AC6AE06E012806D1CC
:104B9000B4F85C0041082046FEF732FA02E02046F5
:104BA000FEF75CFD70BD70B50546AC6A286800680C
:104BB00000F0200078B90020A4F856002068806832
:104BC00020F08000216888602068006840F0400084
:104BD0002168086002E02046FEF79EFD70BD70B5BA
:104BE0000446A56A2846FEF798FD70BD016809686D
:104BF00021F490710268116001688968094A1140C6
:104C000002689160C16E012905D10168096821F02F
:104C10001001026811602021C0F888100021C166CF
:104C200001677047FEFFFFEF10B50446206800687B
:104C300020F04000216808602020C4F88400002093
:104C400060672046FEF768FD10BD0168096821F025
:104C5000C001026811600168896821F400010268DE
:104C600091602021C0F88410704700002DE9FE4FAC
:104C7000044600200290D6492068884200D100E016
:104C800000BF2169A068084361690843E16940EAFF
:104C9000010820680068CF49084040EA0800216800
:104CA00008602068406820F44050E16808432168AB
:104CB0004860D4F81880C6492068884202D0206A2B
:104CC00040EA080820688068C349084040EA0800B4
:104CD000216888602068C06A20F00F00616A08437C
:104CE0002168C86200BFBD492068884216D1BC480F
:104CF000006800F0030030B1012808D0022804D079
:104D0000032808D105E0012507E0022505E0042578
:104D100003E0082501E0102500BF6FE0B1492068DD
:104D2000884216D1AE48006800F00C0030B104286B
:104D300008D0082804D00C2808D105E0002507E099
:104D4000022505E0042503E0082501E0102500BF49
:104D500054E0A5492068884216D1A148006800F0B7
:104D6000300030B1102808D0202804D0302808D1D5
:104D700005E0002507E0022505E0042503E00825FD
:104D800001E0102500BF39E098492068884216D11B
:104D90009348006800F0C00030B1402808D0802857
:104DA00004D0C02808D105E0002507E0022505E071
:104DB000042503E0082501E0102500BF1EE084491A
:104DC0002068884219D18648006800F4406048B1E4
:104DD000B0F5806F0AD0B0F5006F05D0B0F5406F28
:104DE00008D105E0002507E0022505E0042503E0E1
:104DF000082501E0102500BF00E0102500BF744920
:104E0000206888425DD135B1022D08D0042D08D02C
:104E1000082D0DD109E0FDF76FFA06460CE0744E3F
:104E20000AE0FDF78DFA064606E04FF4004603E07F
:104E300000260120029000BF00BF002E10D06D4957
:104E4000606A31F81000B6FBF0F9606800EB4000D2
:104E5000484503D860680003484502D2012002900B
:104E6000AAE06449606A31F810C062460023304607
:104E70001946FBF729FA4FF4807C00220B46A0FB71
:104E80000C1B03FB0CB300FB0233606840088C462C
:104E90001CEB000043EB0201CDE90001D4F804C093
:104EA00062460023FBF710FA0746B7F5407F05D3AB
:104EB000B7F5801F02D22068C7607DE00120029014
:104EC0007AE0E069B0F5004F40D1092D17D2DFE854
:104ED00005F005090D160F1616161300FDF70CFA4E
:104EE000064610E0FDF71AFA06460CE0404E0AE0CE
:104EF000FDF726FA064606E04FF4004603E00026DA
:104F00000120029000BF00BFFEB13A49606A31F84B
:104F10001000B6FBF0F04000616800EB5100B0FB00
:104F2000F1F087B2102F0ED3B7F5803F0BD24FF6BA
:104F3000F07007EA000AC7F342004AEA000A206854
:104F4000C0F80CA038E00120029035E0092D17D2FE
:104F5000DFE805F005090D160F1616161300FDF70C
:104F6000CBF9064610E0FDF7D9F906460CE0204ED5
:104F70000AE0FDF7E5F9064606E04FF4004603E0D7
:104F800000260120029000BF00BFAEB11949606A3F
:104F900031F81000B6FBF0F0616800EB5100B0FB97
:104FA000F1F087B2102F05D3B7F5803F02D2206809
:104FB000C76001E0012002900120A4F86A00A4F873
:104FC00068000020206760670298BDE8FE8F00003F
:104FD00000800040F369FFCFFFF4FF11003801406B
:104FE000881002400044004000480040004C00404F
:104FF0000024F400925B000870B504460E46154686
:1050000044F8586FA5800020606322202063606A06
:10501000583C08B31D48E16FC8621D48E16F086342
:105020001C48E16F48630020E16F8863236803F147
:1050300024012B46A26DE06FFCF7A2FB60B11020AB
:10504000C4F88C0000BF002084F8800000BF20203E
:10505000C4F88400012070BD00BF002084F88000E7
:1050600000BF2068006840F48070216808602068F4
:10507000806840F00100216888602068806840F006
:105080004000216888600020E5E70000194B000817
:10509000854B0008BB4A00082DE9F04104460D4647
:1050A00017469846069E4AE0701C002847D0FCF739
:1050B000E7FCA0EB0800B04200D8C6B92068006841
:1050C00020F4D070216808602068806820F001001A
:1050D000216888602020C4F88400C4F8880000BFDC
:1050E000002084F8800000BF0320BDE8F081206824
:1050F000006800F0040010B32068C069C0F3C0204D
:10510000E8B14FF40060216808622068006820F46C
:10511000D070216808602068806820F00100216854
:1051200088602020C4F88400C4F88800C4F88C008B
:1051300000BF002084F8800000BF0320D5E720686E
:10514000C0692840A84201D1012000E00020B842F7
:10515000AAD00020C9E7000010B50248FDF7FAFF09
:1051600010BD00002029002000BFFEE702480068B3
:10517000C0F30220704700000CED00E010B50028DD
:1051800004DB0A07130E054A135406E00A07140E3F
:10519000034A00F00F031B1FD45410BD00E400E0CD
:1051A00018ED00E010B5044601224FF6FF710948E2
:1051B000FCF760FC210200220648FCF75BFC0122A0
:1051C00004210548FCF756FC002204210248FCF7A4
:1051D00051FC10BD00080048000C0048002100E010
:1051E000491C8142FCD3704770B50446FEF714FB9E
:1051F000A020FEF7D3FAFEF743FB2046FEF7CEFAD7
:10520000FEF73EFBFEF722FB0520FCF71BFBFEF73B
:1052100003FBA120FEF7C2FAFEF732FBFEF796FA77
:105220000546FEF7E2FAFEF711FB0520FCF70AFB44
:10523000284670BD70B505460C46FEF7EDFAA02075
:10524000FEF7ACFAFEF71CFB2846FEF7A7FAFEF7BE
:1052500017FB2046FEF7A2FAFEF712FBFEF7F6FA5E
:105260000A20FCF7EFFA70BD70B52DED048B0446F3
:105270002046FCF78BF82046FBF7D6FE054628466D
:1052800000F071FB41EC190B9FED090B53EC102B57
:1052900000F07CFB41EC180B9FED070B53EC102B3F
:1052A00000F0DAF941EC100BBDEC048B70BD00008E
:1052B0006666666666660A40000000000000B04050
:1052C0002DED048B82B0FCF7EDFBFFF708FAFEF73B
:1052D0006BFEFEF755FFFEF78BFFFEF735FEFEF780
:1052E000A1FDFEF7EFFDFEF711FFFEF7F5FB4FF610
:1052F000FF70FEF71DFBFEF713FA42F21072AD4984
:10530000AD48FDF749FEAD48FDF70CFC50E1AC4857
:105310000068072802D10020A9490860A948006850
:105320003C2807D1A8480068401CA7490860002015
:10533000A4490860A3480068002802DA0020A149B7
:105340000860A14800683C2807D1A0480068401CBC
:105350009E49086000209C4908609B48006800281E
:1053600002DA0020984908609848006818280CD193
:1053700097480068401C96490860002093490860DF
:1053800094480068401C93490860904800680028D1
:1053900002DA00208D4908608F480068642190FB84
:1053A000F1F201FB12048C48006890FBF1F58B4888
:1053B0000068032802DB8948006802E0874800682B
:1053C0000C3081468248066809F101021A235A43CB
:1053D0000A2392FBF3F2E31704EB937304EBA303AA
:1053E000EF1705EB977703EBA703022707FB1533AE
:1053F0001A443244521E774B1A6018460068401E09
:10540000072190FBF1F201FB1200401C19460860D5
:1054100073487249096850F82100401C6C490968BA
:10542000884207D16D480068401C6C490860012023
:105430006749086066480068012802DA012064496B
:105440000860664800680D2807D163480068401C62
:10545000614908600120614908606048006810B92E
:1054600001205E4908605D4803685B485DA10268F1
:105470006148FAF7A1FF60490020FEF7E1FA5548BC
:10548000036853485DA102685B48FAF795FF5A49E3
:105490001820FEF7D5FA4B48006800904A48036888
:1054A0004A485AA102685448FAF786FF5249A82090
:1054B000FEF7C6FA5B484249096850F821205AA114
:1054C0004D48FAF779FF4C493020FEF7B9FA5A48AF
:1054D000FFF7CAFEB0EE409AF0EE609A9FED570BD0
:1054E00053EC102B51EC190B00F050FA41EC180B57
:1054F00000F00AFA07465348FFF7B6FEB0EE409AAE
:10550000F0EE609A9FED4D0B53EC102B51EC190B04
:1055100000F03CFA41EC180B00F0F6F980463B46EF
:10552000424649A13448FAF747FF33497820FEF74D
:1055300087FA4448FFF798FEB0EE409AF0EE609A82
:105540009FED3E0B53EC102B51EC190B00F01EFAA3
:1055500041EC180B00F0D8F920490968884223D1A2
:105560003548FFF781FEB0EE409AF0EE609A9FED6D
:10557000330B53EC102B51EC190B00F007FA41ECF4
:10558000180B00F0C1F91249096888420CD10D4886
:10559000007800F0010018B1FF20FFF703FE06E0DD
:1055A0000020FFF7FFFD02E00020FFF7FBFD00BF3A
:1055B000ADE60000A000002020290020D428002013
:1055C0001C00002018000020140000201000002003
:1055D000080000200C000020000000200400002033
:1055E00020000020796561723A2564206D6F757422
:1055F000683A2564000000008C0000206461793A5C
:105600002564207765656B3A25640000686F7572C4
:105610003A2564206D696E74653A256420733A25D5
:1056200064200000540000206368616E67653A25BD
:1056300073202020000000001C2800200000000033
:1056400000002440B0270020636C6F636B3A256430
:1056500020202564200000002DE9C04130B4DFF88F
:10566000A0C23CEA111418BF3CEA131400F0EC800D
:1056700081EA03051CEA111444EAD57418BF1CEA38
:10568000131500F0C780A4EB05044FF0004545EA70
:10569000C12145EAC32341EA505143EA525304F180
:1056A0007F74994204F500344FEAC0204FEAC222C9
:1056B00008BF904200F09C804FEA13650FF240163D
:1056C000765D4FEA134506FB05F7C7F1807706FBC9
:1056D00007F74FEAD737A7FB03687642C8F580384B
:1056E000A7FB06CE38BFA8F1010807FB08E64FF07C
:1056F000000EA6FB028CE6FB03CEDCF1000CCEF123
:10570000004E38BFAEF1010EA6FB0C584FF000075B
:105710004FF00005E6FB0E87A1FB08C6A0FB07CEF5
:1057200016EB0E0645F10005E1FB076515F1E04EAD
:105730007EBFA4F580345FEA46066D4116F180070E
:1057400045F100054FEA17274FEA066647EA056765
:10575000A6F1DE46B6F1805F4FEA15251FD938461F
:1057600024F0010C05EBC471BCF1FE6F01EB0C11D0
:1057700002D8F0BCBDE8008124425CBF01F5801E68
:105780009EEAC47F02D4F0BCBDE80081244238D434
:10579000F0BCA1F1C041BDE8004100F0EFB94FEA13
:1057A000D22242EA43524FEAD323A7FB02864FEAB2
:1057B000D02040EA415007FB03661EEA0E0F4FEA75
:1057C000D12105FB026658BFA6EB0056B6EB00568A
:1057D0004FEA520E4EEAC37E18EB0E0E56EB530EF6
:1057E000BDD518EB02085E417F1C55F10005B6E7F8
:1057F0004FF480154FF000074FF000064FF00008FF
:10580000ADE7F0BC4FF0000001F1C04101F00041F4
:10581000BDE8008111EA0C1F0CEA131500D00CE062
:1058200013EA0C1F00F025804FF00000F0BC81EA65
:10583000030101F00041BDE80081F0BCBDE800417A
:1058400081EA030100F09AB9F0BCBDE8004170B5EF
:1058500000F046F9097EFC3E00F007B881EA03013A
:105860004FF0000001F00041704781EA030100F0B1
:1058700085B9F0BCBDE800414FF0000021497047F8
:10588000FFFDFBF9F7F5F4F2F0EEEDEBE9E8E6E405
:10589000E3E1E0DEDDDBDAD8D7D5D4D3D1D0CFCD8C
:1058A000CCCBCAC8C7C6C5C4C2C1C0BFBEBDBCBBC5
:1058B000BAB9B8B7B6B5B4B3B2B1B0AFAEADACABC0
:1058C000AAA9A8A8A7A6A5A4A3A3A2A1A09F9F9E9A
:1058D0009D9C9C9B9A99999897979695959493934C
:1058E000929191908F8F8E8E8D8C8C8B8B8A8989E3
:1058F0008888878786858584848383828281818066
:105900000000FF070000F87F4FEA41034FEA5353BE
:10591000A3F58063D3F11E03C8BFD3F1210C0CDDC6
:105920004FF0004242EAC12242EA505232FA03FCEE
:105930008CEAE17CACEBE1707047102BC4BF002017
:10594000704703F5787CBCF1FF3F04D06FF0004254
:1059500082EA2100704770B500F0C2F849922480B5
:1059600000207047F2E7B0FA80F310FA03F10AD092
:10597000C3F11D0303F580634FEA41504FEA035220
:1059800002EBD12170474FF000007047DFF848C1AB
:1059900070B51CEA111E1EBF1CEA13159EEA0C0FFF
:1059A00095EA0C0F00F06F8081EA030423EA4C13A0
:1059B0004EEAD47E21EA4C1141F4801143F4801365
:1059C000AE44A1FB024CA0FB0365AEF17F7E36190D
:1059D00055EB0C05A1FB034C4CF10003A0FB021C92
:1059E00016EB0C06654153F10003094218BF46F05F
:1059F000010613F4007F0BD14FEA03314FEA053063
:105A0000340341EA155140EA16506FF003020AE0F0
:105A10004FEAC3214FEAC520F40241EA555140EA5A
:105A200056506FF0020202EB2E4201EB025585EA5E
:105A3000CE710AD05FEA440C18BF24F0004450F144
:105A4000000041F1000120EAD47040F2FE7C624582
:105A500000D270BDA84214BF4FF080444FF04044C4
:105A6000002E08BF0024BEF1806FA8BFA1F1C04185
:105A7000BDE8704080F282804FF0000001F1C0412B
:105A800001F0004170479EEA0C0F0CEA131518BF95
:105A900095EA0C0F06D04FF0000081EA030E0EF0DD
:105AA000004170BD00F01CF88900013E00F007B80D
:105AB00000F009B84FEA430C5FEA5C5C08D081EA69
:105AC000030100F05BB84FEA410C5FEA5C5CF6D181
:105AD0004FF00000014970470000FF070000F87F09
